{
  "contractName": "LegendsOfVenariPass",
  "abi": [
    {
      "inputs": [
        {
          "internalType": "uint256",
          "name": "mintSupply",
          "type": "uint256"
        },
        {
          "internalType": "uint256",
          "name": "teamSupply",
          "type": "uint256"
        },
        {
          "internalType": "uint256",
          "name": "maxMint",
          "type": "uint256"
        },
        {
          "internalType": "bytes32",
          "name": "merkleroot",
          "type": "bytes32"
        }
      ],
      "stateMutability": "nonpayable",
      "type": "constructor"
    },
    {
      "anonymous": false,
      "inputs": [
        {
          "indexed": true,
          "internalType": "address",
          "name": "owner",
          "type": "address"
        },
        {
          "indexed": true,
          "internalType": "address",
          "name": "approved",
          "type": "address"
        },
        {
          "indexed": true,
          "internalType": "uint256",
          "name": "tokenId",
          "type": "uint256"
        }
      ],
      "name": "Approval",
      "type": "event"
    },
    {
      "anonymous": false,
      "inputs": [
        {
          "indexed": true,
          "internalType": "address",
          "name": "owner",
          "type": "address"
        },
        {
          "indexed": true,
          "internalType": "address",
          "name": "operator",
          "type": "address"
        },
        {
          "indexed": false,
          "internalType": "bool",
          "name": "approved",
          "type": "bool"
        }
      ],
      "name": "ApprovalForAll",
      "type": "event"
    },
    {
      "anonymous": false,
      "inputs": [
        {
          "indexed": true,
          "internalType": "address",
          "name": "to",
          "type": "address"
        },
        {
          "indexed": true,
          "internalType": "uint256",
          "name": "tokenId",
          "type": "uint256"
        },
        {
          "indexed": true,
          "internalType": "uint256",
          "name": "factionId",
          "type": "uint256"
        }
      ],
      "name": "Mint",
      "type": "event"
    },
    {
      "anonymous": false,
      "inputs": [
        {
          "indexed": true,
          "internalType": "address",
          "name": "previousOwner",
          "type": "address"
        },
        {
          "indexed": true,
          "internalType": "address",
          "name": "newOwner",
          "type": "address"
        }
      ],
      "name": "OwnershipTransferred",
      "type": "event"
    },
    {
      "anonymous": false,
      "inputs": [
        {
          "indexed": true,
          "internalType": "address",
          "name": "from",
          "type": "address"
        },
        {
          "indexed": true,
          "internalType": "address",
          "name": "to",
          "type": "address"
        },
        {
          "indexed": true,
          "internalType": "uint256",
          "name": "tokenId",
          "type": "uint256"
        }
      ],
      "name": "Transfer",
      "type": "event"
    },
    {
      "inputs": [],
      "name": "AZULE_ID",
      "outputs": [
        {
          "internalType": "uint256",
          "name": "",
          "type": "uint256"
        }
      ],
      "stateMutability": "view",
      "type": "function",
      "constant": true
    },
    {
      "inputs": [],
      "name": "MINT_PRICE",
      "outputs": [
        {
          "internalType": "uint256",
          "name": "",
          "type": "uint256"
        }
      ],
      "stateMutability": "view",
      "type": "function",
      "constant": true
    },
    {
      "inputs": [],
      "name": "MINT_SUPPLY",
      "outputs": [
        {
          "internalType": "uint256",
          "name": "",
          "type": "uint256"
        }
      ],
      "stateMutability": "view",
      "type": "function",
      "constant": true
    },
    {
      "inputs": [],
      "name": "TALAW_ID",
      "outputs": [
        {
          "internalType": "uint256",
          "name": "",
          "type": "uint256"
        }
      ],
      "stateMutability": "view",
      "type": "function",
      "constant": true
    },
    {
      "inputs": [],
      "name": "TEAM_SUPPLY",
      "outputs": [
        {
          "internalType": "uint256",
          "name": "",
          "type": "uint256"
        }
      ],
      "stateMutability": "view",
      "type": "function",
      "constant": true
    },
    {
      "inputs": [],
      "name": "VESTAL_ID",
      "outputs": [
        {
          "internalType": "uint256",
          "name": "",
          "type": "uint256"
        }
      ],
      "stateMutability": "view",
      "type": "function",
      "constant": true
    },
    {
      "inputs": [
        {
          "internalType": "address",
          "name": "to",
          "type": "address"
        },
        {
          "internalType": "uint256",
          "name": "tokenId",
          "type": "uint256"
        }
      ],
      "name": "approve",
      "outputs": [],
      "stateMutability": "nonpayable",
      "type": "function"
    },
    {
      "inputs": [],
      "name": "azuleMintCount",
      "outputs": [
        {
          "internalType": "uint256",
          "name": "",
          "type": "uint256"
        }
      ],
      "stateMutability": "view",
      "type": "function",
      "constant": true
    },
    {
      "inputs": [
        {
          "internalType": "address",
          "name": "owner",
          "type": "address"
        }
      ],
      "name": "balanceOf",
      "outputs": [
        {
          "internalType": "uint256",
          "name": "",
          "type": "uint256"
        }
      ],
      "stateMutability": "view",
      "type": "function",
      "constant": true
    },
    {
      "inputs": [
        {
          "internalType": "uint256",
          "name": "tokenId",
          "type": "uint256"
        }
      ],
      "name": "getApproved",
      "outputs": [
        {
          "internalType": "address",
          "name": "",
          "type": "address"
        }
      ],
      "stateMutability": "view",
      "type": "function",
      "constant": true
    },
    {
      "inputs": [
        {
          "internalType": "address",
          "name": "owner",
          "type": "address"
        },
        {
          "internalType": "address",
          "name": "operator",
          "type": "address"
        }
      ],
      "name": "isApprovedForAll",
      "outputs": [
        {
          "internalType": "bool",
          "name": "",
          "type": "bool"
        }
      ],
      "stateMutability": "view",
      "type": "function",
      "constant": true
    },
    {
      "inputs": [],
      "name": "maxMintPerTransaction",
      "outputs": [
        {
          "internalType": "uint256",
          "name": "",
          "type": "uint256"
        }
      ],
      "stateMutability": "view",
      "type": "function",
      "constant": true
    },
    {
      "inputs": [],
      "name": "name",
      "outputs": [
        {
          "internalType": "string",
          "name": "",
          "type": "string"
        }
      ],
      "stateMutability": "view",
      "type": "function",
      "constant": true
    },
    {
      "inputs": [],
      "name": "owner",
      "outputs": [
        {
          "internalType": "address",
          "name": "",
          "type": "address"
        }
      ],
      "stateMutability": "view",
      "type": "function",
      "constant": true
    },
    {
      "inputs": [
        {
          "internalType": "uint256",
          "name": "tokenId",
          "type": "uint256"
        }
      ],
      "name": "ownerOf",
      "outputs": [
        {
          "internalType": "address",
          "name": "",
          "type": "address"
        }
      ],
      "stateMutability": "view",
      "type": "function",
      "constant": true
    },
    {
      "inputs": [],
      "name": "renounceOwnership",
      "outputs": [],
      "stateMutability": "nonpayable",
      "type": "function"
    },
    {
      "inputs": [],
      "name": "root",
      "outputs": [
        {
          "internalType": "bytes32",
          "name": "",
          "type": "bytes32"
        }
      ],
      "stateMutability": "view",
      "type": "function",
      "constant": true
    },
    {
      "inputs": [
        {
          "internalType": "address",
          "name": "from",
          "type": "address"
        },
        {
          "internalType": "address",
          "name": "to",
          "type": "address"
        },
        {
          "internalType": "uint256",
          "name": "tokenId",
          "type": "uint256"
        }
      ],
      "name": "safeTransferFrom",
      "outputs": [],
      "stateMutability": "nonpayable",
      "type": "function"
    },
    {
      "inputs": [
        {
          "internalType": "address",
          "name": "from",
          "type": "address"
        },
        {
          "internalType": "address",
          "name": "to",
          "type": "address"
        },
        {
          "internalType": "uint256",
          "name": "tokenId",
          "type": "uint256"
        },
        {
          "internalType": "bytes",
          "name": "_data",
          "type": "bytes"
        }
      ],
      "name": "safeTransferFrom",
      "outputs": [],
      "stateMutability": "nonpayable",
      "type": "function"
    },
    {
      "inputs": [
        {
          "internalType": "address",
          "name": "operator",
          "type": "address"
        },
        {
          "internalType": "bool",
          "name": "approved",
          "type": "bool"
        }
      ],
      "name": "setApprovalForAll",
      "outputs": [],
      "stateMutability": "nonpayable",
      "type": "function"
    },
    {
      "inputs": [
        {
          "internalType": "bytes4",
          "name": "interfaceId",
          "type": "bytes4"
        }
      ],
      "name": "supportsInterface",
      "outputs": [
        {
          "internalType": "bool",
          "name": "",
          "type": "bool"
        }
      ],
      "stateMutability": "view",
      "type": "function",
      "constant": true
    },
    {
      "inputs": [],
      "name": "symbol",
      "outputs": [
        {
          "internalType": "string",
          "name": "",
          "type": "string"
        }
      ],
      "stateMutability": "view",
      "type": "function",
      "constant": true
    },
    {
      "inputs": [],
      "name": "talawMintCount",
      "outputs": [
        {
          "internalType": "uint256",
          "name": "",
          "type": "uint256"
        }
      ],
      "stateMutability": "view",
      "type": "function",
      "constant": true
    },
    {
      "inputs": [
        {
          "internalType": "uint256",
          "name": "index",
          "type": "uint256"
        }
      ],
      "name": "tokenByIndex",
      "outputs": [
        {
          "internalType": "uint256",
          "name": "",
          "type": "uint256"
        }
      ],
      "stateMutability": "view",
      "type": "function",
      "constant": true
    },
    {
      "inputs": [
        {
          "internalType": "address",
          "name": "owner",
          "type": "address"
        },
        {
          "internalType": "uint256",
          "name": "index",
          "type": "uint256"
        }
      ],
      "name": "tokenOfOwnerByIndex",
      "outputs": [
        {
          "internalType": "uint256",
          "name": "",
          "type": "uint256"
        }
      ],
      "stateMutability": "view",
      "type": "function",
      "constant": true
    },
    {
      "inputs": [
        {
          "internalType": "uint256",
          "name": "tokenId",
          "type": "uint256"
        }
      ],
      "name": "tokenURI",
      "outputs": [
        {
          "internalType": "string",
          "name": "",
          "type": "string"
        }
      ],
      "stateMutability": "view",
      "type": "function",
      "constant": true
    },
    {
      "inputs": [],
      "name": "totalSupply",
      "outputs": [
        {
          "internalType": "uint256",
          "name": "",
          "type": "uint256"
        }
      ],
      "stateMutability": "view",
      "type": "function",
      "constant": true
    },
    {
      "inputs": [
        {
          "internalType": "address",
          "name": "from",
          "type": "address"
        },
        {
          "internalType": "address",
          "name": "to",
          "type": "address"
        },
        {
          "internalType": "uint256",
          "name": "tokenId",
          "type": "uint256"
        }
      ],
      "name": "transferFrom",
      "outputs": [],
      "stateMutability": "nonpayable",
      "type": "function"
    },
    {
      "inputs": [
        {
          "internalType": "address",
          "name": "newOwner",
          "type": "address"
        }
      ],
      "name": "transferOwnership",
      "outputs": [],
      "stateMutability": "nonpayable",
      "type": "function"
    },
    {
      "inputs": [],
      "name": "vestalMintCount",
      "outputs": [
        {
          "internalType": "uint256",
          "name": "",
          "type": "uint256"
        }
      ],
      "stateMutability": "view",
      "type": "function",
      "constant": true
    },
    {
      "inputs": [
        {
          "internalType": "uint256",
          "name": "tokenId",
          "type": "uint256"
        }
      ],
      "name": "getFaction",
      "outputs": [
        {
          "internalType": "uint256",
          "name": "",
          "type": "uint256"
        }
      ],
      "stateMutability": "view",
      "type": "function",
      "constant": true
    },
    {
      "inputs": [
        {
          "internalType": "address",
          "name": "user",
          "type": "address"
        }
      ],
      "name": "getPresaleClaimed",
      "outputs": [
        {
          "internalType": "bool",
          "name": "",
          "type": "bool"
        }
      ],
      "stateMutability": "view",
      "type": "function",
      "constant": true
    },
    {
      "inputs": [],
      "name": "getPreSaleState",
      "outputs": [
        {
          "internalType": "bool",
          "name": "",
          "type": "bool"
        }
      ],
      "stateMutability": "view",
      "type": "function",
      "constant": true
    },
    {
      "inputs": [],
      "name": "getSaleState",
      "outputs": [
        {
          "internalType": "bool",
          "name": "",
          "type": "bool"
        }
      ],
      "stateMutability": "view",
      "type": "function",
      "constant": true
    },
    {
      "inputs": [
        {
          "internalType": "string",
          "name": "uri",
          "type": "string"
        }
      ],
      "name": "setBaseURI",
      "outputs": [],
      "stateMutability": "nonpayable",
      "type": "function"
    },
    {
      "inputs": [
        {
          "internalType": "address",
          "name": "verifier",
          "type": "address"
        }
      ],
      "name": "setSignVerifier",
      "outputs": [],
      "stateMutability": "nonpayable",
      "type": "function"
    },
    {
      "inputs": [
        {
          "internalType": "uint256",
          "name": "maxMint",
          "type": "uint256"
        }
      ],
      "name": "setMaxMintPerTransaction",
      "outputs": [],
      "stateMutability": "nonpayable",
      "type": "function"
    },
    {
      "inputs": [
        {
          "internalType": "address",
          "name": "account",
          "type": "address"
        },
        {
          "internalType": "uint256",
          "name": "tokenId",
          "type": "uint256"
        },
        {
          "internalType": "bytes32[]",
          "name": "proof",
          "type": "bytes32[]"
        },
        {
          "internalType": "uint256",
          "name": "factionId",
          "type": "uint256"
        }
      ],
      "name": "presaleMint",
      "outputs": [],
      "stateMutability": "payable",
      "type": "function",
      "payable": true
    },
    {
      "inputs": [
        {
          "internalType": "uint256[]",
          "name": "factionIds",
          "type": "uint256[]"
        },
        {
          "internalType": "address[]",
          "name": "addresses",
          "type": "address[]"
        },
        {
          "internalType": "uint256",
          "name": "nonce",
          "type": "uint256"
        },
        {
          "internalType": "bytes",
          "name": "sig",
          "type": "bytes"
        }
      ],
      "name": "partnerMint",
      "outputs": [],
      "stateMutability": "payable",
      "type": "function",
      "payable": true
    },
    {
      "inputs": [
        {
          "internalType": "uint256",
          "name": "tokenCount",
          "type": "uint256"
        },
        {
          "internalType": "uint256",
          "name": "factionId",
          "type": "uint256"
        }
      ],
      "name": "mint",
      "outputs": [],
      "stateMutability": "payable",
      "type": "function",
      "payable": true
    },
    {
      "inputs": [
        {
          "internalType": "address",
          "name": "recipient",
          "type": "address"
        },
        {
          "internalType": "uint256",
          "name": "tokenCount",
          "type": "uint256"
        },
        {
          "internalType": "uint256",
          "name": "factionId",
          "type": "uint256"
        }
      ],
      "name": "mintToAddress",
      "outputs": [],
      "stateMutability": "nonpayable",
      "type": "function"
    },
    {
      "inputs": [
        {
          "internalType": "uint256",
          "name": "factionId",
          "type": "uint256"
        },
        {
          "internalType": "bytes",
          "name": "sig",
          "type": "bytes"
        }
      ],
      "name": "redeemBasePass",
      "outputs": [],
      "stateMutability": "nonpayable",
      "type": "function"
    },
    {
      "inputs": [],
      "name": "flipPresaleState",
      "outputs": [],
      "stateMutability": "nonpayable",
      "type": "function"
    },
    {
      "inputs": [],
      "name": "flipSaleState",
      "outputs": [],
      "stateMutability": "nonpayable",
      "type": "function"
    },
    {
      "inputs": [],
      "name": "withdraw",
      "outputs": [],
      "stateMutability": "nonpayable",
      "type": "function"
    },
    {
      "inputs": [
        {
          "internalType": "address",
          "name": "sender",
          "type": "address"
        },
        {
          "internalType": "uint256[]",
          "name": "factionIds",
          "type": "uint256[]"
        },
        {
          "internalType": "address[]",
          "name": "addresses",
          "type": "address[]"
        },
        {
          "internalType": "uint256",
          "name": "nonce",
          "type": "uint256"
        }
      ],
      "name": "getPartnerSigningHash",
      "outputs": [
        {
          "internalType": "bytes32",
          "name": "",
          "type": "bytes32"
        }
      ],
      "stateMutability": "pure",
      "type": "function",
      "constant": true
    },
    {
      "inputs": [
        {
          "internalType": "address",
          "name": "sender",
          "type": "address"
        },
        {
          "internalType": "uint256",
          "name": "factionId",
          "type": "uint256"
        }
      ],
      "name": "getBasePassSigningHash",
      "outputs": [
        {
          "internalType": "bytes32",
          "name": "",
          "type": "bytes32"
        }
      ],
      "stateMutability": "view",
      "type": "function",
      "constant": true
    }
  ],
  "bytecode": "0x60a06040526000600f819055601081905560118190556012805461ffff19169055601580546001600160a01b03191673d974c841ff9ad100a992555f4587ca61c838e6aa1790556017553480156200005657600080fd5b5060405162003ba338038062003ba3833981016040819052620000799162000225565b604080518082018252601681527f4c6567656e6473206f662056656e61726920506173730000000000000000000060208083019182528351808501909452600384526204c56560ec1b908401528151919291620000d9916000916200017f565b508051620000ef9060019060208401906200017f565b5050506200010c620001066200012960201b60201c565b6200012d565b6001600b55600d93909355600e91909155600c5560805262000298565b3390565b600a80546001600160a01b038381166001600160a01b0319831681179093556040519116919082907f8be0079c531659141344cd1fd0a4f28419497f9722a3daafe3b4186f6b6457e090600090a35050565b8280546200018d906200025b565b90600052602060002090601f016020900481019282620001b15760008555620001fc565b82601f10620001cc57805160ff1916838001178555620001fc565b82800160010185558215620001fc579182015b82811115620001fc578251825591602001919060010190620001df565b506200020a9291506200020e565b5090565b5b808211156200020a57600081556001016200020f565b600080600080608085870312156200023b578384fd5b505082516020840151604085015160609095015191969095509092509050565b6002810460018216806200027057607f821691505b602082108114156200029257634e487b7160e01b600052602260045260246000fd5b50919050565b6080516138e8620002bb600039600081816113f00152611cbc01526138e86000f3fe6080604052600436106102185760003560e01c806301f569971461021d57806301ffc9a71461024857806306fdde0314610275578063081812fc14610297578063095ea7b3146102c45780630d52b7ee146102e657806318160ddd146102fb5780631b2ef1ca146103105780631c6d325b146103235780631fb5b1e01461033857806323b872dd1461035857806325bdb2a8146103785780632e6cebe51461038d5780632f745c59146103ad57806334918dfd146103cd5780633ccfd60b146103e257806342842e0e146103f7578063455e7cdf146104175780634f259bd91461042c5780634f6ccce714610441578063500b9f441461046157806351bdca2b1461047657806354e4f1dd1461049657806355f804b3146104ab5780635ee30966146104cb5780636089edd1146104eb5780636352211e1461050057806370a0823114610520578063715018a6146105405780637a1be870146105555780638da5cb5b1461056857806395d89b411461057d5780639dfbcde814610592578063a22cb465146105a7578063a8a150b8146105c7578063b88d4fde146105e7578063b9c3a81814610607578063bb40ad321461061c578063c002d23d1461063c578063c87b56dd14610651578063dc7aa9ef14610671578063e8649f5814610691578063e985e9c5146106b1578063ebf0c717146106d1578063f2fde38b146106e6578063f81227d414610706578063fa195a391461071b575b600080fd5b34801561022957600080fd5b5061023261072e565b60405161023f9190612cbe565b60405180910390f35b34801561025457600080fd5b50610268610263366004612a0e565b610734565b60405161023f9190612cb3565b34801561028157600080fd5b5061028a610761565b60405161023f9190612ce5565b3480156102a357600080fd5b506102b76102b2366004612a8b565b6107f3565b60405161023f9190612c62565b3480156102d057600080fd5b506102e46102df3660046128a7565b61083f565b005b3480156102f257600080fd5b506102326108d7565b34801561030757600080fd5b506102326108dd565b6102e461031e366004612ae7565b6108e3565b34801561032f57600080fd5b506102326109e0565b34801561034457600080fd5b506102326103533660046128a7565b6109e5565b34801561036457600080fd5b506102e4610373366004612755565b610a31565b34801561038457600080fd5b50610268610a69565b34801561039957600080fd5b506102e46103a8366004612a8b565b610a77565b3480156103b957600080fd5b506102326103c83660046128a7565b610abb565b3480156103d957600080fd5b506102e4610b0d565b3480156103ee57600080fd5b506102e4610b69565b34801561040357600080fd5b506102e4610412366004612755565b610bdb565b34801561042357600080fd5b50610232610bf6565b34801561043857600080fd5b50610232610bfc565b34801561044d57600080fd5b5061023261045c366004612a8b565b610c01565b34801561046d57600080fd5b50610268610c5c565b34801561048257600080fd5b506102e4610491366004612aa3565b610c65565b3480156104a257600080fd5b50610232610d60565b3480156104b757600080fd5b506102e46104c6366004612a46565b610d65565b3480156104d757600080fd5b506102686104e6366004612709565b610db7565b3480156104f757600080fd5b50610232610dd5565b34801561050c57600080fd5b506102b761051b366004612a8b565b610ddb565b34801561052c57600080fd5b5061023261053b366004612709565b610e10565b34801561054c57600080fd5b506102e4610e54565b6102e461056336600461298d565b610e9f565b34801561057457600080fd5b506102b7611086565b34801561058957600080fd5b5061028a611095565b34801561059e57600080fd5b506102326110a4565b3480156105b357600080fd5b506102e46105c236600461286d565b6110aa565b3480156105d357600080fd5b506102326105e2366004612a8b565b611178565b3480156105f357600080fd5b506102e4610602366004612790565b6111b2565b34801561061357600080fd5b506102326111f1565b34801561062857600080fd5b506102326106373660046127f5565b6111f7565b34801561064857600080fd5b50610232611231565b34801561065d57600080fd5b5061028a61066c366004612a8b565b61123d565b34801561067d57600080fd5b506102e461068c36600461295b565b6112c0565b34801561069d57600080fd5b506102e46106ac366004612709565b61135f565b3480156106bd57600080fd5b506102686106cc366004612723565b6113c0565b3480156106dd57600080fd5b506102326113ee565b3480156106f257600080fd5b506102e4610701366004612709565b611412565b34801561071257600080fd5b506102e4611483565b6102e46107293660046128d0565b6114d6565b600c5481565b60006001600160e01b0319821663780e9d6360e01b1480610759575061075982611630565b90505b919050565b606060008054610770906137d0565b80601f016020809104026020016040519081016040528092919081815260200182805461079c906137d0565b80156107e95780601f106107be576101008083540402835291602001916107e9565b820191906000526020600020905b8154815290600101906020018083116107cc57829003601f168201915b5050505050905090565b60006107fe82611670565b6108235760405162461bcd60e51b815260040161081a906133b6565b60405180910390fd5b506000908152600460205260409020546001600160a01b031690565b600061084a82610ddb565b9050806001600160a01b0316836001600160a01b0316141561087e5760405162461bcd60e51b815260040161081a90613586565b806001600160a01b031661089061168d565b6001600160a01b031614806108ac57506108ac816106cc61168d565b6108c85760405162461bcd60e51b815260040161081a9061320d565b6108d28383611691565b505050565b60105481565b60085490565b6002600b5414156109065760405162461bcd60e51b815260040161081a90613692565b6002600b55610914816116ff565b6109305760405162461bcd60e51b815260040161081a906135c7565b601254610100900460ff166109575760405162461bcd60e51b815260040161081a906131e4565b600082116109775760405162461bcd60e51b815260040161081a90612fe5565b600c548211156109995760405162461bcd60e51b815260040161081a90613019565b346109ac8367029be90101c6000061376e565b146109c95760405162461bcd60e51b815260040161081a90613437565b6109d7828233600d5461171b565b50506001600b55565b600281565b6001600160a01b0382166000908152601960209081526040808320549051610a139286928692909101612bb5565b60405160208183030381529060405280519060200120905092915050565b610a42610a3c61168d565b8261186e565b610a5e5760405162461bcd60e51b815260040161081a906135f5565b6108d28383836118eb565b601254610100900460ff1690565b610a7f61168d565b6001600160a01b0316610a90611086565b6001600160a01b031614610ab65760405162461bcd60e51b815260040161081a90613402565b600c55565b6000610ac683610e10565b8210610ae45760405162461bcd60e51b815260040161081a90612df1565b506001600160a01b03919091166000908152600660209081526040808320938352929052205490565b610b1561168d565b6001600160a01b0316610b26611086565b6001600160a01b031614610b4c5760405162461bcd60e51b815260040161081a90613402565b6012805461ff001981166101009182900460ff1615909102179055565b610b7161168d565b6001600160a01b0316610b82611086565b6001600160a01b031614610ba85760405162461bcd60e51b815260040161081a90613402565b6040514790339082156108fc029083906000818181858888f19350505050158015610bd7573d6000803e3d6000fd5b5050565b6108d2838383604051806020016040528060008152506111b2565b600f5481565b600081565b6000610c0b6108dd565b8210610c295760405162461bcd60e51b815260040161081a90613646565b60088281548110610c4a57634e487b7160e01b600052603260045260246000fd5b90600052602060002001549050919050565b60125460ff1690565b610c6e826116ff565b610c8a5760405162461bcd60e51b815260040161081a906130c3565b6000610c9e610c9933856109e5565b611a06565b6015549091506001600160a01b0316610cb78284611a36565b6001600160a01b031614610cdd5760405162461bcd60e51b815260040161081a90613265565b336000908152601960205260408120805491610cf88361380b565b909155505082610d1c57600f8054906000610d128361380b565b9190505550610d54565b6001831415610d355760108054906000610d128361380b565b6002831415610d545760118054906000610d4e8361380b565b91905055505b6108d233600185611a5a565b600181565b610d6d61168d565b6001600160a01b0316610d7e611086565b6001600160a01b031614610da45760405162461bcd60e51b815260040161081a90613402565b8051610bd7906016906020840190612516565b6001600160a01b031660009081526014602052604090205460ff1690565b60115481565b6000818152600260205260408120546001600160a01b0316806107595760405162461bcd60e51b815260040161081a906132f6565b60006001600160a01b038216610e385760405162461bcd60e51b815260040161081a906132ac565b506001600160a01b031660009081526003602052604090205490565b610e5c61168d565b6001600160a01b0316610e6d611086565b6001600160a01b031614610e935760405162461bcd60e51b815260040161081a90613402565b610e9d6000611af1565b565b6002600b541415610ec25760405162461bcd60e51b815260040161081a90613692565b6002600b5560125460ff16610ee95760405162461bcd60e51b815260040161081a906130f3565b34845167029be90101c60000610eff919061376e565b14610f1c5760405162461bcd60e51b815260040161081a90613437565b8251845114610f3d5760405162461bcd60e51b815260040161081a90612e8e565b60008281526018602052604090205460ff1615610f6c5760405162461bcd60e51b815260040161081a906136c9565b6000610f7d610c99338787876111f7565b6015549091506001600160a01b0316610f968284611a36565b6001600160a01b031614610fbc5760405162461bcd60e51b815260040161081a90613265565b6000838152601860205260408120805460ff191660011790555b855181101561107957600086828151811061100157634e487b7160e01b600052603260045260246000fd5b60200260200101519050611014816116ff565b6110305760405162461bcd60e51b815260040161081a906135c7565b61106660018288858151811061105657634e487b7160e01b600052603260045260246000fd5b6020026020010151600d5461171b565b50806110718161380b565b915050610fd6565b50506001600b5550505050565b600a546001600160a01b031690565b606060018054610770906137d0565b600d5481565b6110b261168d565b6001600160a01b0316826001600160a01b031614156110e35760405162461bcd60e51b815260040161081a90613090565b80600560006110f061168d565b6001600160a01b03908116825260208083019390935260409182016000908120918716808252919093529120805460ff19169215159290921790915561113461168d565b6001600160a01b03167f17307eab39ab6107e8899845ad3d59bd9653f200f220920489ca2b5937696c318360405161116c9190612cb3565b60405180910390a35050565b600061118382611670565b61119f5760405162461bcd60e51b815260040161081a9061311f565b5060009081526013602052604090205490565b6111c36111bd61168d565b8361186e565b6111df5760405162461bcd60e51b815260040161081a906135f5565b6111eb84848484611b43565b50505050565b600e5481565b6000848484846040516020016112109493929190612b34565b6040516020818303038152906040528051906020012090505b949350505050565b67029be90101c6000081565b606061124882611670565b6112645760405162461bcd60e51b815260040161081a90613537565b600061126e611b76565b9050600081511161128e57604051806020016040528060008152506112b9565b8061129884611b85565b6040516020016112a9929190612be8565b6040516020818303038152906040525b9392505050565b6112c861168d565b6001600160a01b03166112d9611086565b6001600160a01b0316146112ff5760405162461bcd60e51b815260040161081a90613402565b611308816116ff565b6113245760405162461bcd60e51b815260040161081a906130c3565b600082116113445760405162461bcd60e51b815260040161081a90612fa1565b6108d2828285600e54600d5461135a9190613742565b61171b565b61136761168d565b6001600160a01b0316611378611086565b6001600160a01b03161461139e5760405162461bcd60e51b815260040161081a90613402565b601580546001600160a01b0319166001600160a01b0392909216919091179055565b6001600160a01b03918216600090815260056020908152604080832093909416825291909152205460ff1690565b7f000000000000000000000000000000000000000000000000000000000000000081565b61141a61168d565b6001600160a01b031661142b611086565b6001600160a01b0316146114515760405162461bcd60e51b815260040161081a90613402565b6001600160a01b0381166114775760405162461bcd60e51b815260040161081a90612ee0565b61148081611af1565b50565b61148b61168d565b6001600160a01b031661149c611086565b6001600160a01b0316146114c25760405162461bcd60e51b815260040161081a90613402565b6012805460ff19811660ff90911615179055565b61151c6114e38686611c9f565b848480806020026020016040519081016040528093929190818152602001838360200280828437600092019190915250611cb492505050565b6115385760405162461bcd60e51b815260040161081a906134c0565b3360009081526014602052604090205460ff16156115685760405162461bcd60e51b815260040161081a9061347f565b60125460ff1661158a5760405162461bcd60e51b815260040161081a906130f3565b601254610100900460ff16156115b25760405162461bcd60e51b815260040161081a90612f26565b6115bb816116ff565b6115d75760405162461bcd60e51b815260040161081a906135c7565b3467029be90101c60000146115fe5760405162461bcd60e51b815260040161081a90613437565b336000818152601460205260409020805460ff19166001908117909155600d5461162992849161171b565b5050505050565b60006001600160e01b031982166380ac58cd60e01b148061166157506001600160e01b03198216635b5e139f60e01b145b80610759575061075982611ce1565b6000908152600260205260409020546001600160a01b0316151590565b3390565b600081815260046020526040902080546001600160a01b0319166001600160a01b03841690811790915581906116c682610ddb565b6001600160a01b03167f8c5be1e5ebec7d5bd14f71427d1e84f3dd0314c0f7b2291e5b200ac8c7c3b92560405160405180910390a45050565b600081158061170e5750600282145b8061075957505060011490565b8261178b5780600f54106117415760405162461bcd60e51b815260040161081a90612daf565b8084600f546117509190613742565b111561176e5760405162461bcd60e51b815260040161081a90612d2a565b83600f60008282546117809190613742565b909155506118639050565b60018314156117f45780601054106117b55760405162461bcd60e51b815260040161081a90612daf565b80846010546117c49190613742565b11156117e25760405162461bcd60e51b815260040161081a90612d2a565b83601060008282546117809190613742565b600283141561186357806011541061181e5760405162461bcd60e51b815260040161081a90612daf565b808460115461182d9190613742565b111561184b5760405162461bcd60e51b815260040161081a90612d2a565b836011600082825461185d9190613742565b90915550505b6111eb828585611a5a565b600061187982611670565b6118955760405162461bcd60e51b815260040161081a90613198565b60006118a083610ddb565b9050806001600160a01b0316846001600160a01b031614806118db5750836001600160a01b03166118d0846107f3565b6001600160a01b0316145b80611229575061122981856113c0565b826001600160a01b03166118fe82610ddb565b6001600160a01b0316146119245760405162461bcd60e51b815260040161081a906134ee565b6001600160a01b03821661194a5760405162461bcd60e51b815260040161081a9061304c565b611955838383611cfa565b611960600082611691565b6001600160a01b038316600090815260036020526040812080546001929061198990849061378d565b90915550506001600160a01b03821660009081526003602052604081208054600192906119b7908490613742565b909155505060008181526002602052604080822080546001600160a01b0319166001600160a01b03868116918217909255915184939187169160008051602061389383398151915291a4505050565b600081604051602001611a199190612c17565b604051602081830303815290604052805190602001209050919050565b6000806000611a458585611d83565b91509150611a5281611df3565b509392505050565b60005b828110156111eb57600081601754611a759190613742565b60008181526013602052604080822086905551919250849183916001600160a01b038916917f4c209b5fc8ad50758f13e2e1088ba56a560dff690a1c6fef26394f4c03821c4f9190a4611ac88582611f20565b60178054906000611ad88361380b565b9190505550508080611ae99061380b565b915050611a5d565b600a80546001600160a01b038381166001600160a01b0319831681179093556040519116919082907f8be0079c531659141344cd1fd0a4f28419497f9722a3daafe3b4186f6b6457e090600090a35050565b611b4e8484846118eb565b611b5a84848484611f3a565b6111eb5760405162461bcd60e51b815260040161081a90612e3c565b606060168054610770906137d0565b606081611baa57506040805180820190915260018152600360fc1b602082015261075c565b8160005b8115611bd45780611bbe8161380b565b9150611bcd9050600a8361375a565b9150611bae565b6000816001600160401b03811115611bfc57634e487b7160e01b600052604160045260246000fd5b6040519080825280601f01601f191660200182016040528015611c26576020820181803683370190505b5090505b841561122957611c3b60018361378d565b9150611c48600a86613826565b611c53906030613742565b60f81b818381518110611c7657634e487b7160e01b600052603260045260246000fd5b60200101906001600160f81b031916908160001a905350611c98600a8661375a565b9450611c2a565b60008183604051602001610a13929190612c47565b60006112b9827f000000000000000000000000000000000000000000000000000000000000000085612052565b6001600160e01b031981166301ffc9a760e01b14919050565b611d058383836108d2565b6001600160a01b038316611d2157611d1c8161210d565b611d44565b816001600160a01b0316836001600160a01b031614611d4457611d448382612151565b6001600160a01b038216611d6057611d5b816121ee565b6108d2565b826001600160a01b0316826001600160a01b0316146108d2576108d282826122c7565b600080825160411415611dba5760208301516040840151606085015160001a611dae8782858561230b565b94509450505050611dec565b825160401415611de45760208301516040840151611dd98683836123e1565b935093505050611dec565b506000905060025b9250929050565b6000816004811115611e1557634e487b7160e01b600052602160045260246000fd5b1415611e2057611480565b6001816004811115611e4257634e487b7160e01b600052602160045260246000fd5b1415611e605760405162461bcd60e51b815260040161081a90612cf8565b6002816004811115611e8257634e487b7160e01b600052602160045260246000fd5b1415611ea05760405162461bcd60e51b815260040161081a90612d78565b6003816004811115611ec257634e487b7160e01b600052602160045260246000fd5b1415611ee05760405162461bcd60e51b815260040161081a90613156565b6004816004811115611f0257634e487b7160e01b600052602160045260246000fd5b14156114805760405162461bcd60e51b815260040161081a9061333f565b610bd7828260405180602001604052806000815250612410565b6000611f4e846001600160a01b0316612443565b1561204a57836001600160a01b031663150b7a02611f6a61168d565b8786866040518563ffffffff1660e01b8152600401611f8c9493929190612c76565b602060405180830381600087803b158015611fa657600080fd5b505af1925050508015611fd6575060408051601f3d908101601f19168201909252611fd391810190612a2a565b60015b612030573d808015612004576040519150601f19603f3d011682016040523d82523d6000602084013e612009565b606091505b5080516120285760405162461bcd60e51b815260040161081a90612e3c565b805181602001fd5b6001600160e01b031916630a85bd0160e11b149050611229565b506001611229565b600081815b855181101561210257600086828151811061208257634e487b7160e01b600052603260045260246000fd5b602002602001015190508083116120c35782816040516020016120a6929190612bda565b6040516020818303038152906040528051906020012092506120ef565b80836040516020016120d6929190612bda565b6040516020818303038152906040528051906020012092505b50806120fa8161380b565b915050612057565b509092149392505050565b600880546000838152600960205260408120829055600182018355919091527ff3f7a9fe364faab93b216da50a3214154f22a0a2b415b23a84c8169e8b636ee30155565b6000600161215e84610e10565b612168919061378d565b6000838152600760205260409020549091508082146121bb576001600160a01b03841660009081526006602090815260408083208584528252808320548484528184208190558352600790915290208190555b5060009182526007602090815260408084208490556001600160a01b039094168352600681528383209183525290812055565b6008546000906122009060019061378d565b6000838152600960205260408120546008805493945090928490811061223657634e487b7160e01b600052603260045260246000fd5b90600052602060002001549050806008838154811061226557634e487b7160e01b600052603260045260246000fd5b60009182526020808320909101929092558281526009909152604080822084905585825281205560088054806122ab57634e487b7160e01b600052603160045260246000fd5b6001900381819060005260206000200160009055905550505050565b60006122d283610e10565b6001600160a01b039093166000908152600660209081526040808320868452825280832085905593825260079052919091209190915550565b6000806fa2a8918ca85bafe22016d0b997e4df60600160ff1b0383111561233857506000905060036123d8565b8460ff16601b1415801561235057508460ff16601c14155b1561236157506000905060046123d8565b6000600187878787604051600081526020016040526040516123869493929190612cc7565b6020604051602081039080840390855afa1580156123a8573d6000803e3d6000fd5b5050604051601f1901519150506001600160a01b0381166123d1576000600192509250506123d8565b9150600090505b94509492505050565b6000806001600160ff1b03831660ff84901c601b016124028782888561230b565b935093505050935093915050565b61241a8383612449565b6124276000848484611f3a565b6108d25760405162461bcd60e51b815260040161081a90612e3c565b3b151590565b6001600160a01b03821661246f5760405162461bcd60e51b815260040161081a90613381565b61247881611670565b156124955760405162461bcd60e51b815260040161081a90612f6b565b6124a160008383611cfa565b6001600160a01b03821660009081526003602052604081208054600192906124ca908490613742565b909155505060008181526002602052604080822080546001600160a01b0319166001600160a01b0386169081179091559051839290600080516020613893833981519152908290a45050565b828054612522906137d0565b90600052602060002090601f016020900481019282612544576000855561258a565b82601f1061255d57805160ff191683800117855561258a565b8280016001018555821561258a579182015b8281111561258a57825182559160200191906001019061256f565b5061259692915061259a565b5090565b5b80821115612596576000815560010161259b565b60006001600160401b038311156125c8576125c8613866565b6125db601f8401601f19166020016136f6565b90508281528383830111156125ef57600080fd5b828260208301376000602084830101529392505050565b80356001600160a01b038116811461075c57600080fd5b600082601f83011261262d578081fd5b8135602061264261263d8361371f565b6136f6565b828152818101908583018385028701840188101561265e578586fd5b855b858110156126835761267182612606565b84529284019290840190600101612660565b5090979650505050505050565b600082601f8301126126a0578081fd5b813560206126b061263d8361371f565b82815281810190858301838502870184018810156126cc578586fd5b855b85811015612683578135845292840192908401906001016126ce565b600082601f8301126126fa578081fd5b6112b9838335602085016125af565b60006020828403121561271a578081fd5b6112b982612606565b60008060408385031215612735578081fd5b61273e83612606565b915061274c60208401612606565b90509250929050565b600080600060608486031215612769578081fd5b61277284612606565b925061278060208501612606565b9150604084013590509250925092565b600080600080608085870312156127a5578081fd5b6127ae85612606565b93506127bc60208601612606565b92506040850135915060608501356001600160401b038111156127dd578182fd5b6127e9878288016126ea565b91505092959194509250565b6000806000806080858703121561280a578384fd5b61281385612606565b935060208501356001600160401b038082111561282e578485fd5b61283a88838901612690565b9450604087013591508082111561284f578384fd5b5061285c8782880161261d565b949793965093946060013593505050565b6000806040838503121561287f578182fd5b61288883612606565b91506020830135801515811461289c578182fd5b809150509250929050565b600080604083850312156128b9578182fd5b6128c283612606565b946020939093013593505050565b6000806000806000608086880312156128e7578283fd5b6128f086612606565b94506020860135935060408601356001600160401b0380821115612912578485fd5b818801915088601f830112612925578485fd5b813581811115612933578586fd5b8960208083028501011115612946578586fd5b96999598505060200195606001359392505050565b60008060006060848603121561296f578081fd5b61297884612606565b95602085013595506040909401359392505050565b600080600080608085870312156129a2578182fd5b84356001600160401b03808211156129b8578384fd5b6129c488838901612690565b955060208701359150808211156129d9578384fd5b6129e58883890161261d565b9450604087013593506060870135915080821115612a01578283fd5b506127e9878288016126ea565b600060208284031215612a1f578081fd5b81356112b98161387c565b600060208284031215612a3b578081fd5b81516112b98161387c565b600060208284031215612a57578081fd5b81356001600160401b03811115612a6c578182fd5b8201601f81018413612a7c578182fd5b611229848235602084016125af565b600060208284031215612a9c578081fd5b5035919050565b60008060408385031215612ab5578182fd5b8235915060208301356001600160401b03811115612ad1578182fd5b612add858286016126ea565b9150509250929050565b60008060408385031215612af9578182fd5b50508035926020909101359150565b60008151808452612b208160208601602086016137a4565b601f01601f19169290920160200192915050565b606085901b6001600160601b0319168152835160009060148301906020808801845b83811015612b7257815185529382019390820190600101612b56565b50508651818801939250845b81811015612ba35784516001600160a01b031684529382019392820192600101612b7e565b50509481529093019695505050505050565b60609390931b6001600160601b03191683526014830191909152603482015260540190565b918252602082015260400190565b60008351612bfa8184602088016137a4565b835190830190612c0e8183602088016137a4565b01949350505050565b7b0ca2ba3432b932bab69029b4b3b732b21026b2b9b9b0b3b29d05199960211b8152601c810191909152603c0190565b91825260601b6001600160601b031916602082015260340190565b6001600160a01b0391909116815260200190565b6001600160a01b0385811682528416602082015260408101839052608060608201819052600090612ca990830184612b08565b9695505050505050565b901515815260200190565b90815260200190565b93845260ff9290921660208401526040830152606082015260800190565b6000602082526112b96020830184612b08565b60208082526018908201527745434453413a20696e76616c6964207369676e617475726560401b604082015260600190565b6020808252602e908201527f43616e6e6f74207075726368617365206d6f7265207468616e2074686520617660408201526d61696c61626c6520737570706c7960901b606082015260800190565b6020808252601f908201527f45434453413a20696e76616c6964207369676e6174757265206c656e67746800604082015260600190565b60208082526022908201527f546869732066616374696f6e20686173206265656e2066756c6c79206d696e74604082015261195960f21b606082015260800190565b6020808252602b908201527f455243373231456e756d657261626c653a206f776e657220696e646578206f7560408201526a74206f6620626f756e647360a81b606082015260800190565b60208082526032908201527f4552433732313a207472616e7366657220746f206e6f6e20455243373231526560408201527131b2b4bb32b91034b6b83632b6b2b73a32b960711b606082015260800190565b60208082526032908201527f46616374696f6e20696473206d7563682068617665207468652073616d65206c604082015271656e6774682061732061646472657373657360701b606082015260800190565b60208082526026908201527f4f776e61626c653a206e6577206f776e657220697320746865207a65726f206160408201526564647265737360d01b606082015260800190565b60208082526025908201527f43616e6e6f74206d696e74207768696c65206d61696e2073616c652069732061604082015264637469766560d81b606082015260800190565b6020808252601c908201527b115490cdcc8c4e881d1bdad95b88185b1c9958591e481b5a5b9d195960221b604082015260600190565b60208082526024908201527f596f752063616e206f6e6c79206d696e74206d6f7265207468616e203020746f6040820152636b656e7360e01b606082015260800190565b6020808252601a908201527926bab9ba1036b4b73a1030ba103632b0b9ba1018903a37b5b2b760311b604082015260600190565b602080825260199082015278151bdad95b8818dbdd5b9d08195e18d959591cc81b1a5b5a5d603a1b604082015260600190565b60208082526024908201527f4552433732313a207472616e7366657220746f20746865207a65726f206164646040820152637265737360e01b606082015260800190565b60208082526019908201527822a9219b99189d1030b8383937bb32903a379031b0b63632b960391b604082015260600190565b602080825260169082015275119858dd1a5bdb88191bd95cc81b9bdd08195e1a5cdd60521b604082015260600190565b60208082526012908201527150726573616c65206e6f742061637469766560701b604082015260600190565b6020808252601e908201527f517565727920666f72206e6f6e6578697374656e7420746f6b656e2069640000604082015260600190565b60208082526022908201527f45434453413a20696e76616c6964207369676e6174757265202773272076616c604082015261756560f01b606082015260800190565b6020808252602c908201527f4552433732313a206f70657261746f7220717565727920666f72206e6f6e657860408201526b34b9ba32b73a103a37b5b2b760a11b606082015260800190565b6020808252600f908201526e53616c65206e6f742061637469766560881b604082015260600190565b60208082526038908201527f4552433732313a20617070726f76652063616c6c6572206973206e6f74206f776040820152771b995c881b9bdc88185c1c1c9bdd995908199bdc88185b1b60421b606082015260800190565b60208082526027908201527f5065726d697373696f6e20746f2063616c6c20746869732066756e6374696f6e6040820152660819985a5b195960ca1b606082015260800190565b6020808252602a908201527f4552433732313a2062616c616e636520717565727920666f7220746865207a65604082015269726f206164647265737360b01b606082015260800190565b60208082526029908201527f4552433732313a206f776e657220717565727920666f72206e6f6e657869737460408201526832b73a103a37b5b2b760b91b606082015260800190565b60208082526022908201527f45434453413a20696e76616c6964207369676e6174757265202776272076616c604082015261756560f01b606082015260800190565b6020808252818101527f4552433732313a206d696e7420746f20746865207a65726f2061646472657373604082015260600190565b6020808252602c908201527f4552433732313a20617070726f76656420717565727920666f72206e6f6e657860408201526b34b9ba32b73a103a37b5b2b760a11b606082015260800190565b6020808252818101527f4f776e61626c653a2063616c6c6572206973206e6f7420746865206f776e6572604082015260600190565b60208082526028908201527f4554482073656e7420646f6573206e6f74206d61746368207265717569726564604082015267081c185e5b595b9d60c21b606082015260800190565b60208082526021908201527f416c726561647920636c61696d656420776974682074686973206164647265736040820152607360f81b606082015260800190565b60208082526014908201527324b73b30b634b21036b2b935b63290383937b7b360611b604082015260600190565b60208082526029908201527f4552433732313a207472616e73666572206f6620746f6b656e2074686174206960408201526839903737ba1037bbb760b91b606082015260800190565b6020808252602f908201527f4552433732314d657461646174613a2055524920717565727920666f72206e6f60408201526e3732bc34b9ba32b73a103a37b5b2b760891b606082015260800190565b60208082526021908201527f4552433732313a20617070726f76616c20746f2063757272656e74206f776e656040820152603960f91b606082015260800190565b602080825260149082015273119858dd1a5bdb881a5cc81b9bdd081d985b1a5960621b604082015260600190565b60208082526031908201527f4552433732313a207472616e736665722063616c6c6572206973206e6f74206f6040820152701ddb995c881b9bdc88185c1c1c9bdd9959607a1b606082015260800190565b6020808252602c908201527f455243373231456e756d657261626c653a20676c6f62616c20696e646578206f60408201526b7574206f6620626f756e647360a01b606082015260800190565b6020808252601f908201527f5265656e7472616e637947756172643a207265656e7472616e742063616c6c00604082015260600190565b6020808252601390820152722737b731b29030b63932b0b23c903ab9b2b21760691b604082015260600190565b6040518181016001600160401b038111828210171561371757613717613866565b604052919050565b60006001600160401b0382111561373857613738613866565b5060209081020190565b600082198211156137555761375561383a565b500190565b60008261376957613769613850565b500490565b60008160001904831182151516156137885761378861383a565b500290565b60008282101561379f5761379f61383a565b500390565b60005b838110156137bf5781810151838201526020016137a7565b838111156111eb5750506000910152565b6002810460018216806137e457607f821691505b6020821081141561380557634e487b7160e01b600052602260045260246000fd5b50919050565b600060001982141561381f5761381f61383a565b5060010190565b60008261383557613835613850565b500690565b634e487b7160e01b600052601160045260246000fd5b634e487b7160e01b600052601260045260246000fd5b634e487b7160e01b600052604160045260246000fd5b6001600160e01b03198116811461148057600080fdfeddf252ad1be2c89b69c2b068fc378daa952ba7f163c4a11628f55a4df523b3efa26469706673582212209db4719b5990da2b538e186c29981d439ba42ef1f14ad0d17d5e9d35ff7b080264736f6c63430008000033",
  "immutableReferences": {
    "79": [
      {
        "length": 32,
        "start": 5104
      },
      {
        "length": 32,
        "start": 7356
      }
    ]
  },
  "source": "// SPDX-License-Identifier: MIT\npragma solidity ^0.8.0;\n\nimport \"@openzeppelin/contracts/utils/cryptography/ECDSA.sol\";\nimport \"@openzeppelin/contracts/utils/Strings.sol\";\nimport \"@openzeppelin/contracts/access/Ownable.sol\";\nimport \"@openzeppelin/contracts/security/ReentrancyGuard.sol\";\nimport \"@openzeppelin/contracts/token/ERC721/extensions/ERC721Enumerable.sol\";\nimport \"@openzeppelin/contracts/utils/cryptography/MerkleProof.sol\";\n\n/**\n * @title Token contract for Legends of Venari Alpha Passes\n * @dev This contract allows the distribution of\n * Legends of Venari Passes in the form of a presale and main sale.\n *\n * Users can mint from Talaw, Vestal, or Azule in either sales.\n *\n *\n * Smart contract work done by lenopix.eth\n */\ncontract LegendsOfVenariPass is\n  ERC721Enumerable,\n  Ownable,\n  ReentrancyGuard\n{\n  using ECDSA for bytes32;\n  using Address for address;\n\n  event Mint(\n    address indexed to,\n    uint256 indexed tokenId,\n    uint256 indexed factionId\n  );\n\n  // Faction Ids\n  uint256 public constant TALAW_ID = 0;\n  uint256 public constant VESTAL_ID = 1;\n  uint256 public constant AZULE_ID = 2;\n\n  // Minting constants\n  uint256 public maxMintPerTransaction;\n  uint256 public MINT_SUPPLY;\n  uint256 public TEAM_SUPPLY;\n\n  // 0.188 ETH\n  uint256 public constant MINT_PRICE = 188000000000000000;\n\n  // Keep track of supply\n  uint256 public talawMintCount = 0;\n  uint256 public vestalMintCount = 0;\n  uint256 public azuleMintCount = 0;\n\n  // Sale toggles\n  bool private _isPresaleActive = false;\n  bool private _isSaleActive = false;\n\n  // Tracks the faction for a token\n  mapping(uint256 => uint256) factionForToken;\n\n  // Presale\n  mapping(address => bool) private presaleClaimed; // Everyone who got in on the presale can only claim once.\n  address private signVerifier = 0xd974C841FF9ad100a992555F4587CA61c838E6Aa;\n\n  // Base URI\n  string private _uri;\n\n  // Last Token Id\n  uint256 lastTokenId = 0;\n\n  // Merkle Root\n  bytes32 immutable public root;\n\n  constructor(\n    uint256 mintSupply,\n    uint256 teamSupply,\n    uint256 maxMint,\n    bytes32 merkleroot\n  ) ERC721(\"Legends of Venari Pass\", \"LVP\") {\n    MINT_SUPPLY = mintSupply;\n    TEAM_SUPPLY = teamSupply;\n    maxMintPerTransaction = maxMint;\n    root = merkleroot;\n  }\n\n  // @dev Returns the faction of the token id\n  function getFaction(uint256 tokenId) external view returns (uint256) {\n    require(_exists(tokenId), \"Query for nonexistent token id\");\n    return factionForToken[tokenId];\n  }\n\n  // @dev Returns whether a user has claimed from presale\n  function getPresaleClaimed(address user) external view returns (bool) {\n    return presaleClaimed[user];\n  }\n\n  // @dev Returns the enabled/disabled status for presale\n  function getPreSaleState() external view returns (bool) {\n    return _isPresaleActive;\n  }\n\n  // @dev Returns the enabled/disabled status for minting\n  function getSaleState() external view returns (bool) {\n    return _isSaleActive;\n  }\n\n  // @dev Allows to set the baseURI dynamically\n  // @param uri The base uri for the metadata store\n  function setBaseURI(string memory uri) external onlyOwner {\n    _uri = uri;\n  }\n\n  // @dev Sets a new signature verifier\n  function setSignVerifier(address verifier) external onlyOwner {\n    signVerifier = verifier;\n  }\n\n  // @dev Dynamically set the max mints a user can do in the main sale\n  function setMaxMintPerTransaction(uint256 maxMint) external onlyOwner {\n    maxMintPerTransaction = maxMint;\n  }\n\n  // Presale\n  function presaleMint(\n    address account,\n    uint256 tokenId,\n    bytes32[] calldata proof,\n    uint256 factionId\n  ) external payable {\n    require(_verify(_leaf(account, tokenId), proof), \"Invalid merkle proof\");\n    require(!presaleClaimed[msg.sender], \"Already claimed with this address\");\n    require(_isPresaleActive, \"Presale not active\");\n    require(!_isSaleActive, \"Cannot mint while main sale is active\");\n    require(_isValidFactionId(factionId), \"Faction is not valid\");\n    require(MINT_PRICE == msg.value, \"ETH sent does not match required payment\");\n    presaleClaimed[msg.sender] = true;\n\n    _handleFactionMint(1, factionId, msg.sender, MINT_SUPPLY);\n  }\n\n  function _leaf(address account, uint256 tokenId) internal pure returns (bytes32) {\n    return keccak256(abi.encodePacked(tokenId, account));\n  }\n\n  function _verify(bytes32 leaf, bytes32[] memory proof) internal view returns (bool) {\n    return MerkleProof.verify(proof, root, leaf);\n  }\n\n  mapping(uint256 => bool) partnerNonceUsed;\n  mapping(address => uint256) basePassNonce;\n\n  // @dev Partner Mint - For partners on the whitelist who want to batch mint\n  // @param factionIds The factions associated with the tokens\n  // @param addresses The addresses that the tokens will be distributed to\n  // @param sig Server side signature authorizing user to use the presale\n  function partnerMint(\n    uint256[] memory factionIds,\n    address[] memory addresses,\n    uint256 nonce,\n    bytes memory sig\n  ) external payable nonReentrant {\n    require(_isPresaleActive, \"Presale not active\");\n    require(\n      (MINT_PRICE * factionIds.length) == msg.value,\n      \"ETH sent does not match required payment\"\n    );\n    require(factionIds.length == addresses.length, \"Faction ids much have the same length as addresses\");\n    require(!partnerNonceUsed[nonce], \"Nonce already used.\");\n\n    // Verify signature\n    bytes32 message = getPartnerSigningHash(\n      msg.sender,\n      factionIds,\n      addresses,\n      nonce\n    ).toEthSignedMessageHash();\n    require(\n      ECDSA.recover(message, sig) == signVerifier,\n      \"Permission to call this function failed\"\n    );\n\n    partnerNonceUsed[nonce] = true;\n\n    // Mint\n    for (uint256 i = 0; i < factionIds.length; i++) {\n        uint256 factionId = factionIds[i];\n        require(_isValidFactionId(factionId), \"Faction is not valid\");\n        _handleFactionMint(1, factionId, addresses[i], MINT_SUPPLY);\n    }\n  }\n\n  // @dev Main sale mint\n  // @param tokensCount The tokens a user wants to purchase\n  // @param factionId Talaw: 1, Vestal: 2, Azule: 3\n  function mint(uint256 tokenCount, uint256 factionId)\n    external\n    payable\n    nonReentrant\n  {\n    require(_isValidFactionId(factionId), \"Faction is not valid\");\n    require(_isSaleActive, \"Sale not active\");\n    require(tokenCount > 0, \"Must mint at least 1 token\");\n    require(tokenCount <= maxMintPerTransaction, \"Token count exceeds limit\");\n    require(\n      (MINT_PRICE * tokenCount) == msg.value,\n      \"ETH sent does not match required payment\"\n    );\n\n      _handleFactionMint(tokenCount, factionId, msg.sender, MINT_SUPPLY);\n  }\n\n  // @dev Private mint function reserved for company.\n  // 50 of each faction is reserved.\n  // @param recipient The user receiving the tokens\n  // @param tokenCount The number of tokens to distribute\n  // @param factionId Community: 0 and Theos: 1\n  function mintToAddress(\n    address recipient,\n    uint256 tokenCount,\n    uint256 factionId\n  ) external onlyOwner {\n    require(_isValidFactionId(factionId), \"Faction does not exist\");\n    require(tokenCount > 0, \"You can only mint more than 0 tokens\");\n\n    _handleFactionMint(tokenCount, factionId, recipient, MINT_SUPPLY + TEAM_SUPPLY);\n  }\n\n  function redeemBasePass(\n    uint256 factionId,\n    bytes memory sig\n  ) external {\n    require(_isValidFactionId(factionId), \"Faction does not exist\");\n\n    // Verify signature\n    bytes32 message = getBasePassSigningHash(\n      msg.sender,\n      factionId\n    ).toEthSignedMessageHash();\n    require(\n      ECDSA.recover(message, sig) == signVerifier,\n      \"Permission to call this function failed\"\n    );\n\n    basePassNonce[msg.sender]++;\n\n    if (factionId == TALAW_ID) {\n      talawMintCount++;\n    } else if (factionId == VESTAL_ID) {\n      vestalMintCount++;\n    } else if (factionId == AZULE_ID) {\n      azuleMintCount++;\n    }\n\n    _mint(msg.sender, 1, factionId);\n  }\n\n  // @dev Allows to enable/disable minting of presale\n  function flipPresaleState() external onlyOwner {\n    _isPresaleActive = !_isPresaleActive;\n  }\n\n  // @dev Allows to enable/disable minting of main sale\n  function flipSaleState() external onlyOwner {\n    _isSaleActive = !_isSaleActive;\n  }\n\n  function withdraw() external onlyOwner {\n    uint256 balance = address(this).balance;\n    payable(msg.sender).transfer(balance);\n  }\n\n  function getPartnerSigningHash(\n    address sender,\n    uint256[] memory factionIds,\n    address[] memory addresses,\n    uint256 nonce\n  ) public pure returns (bytes32) {\n    return\n      keccak256(\n        abi.encodePacked(sender, factionIds, addresses, nonce)\n      );\n  }\n\n  function getBasePassSigningHash(\n    address sender,\n    uint256 factionId\n  ) public view returns (bytes32) {\n    return \n      keccak256(\n        abi.encodePacked(sender, factionId, basePassNonce[sender])\n      );\n  }\n\n  function _baseURI() internal view override returns (string memory) {\n    return _uri;\n  }\n\n  function _handleFactionMint(\n    uint256 tokenCount,\n    uint256 factionId,\n    address recipient,\n    uint256 totalSupply\n  ) private {\n    if (factionId == TALAW_ID) {\n      require(talawMintCount < totalSupply, \"This faction has been fully minted\");\n      require((talawMintCount + tokenCount) <= totalSupply, \"Cannot purchase more than the available supply\");\n      talawMintCount += tokenCount;\n    } else if (factionId == VESTAL_ID) {\n      require(vestalMintCount < totalSupply, \"This faction has been fully minted\");\n      require((vestalMintCount + tokenCount) <= totalSupply, \"Cannot purchase more than the available supply\");\n      vestalMintCount += tokenCount;\n    } else if (factionId == AZULE_ID) {\n      require(azuleMintCount < totalSupply, \"This faction has been fully minted\");\n      require((azuleMintCount + tokenCount) <= totalSupply, \"Cannot purchase more than the available supply\");\n      azuleMintCount += tokenCount;\n    }\n\n    _mint(recipient, tokenCount, factionId);\n  }\n\n  function _mint(\n    address recipient,\n    uint256 tokenCount,\n    uint256 factionId\n  ) private {\n    for (uint256 i = 0; i < tokenCount; i++) {\n      uint256 tokenId = lastTokenId + i;\n      factionForToken[tokenId] = factionId;\n      emit Mint(recipient, tokenId, factionId);\n      _safeMint(recipient, tokenId);\n      lastTokenId++;\n    }\n  }\n\n  function _isValidFactionId(uint256 factionId) private pure returns (bool) {\n    return factionId == TALAW_ID || factionId == AZULE_ID || factionId == VESTAL_ID;\n  }\n}\n",
  "sourcePath": "/Users/jingsongdu/Documents/lov-smart-contracts/contracts/LegendsOfVenariPass.sol",
  "compiler": {
    "name": "solc",
    "version": "0.8.0+commit.c7dfd78e.Emscripten.clang"
  },
  "schemaVersion": "3.3.4",
  "updatedAt": "2021-10-18T04:42:58.040Z",
  "networkType": "ethereum",
  "devdoc": {
    "details": "This contract allows the distribution of Legends of Venari Passes in the form of a presale and main sale. Users can mint from Talaw, Vestal, or Azule in either sales. Smart contract work done by lenopix.eth",
    "kind": "dev",
    "methods": {
      "approve(address,uint256)": {
        "details": "See {IERC721-approve}."
      },
      "balanceOf(address)": {
        "details": "See {IERC721-balanceOf}."
      },
      "getApproved(uint256)": {
        "details": "See {IERC721-getApproved}."
      },
      "isApprovedForAll(address,address)": {
        "details": "See {IERC721-isApprovedForAll}."
      },
      "name()": {
        "details": "See {IERC721Metadata-name}."
      },
      "owner()": {
        "details": "Returns the address of the current owner."
      },
      "ownerOf(uint256)": {
        "details": "See {IERC721-ownerOf}."
      },
      "renounceOwnership()": {
        "details": "Leaves the contract without owner. It will not be possible to call `onlyOwner` functions anymore. Can only be called by the current owner. NOTE: Renouncing ownership will leave the contract without an owner, thereby removing any functionality that is only available to the owner."
      },
      "safeTransferFrom(address,address,uint256)": {
        "details": "See {IERC721-safeTransferFrom}."
      },
      "safeTransferFrom(address,address,uint256,bytes)": {
        "details": "See {IERC721-safeTransferFrom}."
      },
      "setApprovalForAll(address,bool)": {
        "details": "See {IERC721-setApprovalForAll}."
      },
      "supportsInterface(bytes4)": {
        "details": "See {IERC165-supportsInterface}."
      },
      "symbol()": {
        "details": "See {IERC721Metadata-symbol}."
      },
      "tokenByIndex(uint256)": {
        "details": "See {IERC721Enumerable-tokenByIndex}."
      },
      "tokenOfOwnerByIndex(address,uint256)": {
        "details": "See {IERC721Enumerable-tokenOfOwnerByIndex}."
      },
      "tokenURI(uint256)": {
        "details": "See {IERC721Metadata-tokenURI}."
      },
      "totalSupply()": {
        "details": "See {IERC721Enumerable-totalSupply}."
      },
      "transferFrom(address,address,uint256)": {
        "details": "See {IERC721-transferFrom}."
      },
      "transferOwnership(address)": {
        "details": "Transfers ownership of the contract to a new account (`newOwner`). Can only be called by the current owner."
      }
    },
    "title": "Token contract for Legends of Venari Alpha Passes",
    "version": 1
  },
  "userdoc": {
    "kind": "user",
    "methods": {},
    "version": 1
  }
}