{
  "contractName": "LegendsOfVenariPass",
  "abi": [
    {
      "inputs": [
        {
          "internalType": "uint256",
          "name": "mintSupply",
          "type": "uint256"
        },
        {
          "internalType": "uint256",
          "name": "teamSupply",
          "type": "uint256"
        },
        {
          "internalType": "uint256",
          "name": "maxMint",
          "type": "uint256"
        },
        {
          "internalType": "bytes32",
          "name": "merkleroot",
          "type": "bytes32"
        }
      ],
      "stateMutability": "nonpayable",
      "type": "constructor"
    },
    {
      "anonymous": false,
      "inputs": [
        {
          "indexed": true,
          "internalType": "address",
          "name": "owner",
          "type": "address"
        },
        {
          "indexed": true,
          "internalType": "address",
          "name": "approved",
          "type": "address"
        },
        {
          "indexed": true,
          "internalType": "uint256",
          "name": "tokenId",
          "type": "uint256"
        }
      ],
      "name": "Approval",
      "type": "event"
    },
    {
      "anonymous": false,
      "inputs": [
        {
          "indexed": true,
          "internalType": "address",
          "name": "owner",
          "type": "address"
        },
        {
          "indexed": true,
          "internalType": "address",
          "name": "operator",
          "type": "address"
        },
        {
          "indexed": false,
          "internalType": "bool",
          "name": "approved",
          "type": "bool"
        }
      ],
      "name": "ApprovalForAll",
      "type": "event"
    },
    {
      "anonymous": false,
      "inputs": [
        {
          "indexed": true,
          "internalType": "address",
          "name": "to",
          "type": "address"
        },
        {
          "indexed": true,
          "internalType": "uint256",
          "name": "tokenId",
          "type": "uint256"
        },
        {
          "indexed": true,
          "internalType": "uint256",
          "name": "factionId",
          "type": "uint256"
        }
      ],
      "name": "Mint",
      "type": "event"
    },
    {
      "anonymous": false,
      "inputs": [
        {
          "indexed": true,
          "internalType": "address",
          "name": "previousOwner",
          "type": "address"
        },
        {
          "indexed": true,
          "internalType": "address",
          "name": "newOwner",
          "type": "address"
        }
      ],
      "name": "OwnershipTransferred",
      "type": "event"
    },
    {
      "anonymous": false,
      "inputs": [
        {
          "indexed": true,
          "internalType": "address",
          "name": "from",
          "type": "address"
        },
        {
          "indexed": true,
          "internalType": "address",
          "name": "to",
          "type": "address"
        },
        {
          "indexed": true,
          "internalType": "uint256",
          "name": "tokenId",
          "type": "uint256"
        }
      ],
      "name": "Transfer",
      "type": "event"
    },
    {
      "inputs": [],
      "name": "AZULE_ID",
      "outputs": [
        {
          "internalType": "uint256",
          "name": "",
          "type": "uint256"
        }
      ],
      "stateMutability": "view",
      "type": "function",
      "constant": true
    },
    {
      "inputs": [],
      "name": "MINT_PRICE",
      "outputs": [
        {
          "internalType": "uint256",
          "name": "",
          "type": "uint256"
        }
      ],
      "stateMutability": "view",
      "type": "function",
      "constant": true
    },
    {
      "inputs": [],
      "name": "MINT_SUPPLY_PER_FACTION",
      "outputs": [
        {
          "internalType": "uint256",
          "name": "",
          "type": "uint256"
        }
      ],
      "stateMutability": "view",
      "type": "function",
      "constant": true
    },
    {
      "inputs": [],
      "name": "TALAW_ID",
      "outputs": [
        {
          "internalType": "uint256",
          "name": "",
          "type": "uint256"
        }
      ],
      "stateMutability": "view",
      "type": "function",
      "constant": true
    },
    {
      "inputs": [],
      "name": "TEAM_SUPPLY_PER_FACTION",
      "outputs": [
        {
          "internalType": "uint256",
          "name": "",
          "type": "uint256"
        }
      ],
      "stateMutability": "view",
      "type": "function",
      "constant": true
    },
    {
      "inputs": [],
      "name": "VESTAL_ID",
      "outputs": [
        {
          "internalType": "uint256",
          "name": "",
          "type": "uint256"
        }
      ],
      "stateMutability": "view",
      "type": "function",
      "constant": true
    },
    {
      "inputs": [
        {
          "internalType": "address",
          "name": "to",
          "type": "address"
        },
        {
          "internalType": "uint256",
          "name": "tokenId",
          "type": "uint256"
        }
      ],
      "name": "approve",
      "outputs": [],
      "stateMutability": "nonpayable",
      "type": "function"
    },
    {
      "inputs": [],
      "name": "azuleMintCount",
      "outputs": [
        {
          "internalType": "uint256",
          "name": "",
          "type": "uint256"
        }
      ],
      "stateMutability": "view",
      "type": "function",
      "constant": true
    },
    {
      "inputs": [
        {
          "internalType": "address",
          "name": "owner",
          "type": "address"
        }
      ],
      "name": "balanceOf",
      "outputs": [
        {
          "internalType": "uint256",
          "name": "",
          "type": "uint256"
        }
      ],
      "stateMutability": "view",
      "type": "function",
      "constant": true
    },
    {
      "inputs": [
        {
          "internalType": "uint256",
          "name": "tokenId",
          "type": "uint256"
        }
      ],
      "name": "getApproved",
      "outputs": [
        {
          "internalType": "address",
          "name": "",
          "type": "address"
        }
      ],
      "stateMutability": "view",
      "type": "function",
      "constant": true
    },
    {
      "inputs": [
        {
          "internalType": "address",
          "name": "owner",
          "type": "address"
        },
        {
          "internalType": "address",
          "name": "operator",
          "type": "address"
        }
      ],
      "name": "isApprovedForAll",
      "outputs": [
        {
          "internalType": "bool",
          "name": "",
          "type": "bool"
        }
      ],
      "stateMutability": "view",
      "type": "function",
      "constant": true
    },
    {
      "inputs": [],
      "name": "maxMintPerTransaction",
      "outputs": [
        {
          "internalType": "uint256",
          "name": "",
          "type": "uint256"
        }
      ],
      "stateMutability": "view",
      "type": "function",
      "constant": true
    },
    {
      "inputs": [],
      "name": "name",
      "outputs": [
        {
          "internalType": "string",
          "name": "",
          "type": "string"
        }
      ],
      "stateMutability": "view",
      "type": "function",
      "constant": true
    },
    {
      "inputs": [],
      "name": "owner",
      "outputs": [
        {
          "internalType": "address",
          "name": "",
          "type": "address"
        }
      ],
      "stateMutability": "view",
      "type": "function",
      "constant": true
    },
    {
      "inputs": [
        {
          "internalType": "uint256",
          "name": "tokenId",
          "type": "uint256"
        }
      ],
      "name": "ownerOf",
      "outputs": [
        {
          "internalType": "address",
          "name": "",
          "type": "address"
        }
      ],
      "stateMutability": "view",
      "type": "function",
      "constant": true
    },
    {
      "inputs": [],
      "name": "renounceOwnership",
      "outputs": [],
      "stateMutability": "nonpayable",
      "type": "function"
    },
    {
      "inputs": [],
      "name": "root",
      "outputs": [
        {
          "internalType": "bytes32",
          "name": "",
          "type": "bytes32"
        }
      ],
      "stateMutability": "view",
      "type": "function",
      "constant": true
    },
    {
      "inputs": [
        {
          "internalType": "address",
          "name": "from",
          "type": "address"
        },
        {
          "internalType": "address",
          "name": "to",
          "type": "address"
        },
        {
          "internalType": "uint256",
          "name": "tokenId",
          "type": "uint256"
        }
      ],
      "name": "safeTransferFrom",
      "outputs": [],
      "stateMutability": "nonpayable",
      "type": "function"
    },
    {
      "inputs": [
        {
          "internalType": "address",
          "name": "from",
          "type": "address"
        },
        {
          "internalType": "address",
          "name": "to",
          "type": "address"
        },
        {
          "internalType": "uint256",
          "name": "tokenId",
          "type": "uint256"
        },
        {
          "internalType": "bytes",
          "name": "_data",
          "type": "bytes"
        }
      ],
      "name": "safeTransferFrom",
      "outputs": [],
      "stateMutability": "nonpayable",
      "type": "function"
    },
    {
      "inputs": [
        {
          "internalType": "address",
          "name": "operator",
          "type": "address"
        },
        {
          "internalType": "bool",
          "name": "approved",
          "type": "bool"
        }
      ],
      "name": "setApprovalForAll",
      "outputs": [],
      "stateMutability": "nonpayable",
      "type": "function"
    },
    {
      "inputs": [
        {
          "internalType": "bytes4",
          "name": "interfaceId",
          "type": "bytes4"
        }
      ],
      "name": "supportsInterface",
      "outputs": [
        {
          "internalType": "bool",
          "name": "",
          "type": "bool"
        }
      ],
      "stateMutability": "view",
      "type": "function",
      "constant": true
    },
    {
      "inputs": [],
      "name": "symbol",
      "outputs": [
        {
          "internalType": "string",
          "name": "",
          "type": "string"
        }
      ],
      "stateMutability": "view",
      "type": "function",
      "constant": true
    },
    {
      "inputs": [],
      "name": "talawMintCount",
      "outputs": [
        {
          "internalType": "uint256",
          "name": "",
          "type": "uint256"
        }
      ],
      "stateMutability": "view",
      "type": "function",
      "constant": true
    },
    {
      "inputs": [
        {
          "internalType": "uint256",
          "name": "index",
          "type": "uint256"
        }
      ],
      "name": "tokenByIndex",
      "outputs": [
        {
          "internalType": "uint256",
          "name": "",
          "type": "uint256"
        }
      ],
      "stateMutability": "view",
      "type": "function",
      "constant": true
    },
    {
      "inputs": [
        {
          "internalType": "address",
          "name": "owner",
          "type": "address"
        },
        {
          "internalType": "uint256",
          "name": "index",
          "type": "uint256"
        }
      ],
      "name": "tokenOfOwnerByIndex",
      "outputs": [
        {
          "internalType": "uint256",
          "name": "",
          "type": "uint256"
        }
      ],
      "stateMutability": "view",
      "type": "function",
      "constant": true
    },
    {
      "inputs": [
        {
          "internalType": "uint256",
          "name": "tokenId",
          "type": "uint256"
        }
      ],
      "name": "tokenURI",
      "outputs": [
        {
          "internalType": "string",
          "name": "",
          "type": "string"
        }
      ],
      "stateMutability": "view",
      "type": "function",
      "constant": true
    },
    {
      "inputs": [],
      "name": "totalSupply",
      "outputs": [
        {
          "internalType": "uint256",
          "name": "",
          "type": "uint256"
        }
      ],
      "stateMutability": "view",
      "type": "function",
      "constant": true
    },
    {
      "inputs": [
        {
          "internalType": "address",
          "name": "from",
          "type": "address"
        },
        {
          "internalType": "address",
          "name": "to",
          "type": "address"
        },
        {
          "internalType": "uint256",
          "name": "tokenId",
          "type": "uint256"
        }
      ],
      "name": "transferFrom",
      "outputs": [],
      "stateMutability": "nonpayable",
      "type": "function"
    },
    {
      "inputs": [
        {
          "internalType": "address",
          "name": "newOwner",
          "type": "address"
        }
      ],
      "name": "transferOwnership",
      "outputs": [],
      "stateMutability": "nonpayable",
      "type": "function"
    },
    {
      "inputs": [],
      "name": "vestalMintCount",
      "outputs": [
        {
          "internalType": "uint256",
          "name": "",
          "type": "uint256"
        }
      ],
      "stateMutability": "view",
      "type": "function",
      "constant": true
    },
    {
      "inputs": [
        {
          "internalType": "uint256",
          "name": "tokenId",
          "type": "uint256"
        }
      ],
      "name": "getFaction",
      "outputs": [
        {
          "internalType": "uint256",
          "name": "",
          "type": "uint256"
        }
      ],
      "stateMutability": "view",
      "type": "function",
      "constant": true
    },
    {
      "inputs": [
        {
          "internalType": "address",
          "name": "user",
          "type": "address"
        }
      ],
      "name": "getPresaleClaimed",
      "outputs": [
        {
          "internalType": "bool",
          "name": "",
          "type": "bool"
        }
      ],
      "stateMutability": "view",
      "type": "function",
      "constant": true
    },
    {
      "inputs": [],
      "name": "getPreSaleState",
      "outputs": [
        {
          "internalType": "bool",
          "name": "",
          "type": "bool"
        }
      ],
      "stateMutability": "view",
      "type": "function",
      "constant": true
    },
    {
      "inputs": [],
      "name": "getSaleState",
      "outputs": [
        {
          "internalType": "bool",
          "name": "",
          "type": "bool"
        }
      ],
      "stateMutability": "view",
      "type": "function",
      "constant": true
    },
    {
      "inputs": [
        {
          "internalType": "uint256",
          "name": "factionId",
          "type": "uint256"
        }
      ],
      "name": "getMintCount",
      "outputs": [
        {
          "internalType": "uint256",
          "name": "",
          "type": "uint256"
        }
      ],
      "stateMutability": "view",
      "type": "function",
      "constant": true
    },
    {
      "inputs": [
        {
          "internalType": "string",
          "name": "uri",
          "type": "string"
        }
      ],
      "name": "setBaseURI",
      "outputs": [],
      "stateMutability": "nonpayable",
      "type": "function"
    },
    {
      "inputs": [
        {
          "internalType": "address",
          "name": "verifier",
          "type": "address"
        }
      ],
      "name": "setSignVerifier",
      "outputs": [],
      "stateMutability": "nonpayable",
      "type": "function"
    },
    {
      "inputs": [
        {
          "internalType": "uint256",
          "name": "maxMint",
          "type": "uint256"
        }
      ],
      "name": "setMaxMintPerTransaction",
      "outputs": [],
      "stateMutability": "nonpayable",
      "type": "function"
    },
    {
      "inputs": [
        {
          "internalType": "uint256",
          "name": "tokenId",
          "type": "uint256"
        },
        {
          "internalType": "bytes32[]",
          "name": "proof",
          "type": "bytes32[]"
        },
        {
          "internalType": "uint256",
          "name": "factionId",
          "type": "uint256"
        }
      ],
      "name": "presaleMint",
      "outputs": [],
      "stateMutability": "payable",
      "type": "function",
      "payable": true
    },
    {
      "inputs": [
        {
          "internalType": "uint256[]",
          "name": "factionIds",
          "type": "uint256[]"
        },
        {
          "internalType": "address[]",
          "name": "addresses",
          "type": "address[]"
        },
        {
          "internalType": "uint256",
          "name": "nonce",
          "type": "uint256"
        },
        {
          "internalType": "bytes",
          "name": "sig",
          "type": "bytes"
        }
      ],
      "name": "partnerMint",
      "outputs": [],
      "stateMutability": "payable",
      "type": "function",
      "payable": true
    },
    {
      "inputs": [
        {
          "internalType": "uint256",
          "name": "tokenCount",
          "type": "uint256"
        },
        {
          "internalType": "uint256",
          "name": "factionId",
          "type": "uint256"
        }
      ],
      "name": "mint",
      "outputs": [],
      "stateMutability": "payable",
      "type": "function",
      "payable": true
    },
    {
      "inputs": [
        {
          "internalType": "address[]",
          "name": "addresses",
          "type": "address[]"
        },
        {
          "internalType": "uint256[]",
          "name": "factionIds",
          "type": "uint256[]"
        }
      ],
      "name": "mintToAddress",
      "outputs": [],
      "stateMutability": "nonpayable",
      "type": "function"
    },
    {
      "inputs": [
        {
          "internalType": "uint256",
          "name": "factionId",
          "type": "uint256"
        },
        {
          "internalType": "bytes",
          "name": "sig",
          "type": "bytes"
        }
      ],
      "name": "redeemBasePass",
      "outputs": [],
      "stateMutability": "nonpayable",
      "type": "function"
    },
    {
      "inputs": [],
      "name": "flipPresaleState",
      "outputs": [],
      "stateMutability": "nonpayable",
      "type": "function"
    },
    {
      "inputs": [],
      "name": "flipSaleState",
      "outputs": [],
      "stateMutability": "nonpayable",
      "type": "function"
    },
    {
      "inputs": [],
      "name": "withdraw",
      "outputs": [],
      "stateMutability": "nonpayable",
      "type": "function"
    },
    {
      "inputs": [
        {
          "internalType": "address",
          "name": "sender",
          "type": "address"
        },
        {
          "internalType": "uint256[]",
          "name": "factionIds",
          "type": "uint256[]"
        },
        {
          "internalType": "address[]",
          "name": "addresses",
          "type": "address[]"
        },
        {
          "internalType": "uint256",
          "name": "nonce",
          "type": "uint256"
        }
      ],
      "name": "getPartnerSigningHash",
      "outputs": [
        {
          "internalType": "bytes32",
          "name": "",
          "type": "bytes32"
        }
      ],
      "stateMutability": "pure",
      "type": "function",
      "constant": true
    },
    {
      "inputs": [
        {
          "internalType": "address",
          "name": "sender",
          "type": "address"
        },
        {
          "internalType": "uint256",
          "name": "factionId",
          "type": "uint256"
        }
      ],
      "name": "getBasePassSigningHash",
      "outputs": [
        {
          "internalType": "bytes32",
          "name": "",
          "type": "bytes32"
        }
      ],
      "stateMutability": "view",
      "type": "function",
      "constant": true
    }
  ],
  "bytecode": "0x60a06040526000600f819055601081905560118190556012805461ffff19169055601580546001600160a01b03191673f79e8a0d24cf91ee36c8a7e7db8aa95fbf7d6a8f1790556017553480156200005657600080fd5b5060405162003c7f38038062003c7f833981016040819052620000799162000225565b604080518082018252601681527f4c6567656e6473206f662056656e61726920506173730000000000000000000060208083019182528351808501909452600384526204c56560ec1b908401528151919291620000d9916000916200017f565b508051620000ef9060019060208401906200017f565b5050506200010c620001066200012960201b60201c565b6200012d565b6001600b55600d93909355600e91909155600c5560805262000298565b3390565b600a80546001600160a01b038381166001600160a01b0319831681179093556040519116919082907f8be0079c531659141344cd1fd0a4f28419497f9722a3daafe3b4186f6b6457e090600090a35050565b8280546200018d906200025b565b90600052602060002090601f016020900481019282620001b15760008555620001fc565b82601f10620001cc57805160ff1916838001178555620001fc565b82800160010185558215620001fc579182015b82811115620001fc578251825591602001919060010190620001df565b506200020a9291506200020e565b5090565b5b808211156200020a57600081556001016200020f565b600080600080608085870312156200023b578384fd5b505082516020840151604085015160609095015191969095509092509050565b6002810460018216806200027057607f821691505b602082108114156200029257634e487b7160e01b600052602260045260246000fd5b50919050565b6080516139c4620002bb600039600081816116430152611b1c01526139c46000f3fe6080604052600436106102235760003560e01c806301f569971461022857806301ffc9a71461025357806306fdde0314610280578063081812fc146102a2578063095ea7b3146102cf5780630d52b7ee146102f157806318160ddd146103065780631b2ef1ca1461031b5780631c6d325b1461032e5780631fb5b1e0146103435780632249a61a1461036357806323b872dd1461037857806325bdb2a8146103985780632e6cebe5146103ad5780632f745c59146103cd5780632ff5e387146103ed57806334918dfd146104005780633ccfd60b1461041557806342842e0e1461042a578063455e7cdf1461044a5780634f259bd91461045f5780634f6ccce714610474578063500b9f441461049457806351bdca2b146104a957806354e4f1dd146104c957806355f804b3146104de5780635ee30966146104fe5780636089edd11461051e5780636352211e1461053357806370a0823114610553578063715018a6146105735780637a1be870146105885780638da5cb5b1461059b57806395d89b41146105b05780639fac2ab3146105c5578063a22cb465146105da578063a8a150b8146105fa578063b5e47bdd1461061a578063b88d4fde1461063a578063bb40ad321461065a578063c002d23d1461067a578063c87b56dd1461068f578063db09a3f5146106af578063e8649f58146106cf578063e985e9c5146106ef578063ebf0c7171461070f578063f2fde38b14610724578063f81227d414610744575b600080fd5b34801561023457600080fd5b5061023d610759565b60405161024a9190612dde565b60405180910390f35b34801561025f57600080fd5b5061027361026e366004612aba565b61075f565b60405161024a9190612dd3565b34801561028c57600080fd5b5061029561078c565b60405161024a9190612e05565b3480156102ae57600080fd5b506102c26102bd366004612b37565b61081e565b60405161024a9190612d82565b3480156102db57600080fd5b506102ef6102ea3660046129b0565b61086a565b005b3480156102fd57600080fd5b5061023d610902565b34801561031257600080fd5b5061023d610908565b6102ef610329366004612c07565b61090e565b34801561033a57600080fd5b5061023d610a0b565b34801561034f57600080fd5b5061023d61035e3660046129b0565b610a10565b34801561036f57600080fd5b5061023d610a5c565b34801561038457600080fd5b506102ef61039336600461285e565b610a62565b3480156103a457600080fd5b50610273610a9a565b3480156103b957600080fd5b506102ef6103c8366004612b37565b610aa8565b3480156103d957600080fd5b5061023d6103e83660046129b0565b610aec565b6102ef6103fb366004612b4f565b610b3e565b34801561040c57600080fd5b506102ef610c97565b34801561042157600080fd5b506102ef610cf3565b34801561043657600080fd5b506102ef61044536600461285e565b610d65565b34801561045657600080fd5b5061023d610d80565b34801561046b57600080fd5b5061023d610d86565b34801561048057600080fd5b5061023d61048f366004612b37565b610d8b565b3480156104a057600080fd5b50610273610de6565b3480156104b557600080fd5b506102ef6104c4366004612bcd565b610def565b3480156104d557600080fd5b5061023d610eea565b3480156104ea57600080fd5b506102ef6104f9366004612af2565b610eef565b34801561050a57600080fd5b50610273610519366004612812565b610f41565b34801561052a57600080fd5b5061023d610f5f565b34801561053f57600080fd5b506102c261054e366004612b37565b610f65565b34801561055f57600080fd5b5061023d61056e366004612812565b610f9a565b34801561057f57600080fd5b506102ef610fde565b6102ef610596366004612a39565b611029565b3480156105a757600080fd5b506102c2611210565b3480156105bc57600080fd5b5061029561121f565b3480156105d157600080fd5b5061023d61122e565b3480156105e657600080fd5b506102ef6105f5366004612976565b611234565b34801561060657600080fd5b5061023d610615366004612b37565b611302565b34801561062657600080fd5b506102ef6106353660046129d9565b61133c565b34801561064657600080fd5b506102ef610655366004612899565b61144f565b34801561066657600080fd5b5061023d6106753660046128fe565b611488565b34801561068657600080fd5b5061023d6114c2565b34801561069b57600080fd5b506102956106aa366004612b37565b6114ce565b3480156106bb57600080fd5b5061023d6106ca366004612b37565b611551565b3480156106db57600080fd5b506102ef6106ea366004612812565b6115b2565b3480156106fb57600080fd5b5061027361070a36600461282c565b611613565b34801561071b57600080fd5b5061023d611641565b34801561073057600080fd5b506102ef61073f366004612812565b611665565b34801561075057600080fd5b506102ef6116d6565b600c5481565b60006001600160e01b0319821663780e9d6360e01b1480610784575061078482611729565b90505b919050565b60606000805461079b906138ac565b80601f01602080910402602001604051908101604052809291908181526020018280546107c7906138ac565b80156108145780601f106107e957610100808354040283529160200191610814565b820191906000526020600020905b8154815290600101906020018083116107f757829003601f168201915b5050505050905090565b600061082982611769565b61084e5760405162461bcd60e51b815260040161084590613492565b60405180910390fd5b506000908152600460205260409020546001600160a01b031690565b600061087582610f65565b9050806001600160a01b0316836001600160a01b031614156108a95760405162461bcd60e51b815260040161084590613662565b806001600160a01b03166108bb611786565b6001600160a01b031614806108d757506108d78161070a611786565b6108f35760405162461bcd60e51b8152600401610845906132e9565b6108fd838361178a565b505050565b60105481565b60085490565b6002600b5414156109315760405162461bcd60e51b81526004016108459061376e565b6002600b5561093f816117f8565b61095b5760405162461bcd60e51b8152600401610845906136a3565b601254610100900460ff166109825760405162461bcd60e51b8152600401610845906132c0565b600082116109a25760405162461bcd60e51b8152600401610845906130c1565b600c548211156109c45760405162461bcd60e51b8152600401610845906130f5565b346109d78367029be90101c6000061384a565b146109f45760405162461bcd60e51b815260040161084590613513565b610a02828233600d54611814565b50506001600b55565b600281565b6001600160a01b0382166000908152601960209081526040808320549051610a3e9286928692909101612cd5565b60405160208183030381529060405280519060200120905092915050565b600d5481565b610a73610a6d611786565b82611967565b610a8f5760405162461bcd60e51b8152600401610845906136d1565b6108fd8383836119e4565b601254610100900460ff1690565b610ab0611786565b6001600160a01b0316610ac1611210565b6001600160a01b031614610ae75760405162461bcd60e51b8152600401610845906134de565b600c55565b6000610af783610f9a565b8210610b155760405162461bcd60e51b815260040161084590612f11565b506001600160a01b03919091166000908152600660209081526040808320938352929052205490565b610b84610b4b3386611aff565b848480806020026020016040519081016040528093929190818152602001838360200280828437600092019190915250611b1492505050565b610ba05760405162461bcd60e51b81526004016108459061359c565b3360009081526014602052604090205460ff1615610bd05760405162461bcd60e51b81526004016108459061355b565b60125460ff16610bf25760405162461bcd60e51b8152600401610845906131cf565b601254610100900460ff1615610c1a5760405162461bcd60e51b815260040161084590613046565b610c23816117f8565b610c3f5760405162461bcd60e51b8152600401610845906136a3565b3467029be90101c6000014610c665760405162461bcd60e51b815260040161084590613513565b336000818152601460205260409020805460ff19166001908117909155600d54610c91928491611814565b50505050565b610c9f611786565b6001600160a01b0316610cb0611210565b6001600160a01b031614610cd65760405162461bcd60e51b8152600401610845906134de565b6012805461ff001981166101009182900460ff1615909102179055565b610cfb611786565b6001600160a01b0316610d0c611210565b6001600160a01b031614610d325760405162461bcd60e51b8152600401610845906134de565b6040514790339082156108fc029083906000818181858888f19350505050158015610d61573d6000803e3d6000fd5b5050565b6108fd8383836040518060200160405280600081525061144f565b600f5481565b600081565b6000610d95610908565b8210610db35760405162461bcd60e51b815260040161084590613722565b60088281548110610dd457634e487b7160e01b600052603260045260246000fd5b90600052602060002001549050919050565b60125460ff1690565b610df8826117f8565b610e145760405162461bcd60e51b81526004016108459061319f565b6000610e28610e233385610a10565b611b41565b6015549091506001600160a01b0316610e418284611b71565b6001600160a01b031614610e675760405162461bcd60e51b815260040161084590613341565b336000908152601960205260408120805491610e82836138e7565b909155505082610ea657600f8054906000610e9c836138e7565b9190505550610ede565b6001831415610ebf5760108054906000610e9c836138e7565b6002831415610ede5760118054906000610ed8836138e7565b91905055505b6108fd33600185611b95565b600181565b610ef7611786565b6001600160a01b0316610f08611210565b6001600160a01b031614610f2e5760405162461bcd60e51b8152600401610845906134de565b8051610d6190601690602084019061261f565b6001600160a01b031660009081526014602052604090205460ff1690565b60115481565b6000818152600260205260408120546001600160a01b0316806107845760405162461bcd60e51b8152600401610845906133d2565b60006001600160a01b038216610fc25760405162461bcd60e51b815260040161084590613388565b506001600160a01b031660009081526003602052604090205490565b610fe6611786565b6001600160a01b0316610ff7611210565b6001600160a01b03161461101d5760405162461bcd60e51b8152600401610845906134de565b6110276000611bed565b565b6002600b54141561104c5760405162461bcd60e51b81526004016108459061376e565b6002600b5560125460ff166110735760405162461bcd60e51b8152600401610845906131cf565b34845167029be90101c60000611089919061384a565b146110a65760405162461bcd60e51b815260040161084590613513565b82518451146110c75760405162461bcd60e51b815260040161084590612fae565b60008281526018602052604090205460ff16156110f65760405162461bcd60e51b8152600401610845906137a5565b6000611107610e2333878787611488565b6015549091506001600160a01b03166111208284611b71565b6001600160a01b0316146111465760405162461bcd60e51b815260040161084590613341565b6000838152601860205260408120805460ff191660011790555b855181101561120357600086828151811061118b57634e487b7160e01b600052603260045260246000fd5b6020026020010151905061119e816117f8565b6111ba5760405162461bcd60e51b8152600401610845906136a3565b6111f06001828885815181106111e057634e487b7160e01b600052603260045260246000fd5b6020026020010151600d54611814565b50806111fb816138e7565b915050611160565b50506001600b5550505050565b600a546001600160a01b031690565b60606001805461079b906138ac565b600e5481565b61123c611786565b6001600160a01b0316826001600160a01b0316141561126d5760405162461bcd60e51b81526004016108459061316c565b806005600061127a611786565b6001600160a01b03908116825260208083019390935260409182016000908120918716808252919093529120805460ff1916921515929092179091556112be611786565b6001600160a01b03167f17307eab39ab6107e8899845ad3d59bd9653f200f220920489ca2b5937696c31836040516112f69190612dd3565b60405180910390a35050565b600061130d82611769565b6113295760405162461bcd60e51b8152600401610845906131fb565b5060009081526013602052604090205490565b611344611786565b6001600160a01b0316611355611210565b6001600160a01b03161461137b5760405162461bcd60e51b8152600401610845906134de565b815181511461139c5760405162461bcd60e51b815260040161084590612fae565b60005b81518110156108fd5760008282815181106113ca57634e487b7160e01b600052603260045260246000fd5b602002602001015190506113dd816117f8565b6113f95760405162461bcd60e51b8152600401610845906136a3565b61143c60018286858151811061141f57634e487b7160e01b600052603260045260246000fd5b6020026020010151600e54600d54611437919061381e565b611814565b5080611447816138e7565b91505061139f565b61146061145a611786565b83611967565b61147c5760405162461bcd60e51b8152600401610845906136d1565b610c9184848484611c3f565b6000848484846040516020016114a19493929190612c54565b6040516020818303038152906040528051906020012090505b949350505050565b67029be90101c6000081565b60606114d982611769565b6114f55760405162461bcd60e51b815260040161084590613613565b60006114ff611c72565b9050600081511161151f576040518060200160405280600081525061154a565b8061152984611c81565b60405160200161153a929190612d08565b6040516020818303038152906040525b9392505050565b600061155c826117f8565b6115785760405162461bcd60e51b8152600401610845906136a3565b816115865750600f54610787565b60018214156115985750601054610787565b60028214156115aa5750601154610787565b506000919050565b6115ba611786565b6001600160a01b03166115cb611210565b6001600160a01b0316146115f15760405162461bcd60e51b8152600401610845906134de565b601580546001600160a01b0319166001600160a01b0392909216919091179055565b6001600160a01b03918216600090815260056020908152604080832093909416825291909152205460ff1690565b7f000000000000000000000000000000000000000000000000000000000000000081565b61166d611786565b6001600160a01b031661167e611210565b6001600160a01b0316146116a45760405162461bcd60e51b8152600401610845906134de565b6001600160a01b0381166116ca5760405162461bcd60e51b815260040161084590613000565b6116d381611bed565b50565b6116de611786565b6001600160a01b03166116ef611210565b6001600160a01b0316146117155760405162461bcd60e51b8152600401610845906134de565b6012805460ff19811660ff90911615179055565b60006001600160e01b031982166380ac58cd60e01b148061175a57506001600160e01b03198216635b5e139f60e01b145b80610784575061078482611d9b565b6000908152600260205260409020546001600160a01b0316151590565b3390565b600081815260046020526040902080546001600160a01b0319166001600160a01b03841690811790915581906117bf82610f65565b6001600160a01b03167f8c5be1e5ebec7d5bd14f71427d1e84f3dd0314c0f7b2291e5b200ac8c7c3b92560405160405180910390a45050565b60008115806118075750600282145b8061078457505060011490565b826118845780600f541061183a5760405162461bcd60e51b815260040161084590612ecf565b8084600f54611849919061381e565b11156118675760405162461bcd60e51b815260040161084590612e4a565b83600f6000828254611879919061381e565b9091555061195c9050565b60018314156118ed5780601054106118ae5760405162461bcd60e51b815260040161084590612ecf565b80846010546118bd919061381e565b11156118db5760405162461bcd60e51b815260040161084590612e4a565b8360106000828254611879919061381e565b600283141561195c5780601154106119175760405162461bcd60e51b815260040161084590612ecf565b8084601154611926919061381e565b11156119445760405162461bcd60e51b815260040161084590612e4a565b8360116000828254611956919061381e565b90915550505b610c91828585611b95565b600061197282611769565b61198e5760405162461bcd60e51b815260040161084590613274565b600061199983610f65565b9050806001600160a01b0316846001600160a01b031614806119d45750836001600160a01b03166119c98461081e565b6001600160a01b0316145b806114ba57506114ba8185611613565b826001600160a01b03166119f782610f65565b6001600160a01b031614611a1d5760405162461bcd60e51b8152600401610845906135ca565b6001600160a01b038216611a435760405162461bcd60e51b815260040161084590613128565b611a4e838383611db4565b611a5960008261178a565b6001600160a01b0383166000908152600360205260408120805460019290611a82908490613869565b90915550506001600160a01b0382166000908152600360205260408120805460019290611ab090849061381e565b909155505060008181526002602052604080822080546001600160a01b0319166001600160a01b03868116918217909255915184939187169160008051602061396f83398151915291a4505050565b60008183604051602001610a3e929190612d67565b600061154a827f000000000000000000000000000000000000000000000000000000000000000085611e3d565b600081604051602001611b549190612d37565b604051602081830303815290604052805190602001209050919050565b6000806000611b808585611ef8565b91509150611b8d81611f68565b509392505050565b60005b82811015611bd057600081601754611bb0919061381e565b9050611bbd858285612095565b5080611bc8816138e7565b915050611b98565b508160176000828254611be3919061381e565b9091555050505050565b600a80546001600160a01b038381166001600160a01b0319831681179093556040519116919082907f8be0079c531659141344cd1fd0a4f28419497f9722a3daafe3b4186f6b6457e090600090a35050565b611c4a8484846119e4565b611c56848484846120e4565b610c915760405162461bcd60e51b815260040161084590612f5c565b60606016805461079b906138ac565b606081611ca657506040805180820190915260018152600360fc1b6020820152610787565b8160005b8115611cd05780611cba816138e7565b9150611cc99050600a83613836565b9150611caa565b6000816001600160401b03811115611cf857634e487b7160e01b600052604160045260246000fd5b6040519080825280601f01601f191660200182016040528015611d22576020820181803683370190505b5090505b84156114ba57611d37600183613869565b9150611d44600a86613902565b611d4f90603061381e565b60f81b818381518110611d7257634e487b7160e01b600052603260045260246000fd5b60200101906001600160f81b031916908160001a905350611d94600a86613836565b9450611d26565b6001600160e01b031981166301ffc9a760e01b14919050565b611dbf8383836108fd565b6001600160a01b038316611ddb57611dd6816121fc565b611dfe565b816001600160a01b0316836001600160a01b031614611dfe57611dfe8382612240565b6001600160a01b038216611e1a57611e15816122dd565b6108fd565b826001600160a01b0316826001600160a01b0316146108fd576108fd82826123b6565b600081815b8551811015611eed576000868281518110611e6d57634e487b7160e01b600052603260045260246000fd5b60200260200101519050808311611eae578281604051602001611e91929190612cfa565b604051602081830303815290604052805190602001209250611eda565b8083604051602001611ec1929190612cfa565b6040516020818303038152906040528051906020012092505b5080611ee5816138e7565b915050611e42565b509092149392505050565b600080825160411415611f2f5760208301516040840151606085015160001a611f23878285856123fa565b94509450505050611f61565b825160401415611f595760208301516040840151611f4e8683836124d0565b935093505050611f61565b506000905060025b9250929050565b6000816004811115611f8a57634e487b7160e01b600052602160045260246000fd5b1415611f95576116d3565b6001816004811115611fb757634e487b7160e01b600052602160045260246000fd5b1415611fd55760405162461bcd60e51b815260040161084590612e18565b6002816004811115611ff757634e487b7160e01b600052602160045260246000fd5b14156120155760405162461bcd60e51b815260040161084590612e98565b600381600481111561203757634e487b7160e01b600052602160045260246000fd5b14156120555760405162461bcd60e51b815260040161084590613232565b600481600481111561207757634e487b7160e01b600052602160045260246000fd5b14156116d35760405162461bcd60e51b81526004016108459061341b565b60008281526013602052604080822083905551829184916001600160a01b038716917f4c209b5fc8ad50758f13e2e1088ba56a560dff690a1c6fef26394f4c03821c4f91a46108fd83836124ff565b60006120f8846001600160a01b0316612519565b156121f457836001600160a01b031663150b7a02612114611786565b8786866040518563ffffffff1660e01b81526004016121369493929190612d96565b602060405180830381600087803b15801561215057600080fd5b505af1925050508015612180575060408051601f3d908101601f1916820190925261217d91810190612ad6565b60015b6121da573d8080156121ae576040519150601f19603f3d011682016040523d82523d6000602084013e6121b3565b606091505b5080516121d25760405162461bcd60e51b815260040161084590612f5c565b805181602001fd5b6001600160e01b031916630a85bd0160e11b1490506114ba565b5060016114ba565b600880546000838152600960205260408120829055600182018355919091527ff3f7a9fe364faab93b216da50a3214154f22a0a2b415b23a84c8169e8b636ee30155565b6000600161224d84610f9a565b6122579190613869565b6000838152600760205260409020549091508082146122aa576001600160a01b03841660009081526006602090815260408083208584528252808320548484528184208190558352600790915290208190555b5060009182526007602090815260408084208490556001600160a01b039094168352600681528383209183525290812055565b6008546000906122ef90600190613869565b6000838152600960205260408120546008805493945090928490811061232557634e487b7160e01b600052603260045260246000fd5b90600052602060002001549050806008838154811061235457634e487b7160e01b600052603260045260246000fd5b600091825260208083209091019290925582815260099091526040808220849055858252812055600880548061239a57634e487b7160e01b600052603160045260246000fd5b6001900381819060005260206000200160009055905550505050565b60006123c183610f9a565b6001600160a01b039093166000908152600660209081526040808320868452825280832085905593825260079052919091209190915550565b6000806fa2a8918ca85bafe22016d0b997e4df60600160ff1b0383111561242757506000905060036124c7565b8460ff16601b1415801561243f57508460ff16601c14155b1561245057506000905060046124c7565b6000600187878787604051600081526020016040526040516124759493929190612de7565b6020604051602081039080840390855afa158015612497573d6000803e3d6000fd5b5050604051601f1901519150506001600160a01b0381166124c0576000600192509250506124c7565b9150600090505b94509492505050565b6000806001600160ff1b03831660ff84901c601b016124f1878288856123fa565b935093505050935093915050565b610d6182826040518060200160405280600081525061251f565b3b151590565b6125298383612552565b61253660008484846120e4565b6108fd5760405162461bcd60e51b815260040161084590612f5c565b6001600160a01b0382166125785760405162461bcd60e51b81526004016108459061345d565b61258181611769565b1561259e5760405162461bcd60e51b81526004016108459061308b565b6125aa60008383611db4565b6001600160a01b03821660009081526003602052604081208054600192906125d390849061381e565b909155505060008181526002602052604080822080546001600160a01b0319166001600160a01b038616908117909155905183929060008051602061396f833981519152908290a45050565b82805461262b906138ac565b90600052602060002090601f01602090048101928261264d5760008555612693565b82601f1061266657805160ff1916838001178555612693565b82800160010185558215612693579182015b82811115612693578251825591602001919060010190612678565b5061269f9291506126a3565b5090565b5b8082111561269f57600081556001016126a4565b60006001600160401b038311156126d1576126d1613942565b6126e4601f8401601f19166020016137d2565b90508281528383830111156126f857600080fd5b828260208301376000602084830101529392505050565b80356001600160a01b038116811461078757600080fd5b600082601f830112612736578081fd5b8135602061274b612746836137fb565b6137d2565b8281528181019085830183850287018401881015612767578586fd5b855b8581101561278c5761277a8261270f565b84529284019290840190600101612769565b5090979650505050505050565b600082601f8301126127a9578081fd5b813560206127b9612746836137fb565b82815281810190858301838502870184018810156127d5578586fd5b855b8581101561278c578135845292840192908401906001016127d7565b600082601f830112612803578081fd5b61154a838335602085016126b8565b600060208284031215612823578081fd5b61154a8261270f565b6000806040838503121561283e578081fd5b6128478361270f565b91506128556020840161270f565b90509250929050565b600080600060608486031215612872578081fd5b61287b8461270f565b92506128896020850161270f565b9150604084013590509250925092565b600080600080608085870312156128ae578081fd5b6128b78561270f565b93506128c56020860161270f565b92506040850135915060608501356001600160401b038111156128e6578182fd5b6128f2878288016127f3565b91505092959194509250565b60008060008060808587031215612913578384fd5b61291c8561270f565b935060208501356001600160401b0380821115612937578485fd5b61294388838901612799565b94506040870135915080821115612958578384fd5b5061296587828801612726565b949793965093946060013593505050565b60008060408385031215612988578182fd5b6129918361270f565b9150602083013580151581146129a5578182fd5b809150509250929050565b600080604083850312156129c2578182fd5b6129cb8361270f565b946020939093013593505050565b600080604083850312156129eb578182fd5b82356001600160401b0380821115612a01578384fd5b612a0d86838701612726565b93506020850135915080821115612a22578283fd5b50612a2f85828601612799565b9150509250929050565b60008060008060808587031215612a4e578182fd5b84356001600160401b0380821115612a64578384fd5b612a7088838901612799565b95506020870135915080821115612a85578384fd5b612a9188838901612726565b9450604087013593506060870135915080821115612aad578283fd5b506128f2878288016127f3565b600060208284031215612acb578081fd5b813561154a81613958565b600060208284031215612ae7578081fd5b815161154a81613958565b600060208284031215612b03578081fd5b81356001600160401b03811115612b18578182fd5b8201601f81018413612b28578182fd5b6114ba848235602084016126b8565b600060208284031215612b48578081fd5b5035919050565b60008060008060608587031215612b64578182fd5b8435935060208501356001600160401b0380821115612b81578384fd5b818701915087601f830112612b94578384fd5b813581811115612ba2578485fd5b8860208083028501011115612bb5578485fd5b95986020929092019750949560400135945092505050565b60008060408385031215612bdf578182fd5b8235915060208301356001600160401b03811115612bfb578182fd5b612a2f858286016127f3565b60008060408385031215612c19578182fd5b50508035926020909101359150565b60008151808452612c40816020860160208601613880565b601f01601f19169290920160200192915050565b606085901b6001600160601b0319168152835160009060148301906020808801845b83811015612c9257815185529382019390820190600101612c76565b50508651818801939250845b81811015612cc35784516001600160a01b031684529382019392820192600101612c9e565b50509481529093019695505050505050565b60609390931b6001600160601b03191683526014830191909152603482015260540190565b918252602082015260400190565b60008351612d1a818460208801613880565b835190830190612d2e818360208801613880565b01949350505050565b7b0ca2ba3432b932bab69029b4b3b732b21026b2b9b9b0b3b29d05199960211b8152601c810191909152603c0190565b91825260601b6001600160601b031916602082015260340190565b6001600160a01b0391909116815260200190565b6001600160a01b0385811682528416602082015260408101839052608060608201819052600090612dc990830184612c28565b9695505050505050565b901515815260200190565b90815260200190565b93845260ff9290921660208401526040830152606082015260800190565b60006020825261154a6020830184612c28565b60208082526018908201527745434453413a20696e76616c6964207369676e617475726560401b604082015260600190565b6020808252602e908201527f43616e6e6f74207075726368617365206d6f7265207468616e2074686520617660408201526d61696c61626c6520737570706c7960901b606082015260800190565b6020808252601f908201527f45434453413a20696e76616c6964207369676e6174757265206c656e67746800604082015260600190565b60208082526022908201527f546869732066616374696f6e20686173206265656e2066756c6c79206d696e74604082015261195960f21b606082015260800190565b6020808252602b908201527f455243373231456e756d657261626c653a206f776e657220696e646578206f7560408201526a74206f6620626f756e647360a81b606082015260800190565b60208082526032908201527f4552433732313a207472616e7366657220746f206e6f6e20455243373231526560408201527131b2b4bb32b91034b6b83632b6b2b73a32b960711b606082015260800190565b60208082526032908201527f46616374696f6e20696473206d7563682068617665207468652073616d65206c604082015271656e6774682061732061646472657373657360701b606082015260800190565b60208082526026908201527f4f776e61626c653a206e6577206f776e657220697320746865207a65726f206160408201526564647265737360d01b606082015260800190565b60208082526025908201527f43616e6e6f74206d696e74207768696c65206d61696e2073616c652069732061604082015264637469766560d81b606082015260800190565b6020808252601c908201527b115490cdcc8c4e881d1bdad95b88185b1c9958591e481b5a5b9d195960221b604082015260600190565b6020808252601a908201527926bab9ba1036b4b73a1030ba103632b0b9ba1018903a37b5b2b760311b604082015260600190565b602080825260199082015278151bdad95b8818dbdd5b9d08195e18d959591cc81b1a5b5a5d603a1b604082015260600190565b60208082526024908201527f4552433732313a207472616e7366657220746f20746865207a65726f206164646040820152637265737360e01b606082015260800190565b60208082526019908201527822a9219b99189d1030b8383937bb32903a379031b0b63632b960391b604082015260600190565b602080825260169082015275119858dd1a5bdb88191bd95cc81b9bdd08195e1a5cdd60521b604082015260600190565b60208082526012908201527150726573616c65206e6f742061637469766560701b604082015260600190565b6020808252601e908201527f517565727920666f72206e6f6e6578697374656e7420746f6b656e2069640000604082015260600190565b60208082526022908201527f45434453413a20696e76616c6964207369676e6174757265202773272076616c604082015261756560f01b606082015260800190565b6020808252602c908201527f4552433732313a206f70657261746f7220717565727920666f72206e6f6e657860408201526b34b9ba32b73a103a37b5b2b760a11b606082015260800190565b6020808252600f908201526e53616c65206e6f742061637469766560881b604082015260600190565b60208082526038908201527f4552433732313a20617070726f76652063616c6c6572206973206e6f74206f776040820152771b995c881b9bdc88185c1c1c9bdd995908199bdc88185b1b60421b606082015260800190565b60208082526027908201527f5065726d697373696f6e20746f2063616c6c20746869732066756e6374696f6e6040820152660819985a5b195960ca1b606082015260800190565b6020808252602a908201527f4552433732313a2062616c616e636520717565727920666f7220746865207a65604082015269726f206164647265737360b01b606082015260800190565b60208082526029908201527f4552433732313a206f776e657220717565727920666f72206e6f6e657869737460408201526832b73a103a37b5b2b760b91b606082015260800190565b60208082526022908201527f45434453413a20696e76616c6964207369676e6174757265202776272076616c604082015261756560f01b606082015260800190565b6020808252818101527f4552433732313a206d696e7420746f20746865207a65726f2061646472657373604082015260600190565b6020808252602c908201527f4552433732313a20617070726f76656420717565727920666f72206e6f6e657860408201526b34b9ba32b73a103a37b5b2b760a11b606082015260800190565b6020808252818101527f4f776e61626c653a2063616c6c6572206973206e6f7420746865206f776e6572604082015260600190565b60208082526028908201527f4554482073656e7420646f6573206e6f74206d61746368207265717569726564604082015267081c185e5b595b9d60c21b606082015260800190565b60208082526021908201527f416c726561647920636c61696d656420776974682074686973206164647265736040820152607360f81b606082015260800190565b60208082526014908201527324b73b30b634b21036b2b935b63290383937b7b360611b604082015260600190565b60208082526029908201527f4552433732313a207472616e73666572206f6620746f6b656e2074686174206960408201526839903737ba1037bbb760b91b606082015260800190565b6020808252602f908201527f4552433732314d657461646174613a2055524920717565727920666f72206e6f60408201526e3732bc34b9ba32b73a103a37b5b2b760891b606082015260800190565b60208082526021908201527f4552433732313a20617070726f76616c20746f2063757272656e74206f776e656040820152603960f91b606082015260800190565b602080825260149082015273119858dd1a5bdb881a5cc81b9bdd081d985b1a5960621b604082015260600190565b60208082526031908201527f4552433732313a207472616e736665722063616c6c6572206973206e6f74206f6040820152701ddb995c881b9bdc88185c1c1c9bdd9959607a1b606082015260800190565b6020808252602c908201527f455243373231456e756d657261626c653a20676c6f62616c20696e646578206f60408201526b7574206f6620626f756e647360a01b606082015260800190565b6020808252601f908201527f5265656e7472616e637947756172643a207265656e7472616e742063616c6c00604082015260600190565b6020808252601390820152722737b731b29030b63932b0b23c903ab9b2b21760691b604082015260600190565b6040518181016001600160401b03811182821017156137f3576137f3613942565b604052919050565b60006001600160401b0382111561381457613814613942565b5060209081020190565b6000821982111561383157613831613916565b500190565b6000826138455761384561392c565b500490565b600081600019048311821515161561386457613864613916565b500290565b60008282101561387b5761387b613916565b500390565b60005b8381101561389b578181015183820152602001613883565b83811115610c915750506000910152565b6002810460018216806138c057607f821691505b602082108114156138e157634e487b7160e01b600052602260045260246000fd5b50919050565b60006000198214156138fb576138fb613916565b5060010190565b6000826139115761391161392c565b500690565b634e487b7160e01b600052601160045260246000fd5b634e487b7160e01b600052601260045260246000fd5b634e487b7160e01b600052604160045260246000fd5b6001600160e01b0319811681146116d357600080fdfeddf252ad1be2c89b69c2b068fc378daa952ba7f163c4a11628f55a4df523b3efa26469706673582212202be69d6ad00179b3196b353c8c8494fb9a6257007ee4301b2422fb80ddb018c864736f6c63430008000033",
  "immutableReferences": {
    "76": [
      {
        "length": 32,
        "start": 5699
      },
      {
        "length": 32,
        "start": 6940
      }
    ]
  },
  "source": "// SPDX-License-Identifier: MIT\npragma solidity ^0.8.0;\n\nimport \"@openzeppelin/contracts/utils/cryptography/ECDSA.sol\";\nimport \"@openzeppelin/contracts/utils/Strings.sol\";\nimport \"@openzeppelin/contracts/access/Ownable.sol\";\nimport \"@openzeppelin/contracts/security/ReentrancyGuard.sol\";\nimport \"@openzeppelin/contracts/token/ERC721/extensions/ERC721Enumerable.sol\";\nimport \"@openzeppelin/contracts/utils/cryptography/MerkleProof.sol\";\n\n/**\n * @title Token contract for Legends of Venari Alpha Passes\n * @dev This contract allows the distribution of\n * Legends of Venari Passes in the form of a presale and main sale.\n *\n * Users can mint from Talaw, Vestal, or Azule in either sales.\n *\n *\n * Smart contract work done by lenopix.eth\n */\ncontract LegendsOfVenariPass is\n  ERC721Enumerable,\n  Ownable,\n  ReentrancyGuard\n{\n  using ECDSA for bytes32;\n  using Address for address;\n\n  event Mint(\n    address indexed to,\n    uint256 indexed tokenId,\n    uint256 indexed factionId\n  );\n\n  // Faction Ids\n  uint256 public constant TALAW_ID = 0;\n  uint256 public constant VESTAL_ID = 1;\n  uint256 public constant AZULE_ID = 2;\n\n  // Minting constants\n  uint256 public maxMintPerTransaction;\n  uint256 public MINT_SUPPLY_PER_FACTION;\n  uint256 public TEAM_SUPPLY_PER_FACTION;\n\n  // 0.001 ETH\n  uint256 public constant MINT_PRICE = 188000000000000000;\n\n  // Keep track of supply\n  uint256 public talawMintCount = 0;\n  uint256 public vestalMintCount = 0;\n  uint256 public azuleMintCount = 0;\n\n  // Sale toggles\n  bool private _isPresaleActive = false;\n  bool private _isSaleActive = false;\n\n  // Tracks the faction for a token\n  mapping(uint256 => uint256) factionForToken;\n\n  // Presale\n  mapping(address => bool) private presaleClaimed; // Everyone who got in on the presale can only claim once.\n  address private signVerifier = 0xf79e8a0d24cF91EE36c8a7e7dB8Aa95fbF7d6a8f;\n\n  // Base URI\n  string private _uri;\n\n  // Merkle Root\n  bytes32 immutable public root;\n\n  uint256 lastTokenId = 0;\n\n  constructor(\n    uint256 mintSupply,\n    uint256 teamSupply,\n    uint256 maxMint,\n    bytes32 merkleroot\n  ) ERC721(\"Legends of Venari Pass\", \"LVP\") {\n    MINT_SUPPLY_PER_FACTION = mintSupply;\n    TEAM_SUPPLY_PER_FACTION = teamSupply;\n    maxMintPerTransaction = maxMint;\n    root = merkleroot;\n  }\n\n  // @dev Returns the faction of the token id\n  function getFaction(uint256 tokenId) external view returns (uint256) {\n    require(_exists(tokenId), \"Query for nonexistent token id\");\n    return factionForToken[tokenId];\n  }\n\n  // @dev Returns whether a user has claimed from presale\n  function getPresaleClaimed(address user) external view returns (bool) {\n    return presaleClaimed[user];\n  }\n\n  // @dev Returns the enabled/disabled status for presale\n  function getPreSaleState() external view returns (bool) {\n    return _isPresaleActive;\n  }\n\n  // @dev Returns the enabled/disabled status for minting\n  function getSaleState() external view returns (bool) {\n    return _isSaleActive;\n  }\n\n  // @dev Returns the mint count of a specific faction\n  function getMintCount(uint256 factionId) external view returns (uint256) {\n    require(_isValidFactionId(factionId), \"Faction is not valid\");\n\n    if (factionId == TALAW_ID) {\n      return talawMintCount;\n    } else if (factionId == VESTAL_ID) {\n      return vestalMintCount;\n    } else if (factionId == AZULE_ID) {\n      return azuleMintCount;\n    }\n    return 0;\n  }\n\n  // @dev Allows to set the baseURI dynamically\n  // @param uri The base uri for the metadata store\n  function setBaseURI(string memory uri) external onlyOwner {\n    _uri = uri;\n  }\n\n  // @dev Sets a new signature verifier\n  function setSignVerifier(address verifier) external onlyOwner {\n    signVerifier = verifier;\n  }\n\n  // @dev Dynamically set the max mints a user can do in the main sale\n  function setMaxMintPerTransaction(uint256 maxMint) external onlyOwner {\n    maxMintPerTransaction = maxMint;\n  }\n\n  // Presale\n  function presaleMint(\n    uint256 tokenId,\n    bytes32[] calldata proof,\n    uint256 factionId\n  ) external payable {\n    require(_verify(_leaf(msg.sender, tokenId), proof), \"Invalid merkle proof\");\n    require(!presaleClaimed[msg.sender], \"Already claimed with this address\");\n    require(_isPresaleActive, \"Presale not active\");\n    require(!_isSaleActive, \"Cannot mint while main sale is active\");\n    require(_isValidFactionId(factionId), \"Faction is not valid\");\n    require(MINT_PRICE == msg.value, \"ETH sent does not match required payment\");\n    presaleClaimed[msg.sender] = true;\n\n    _handleFactionMint(1, factionId, msg.sender, MINT_SUPPLY_PER_FACTION);\n  }\n\n  function _leaf(address account, uint256 tokenId) internal pure returns (bytes32) {\n    return keccak256(abi.encodePacked(tokenId, account));\n  }\n\n  function _verify(bytes32 leaf, bytes32[] memory proof) internal view returns (bool) {\n    return MerkleProof.verify(proof, root, leaf);\n  }\n\n  mapping(uint256 => bool) partnerNonceUsed;\n  mapping(address => uint256) basePassNonce;\n\n  // @dev Partner Mint - For partners who we allow to batch mint\n  // @param factionIds The factions associated with the tokens\n  // @param addresses The addresses that the tokens will be distributed to\n  // @param sig Server side signature authorizing user to use the presale\n  function partnerMint(\n    uint256[] memory factionIds,\n    address[] memory addresses,\n    uint256 nonce,\n    bytes memory sig\n  ) external payable nonReentrant {\n    require(_isPresaleActive, \"Presale not active\");\n    require(\n      (MINT_PRICE * factionIds.length) == msg.value,\n      \"ETH sent does not match required payment\"\n    );\n    require(factionIds.length == addresses.length, \"Faction ids much have the same length as addresses\");\n    require(!partnerNonceUsed[nonce], \"Nonce already used.\");\n\n    // Verify signature\n    bytes32 message = getPartnerSigningHash(\n      msg.sender,\n      factionIds,\n      addresses,\n      nonce\n    ).toEthSignedMessageHash();\n    require(\n      ECDSA.recover(message, sig) == signVerifier,\n      \"Permission to call this function failed\"\n    );\n\n    partnerNonceUsed[nonce] = true;\n\n    // Mint\n    for (uint256 i = 0; i < factionIds.length; i++) {\n        uint256 factionId = factionIds[i];\n        require(_isValidFactionId(factionId), \"Faction is not valid\");\n        _handleFactionMint(1, factionId, addresses[i], MINT_SUPPLY_PER_FACTION);\n    }\n  }\n\n  // @dev Main sale mint\n  // @param tokensCount The tokens a user wants to purchase\n  // @param factionId Talaw: 0, Vestal: 1, Azule: 2\n  function mint(uint256 tokenCount, uint256 factionId)\n    external\n    payable\n    nonReentrant\n  {\n    require(_isValidFactionId(factionId), \"Faction is not valid\");\n    require(_isSaleActive, \"Sale not active\");\n    require(tokenCount > 0, \"Must mint at least 1 token\");\n    require(tokenCount <= maxMintPerTransaction, \"Token count exceeds limit\");\n    require(\n      (MINT_PRICE * tokenCount) == msg.value,\n      \"ETH sent does not match required payment\"\n    );\n\n      _handleFactionMint(tokenCount, factionId, msg.sender, MINT_SUPPLY_PER_FACTION);\n  }\n\n  // @dev Private mint function reserved for company.\n  // THIS SHOULD ONLY BE DONE AFTER THE MAIN SALE HAS FINISHED\n  // 50 of each faction is reserved.\n  // @param recipient The user receiving the tokens\n  // @param tokenCount The number of tokens to distribute\n  // @param factionId Talaw: 0, Vestal: 1, Azule: 2\n  function mintToAddress(\n    address[] memory addresses,\n    uint256[] memory factionIds\n  ) external onlyOwner {\n    require(factionIds.length == addresses.length, \"Faction ids much have the same length as addresses\");\n\n    // Mint\n    for (uint256 i = 0; i < factionIds.length; i++) {\n        uint256 factionId = factionIds[i];\n        require(_isValidFactionId(factionId), \"Faction is not valid\");\n        _handleFactionMint(1, factionId, addresses[i], MINT_SUPPLY_PER_FACTION + TEAM_SUPPLY_PER_FACTION);\n    }\n  }\n\n  function redeemBasePass(\n    uint256 factionId,\n    bytes memory sig\n  ) external {\n    require(_isValidFactionId(factionId), \"Faction does not exist\");\n\n    // Verify signature\n    bytes32 message = getBasePassSigningHash(\n      msg.sender,\n      factionId\n    ).toEthSignedMessageHash();\n    require(\n      ECDSA.recover(message, sig) == signVerifier,\n      \"Permission to call this function failed\"\n    );\n\n    basePassNonce[msg.sender]++;\n\n    if (factionId == TALAW_ID) {\n      talawMintCount++;\n    } else if (factionId == VESTAL_ID) {\n      vestalMintCount++;\n    } else if (factionId == AZULE_ID) {\n      azuleMintCount++;\n    }\n\n    _mint(msg.sender, 1, factionId);\n  }\n\n  // @dev Allows to enable/disable minting of presale\n  function flipPresaleState() external onlyOwner {\n    _isPresaleActive = !_isPresaleActive;\n  }\n\n  // @dev Allows to enable/disable minting of main sale\n  function flipSaleState() external onlyOwner {\n    _isSaleActive = !_isSaleActive;\n  }\n\n  function withdraw() external onlyOwner {\n    uint256 balance = address(this).balance;\n    payable(msg.sender).transfer(balance);\n  }\n\n  function getPartnerSigningHash(\n    address sender,\n    uint256[] memory factionIds,\n    address[] memory addresses,\n    uint256 nonce\n  ) public pure returns (bytes32) {\n    return\n      keccak256(\n        abi.encodePacked(sender, factionIds, addresses, nonce)\n      );\n  }\n\n  function getBasePassSigningHash(\n    address sender,\n    uint256 factionId\n  ) public view returns (bytes32) {\n    return \n      keccak256(\n        abi.encodePacked(sender, factionId, basePassNonce[sender])\n      );\n  }\n\n  function _baseURI() internal view override returns (string memory) {\n    return _uri;\n  }\n\n  function _handleFactionMint(\n    uint256 tokenCount,\n    uint256 factionId,\n    address recipient,\n    uint256 totalSupply\n  ) private {\n    if (factionId == TALAW_ID) {\n      require(talawMintCount < totalSupply, \"This faction has been fully minted\");\n      require((talawMintCount + tokenCount) <= totalSupply, \"Cannot purchase more than the available supply\");\n      talawMintCount += tokenCount;\n    } else if (factionId == VESTAL_ID) {\n      require(vestalMintCount < totalSupply, \"This faction has been fully minted\");\n      require((vestalMintCount + tokenCount) <= totalSupply, \"Cannot purchase more than the available supply\");\n      vestalMintCount += tokenCount;\n    } else if (factionId == AZULE_ID) {\n      require(azuleMintCount < totalSupply, \"This faction has been fully minted\");\n      require((azuleMintCount + tokenCount) <= totalSupply, \"Cannot purchase more than the available supply\");\n      azuleMintCount += tokenCount;\n    }\n\n    _mint(recipient, tokenCount, factionId);\n  }\n\n  function _mint(\n    address recipient,\n    uint256 tokenCount,\n    uint256 factionId\n  ) private {\n    for (uint256 i = 0; i < tokenCount; i++) {\n      uint256 tokenId = lastTokenId + i;\n      _mintWithTokenId(recipient, tokenId, factionId);\n    }\n    lastTokenId += tokenCount;\n  }\n\n  function _mintWithTokenId(\n    address recipient,\n    uint256 tokenId,\n    uint256 factionId\n  ) private {\n      factionForToken[tokenId] = factionId;\n      emit Mint(recipient, tokenId, factionId);\n      _safeMint(recipient, tokenId);\n  }\n\n\n  function _isValidFactionId(uint256 factionId) private pure returns (bool) {\n    return factionId == TALAW_ID || factionId == AZULE_ID || factionId == VESTAL_ID;\n  }\n}\n",
  "sourcePath": "/Users/jingsongdu/Documents/lov-smart-contracts/contracts/LegendsOfVenariPass.sol",
  "compiler": {
    "name": "solc",
    "version": "0.8.0+commit.c7dfd78e.Emscripten.clang"
  },
  "schemaVersion": "3.3.4",
  "updatedAt": "2021-10-23T17:49:44.623Z",
  "networkType": "ethereum",
  "devdoc": {
    "details": "This contract allows the distribution of Legends of Venari Passes in the form of a presale and main sale. Users can mint from Talaw, Vestal, or Azule in either sales. Smart contract work done by lenopix.eth",
    "kind": "dev",
    "methods": {
      "approve(address,uint256)": {
        "details": "See {IERC721-approve}."
      },
      "balanceOf(address)": {
        "details": "See {IERC721-balanceOf}."
      },
      "getApproved(uint256)": {
        "details": "See {IERC721-getApproved}."
      },
      "isApprovedForAll(address,address)": {
        "details": "See {IERC721-isApprovedForAll}."
      },
      "name()": {
        "details": "See {IERC721Metadata-name}."
      },
      "owner()": {
        "details": "Returns the address of the current owner."
      },
      "ownerOf(uint256)": {
        "details": "See {IERC721-ownerOf}."
      },
      "renounceOwnership()": {
        "details": "Leaves the contract without owner. It will not be possible to call `onlyOwner` functions anymore. Can only be called by the current owner. NOTE: Renouncing ownership will leave the contract without an owner, thereby removing any functionality that is only available to the owner."
      },
      "safeTransferFrom(address,address,uint256)": {
        "details": "See {IERC721-safeTransferFrom}."
      },
      "safeTransferFrom(address,address,uint256,bytes)": {
        "details": "See {IERC721-safeTransferFrom}."
      },
      "setApprovalForAll(address,bool)": {
        "details": "See {IERC721-setApprovalForAll}."
      },
      "supportsInterface(bytes4)": {
        "details": "See {IERC165-supportsInterface}."
      },
      "symbol()": {
        "details": "See {IERC721Metadata-symbol}."
      },
      "tokenByIndex(uint256)": {
        "details": "See {IERC721Enumerable-tokenByIndex}."
      },
      "tokenOfOwnerByIndex(address,uint256)": {
        "details": "See {IERC721Enumerable-tokenOfOwnerByIndex}."
      },
      "tokenURI(uint256)": {
        "details": "See {IERC721Metadata-tokenURI}."
      },
      "totalSupply()": {
        "details": "See {IERC721Enumerable-totalSupply}."
      },
      "transferFrom(address,address,uint256)": {
        "details": "See {IERC721-transferFrom}."
      },
      "transferOwnership(address)": {
        "details": "Transfers ownership of the contract to a new account (`newOwner`). Can only be called by the current owner."
      }
    },
    "title": "Token contract for Legends of Venari Alpha Passes",
    "version": 1
  },
  "userdoc": {
    "kind": "user",
    "methods": {},
    "version": 1
  }
}