{
  "contractName": "LegendsOfVenariAlphaPass",
  "abi": [
    {
      "inputs": [
        {
          "internalType": "uint256",
          "name": "mintSupply",
          "type": "uint256"
        },
        {
          "internalType": "uint256",
          "name": "teamSupply",
          "type": "uint256"
        },
        {
          "internalType": "uint256",
          "name": "maxMint",
          "type": "uint256"
        },
        {
          "internalType": "bytes32",
          "name": "merkleroot",
          "type": "bytes32"
        }
      ],
      "stateMutability": "nonpayable",
      "type": "constructor"
    },
    {
      "anonymous": false,
      "inputs": [
        {
          "indexed": true,
          "internalType": "address",
          "name": "owner",
          "type": "address"
        },
        {
          "indexed": true,
          "internalType": "address",
          "name": "approved",
          "type": "address"
        },
        {
          "indexed": true,
          "internalType": "uint256",
          "name": "tokenId",
          "type": "uint256"
        }
      ],
      "name": "Approval",
      "type": "event"
    },
    {
      "anonymous": false,
      "inputs": [
        {
          "indexed": true,
          "internalType": "address",
          "name": "owner",
          "type": "address"
        },
        {
          "indexed": true,
          "internalType": "address",
          "name": "operator",
          "type": "address"
        },
        {
          "indexed": false,
          "internalType": "bool",
          "name": "approved",
          "type": "bool"
        }
      ],
      "name": "ApprovalForAll",
      "type": "event"
    },
    {
      "anonymous": false,
      "inputs": [
        {
          "indexed": true,
          "internalType": "address",
          "name": "to",
          "type": "address"
        },
        {
          "indexed": true,
          "internalType": "uint256",
          "name": "tokenId",
          "type": "uint256"
        },
        {
          "indexed": true,
          "internalType": "uint256",
          "name": "factionId",
          "type": "uint256"
        }
      ],
      "name": "Mint",
      "type": "event"
    },
    {
      "anonymous": false,
      "inputs": [
        {
          "indexed": true,
          "internalType": "address",
          "name": "previousOwner",
          "type": "address"
        },
        {
          "indexed": true,
          "internalType": "address",
          "name": "newOwner",
          "type": "address"
        }
      ],
      "name": "OwnershipTransferred",
      "type": "event"
    },
    {
      "anonymous": false,
      "inputs": [
        {
          "indexed": true,
          "internalType": "address",
          "name": "from",
          "type": "address"
        },
        {
          "indexed": true,
          "internalType": "address",
          "name": "to",
          "type": "address"
        },
        {
          "indexed": true,
          "internalType": "uint256",
          "name": "tokenId",
          "type": "uint256"
        }
      ],
      "name": "Transfer",
      "type": "event"
    },
    {
      "inputs": [],
      "name": "AZULE_ID",
      "outputs": [
        {
          "internalType": "uint256",
          "name": "",
          "type": "uint256"
        }
      ],
      "stateMutability": "view",
      "type": "function",
      "constant": true
    },
    {
      "inputs": [],
      "name": "MINT_PRICE",
      "outputs": [
        {
          "internalType": "uint256",
          "name": "",
          "type": "uint256"
        }
      ],
      "stateMutability": "view",
      "type": "function",
      "constant": true
    },
    {
      "inputs": [],
      "name": "MINT_SUPPLY_PER_FACTION",
      "outputs": [
        {
          "internalType": "uint256",
          "name": "",
          "type": "uint256"
        }
      ],
      "stateMutability": "view",
      "type": "function",
      "constant": true
    },
    {
      "inputs": [],
      "name": "TALAW_ID",
      "outputs": [
        {
          "internalType": "uint256",
          "name": "",
          "type": "uint256"
        }
      ],
      "stateMutability": "view",
      "type": "function",
      "constant": true
    },
    {
      "inputs": [],
      "name": "TEAM_SUPPLY_PER_FACTION",
      "outputs": [
        {
          "internalType": "uint256",
          "name": "",
          "type": "uint256"
        }
      ],
      "stateMutability": "view",
      "type": "function",
      "constant": true
    },
    {
      "inputs": [],
      "name": "VESTAL_ID",
      "outputs": [
        {
          "internalType": "uint256",
          "name": "",
          "type": "uint256"
        }
      ],
      "stateMutability": "view",
      "type": "function",
      "constant": true
    },
    {
      "inputs": [
        {
          "internalType": "address",
          "name": "to",
          "type": "address"
        },
        {
          "internalType": "uint256",
          "name": "tokenId",
          "type": "uint256"
        }
      ],
      "name": "approve",
      "outputs": [],
      "stateMutability": "nonpayable",
      "type": "function"
    },
    {
      "inputs": [],
      "name": "azuleMintCount",
      "outputs": [
        {
          "internalType": "uint256",
          "name": "",
          "type": "uint256"
        }
      ],
      "stateMutability": "view",
      "type": "function",
      "constant": true
    },
    {
      "inputs": [
        {
          "internalType": "address",
          "name": "owner",
          "type": "address"
        }
      ],
      "name": "balanceOf",
      "outputs": [
        {
          "internalType": "uint256",
          "name": "",
          "type": "uint256"
        }
      ],
      "stateMutability": "view",
      "type": "function",
      "constant": true
    },
    {
      "inputs": [
        {
          "internalType": "uint256",
          "name": "tokenId",
          "type": "uint256"
        }
      ],
      "name": "getApproved",
      "outputs": [
        {
          "internalType": "address",
          "name": "",
          "type": "address"
        }
      ],
      "stateMutability": "view",
      "type": "function",
      "constant": true
    },
    {
      "inputs": [
        {
          "internalType": "address",
          "name": "owner",
          "type": "address"
        },
        {
          "internalType": "address",
          "name": "operator",
          "type": "address"
        }
      ],
      "name": "isApprovedForAll",
      "outputs": [
        {
          "internalType": "bool",
          "name": "",
          "type": "bool"
        }
      ],
      "stateMutability": "view",
      "type": "function",
      "constant": true
    },
    {
      "inputs": [],
      "name": "maxMintPerTransaction",
      "outputs": [
        {
          "internalType": "uint256",
          "name": "",
          "type": "uint256"
        }
      ],
      "stateMutability": "view",
      "type": "function",
      "constant": true
    },
    {
      "inputs": [],
      "name": "name",
      "outputs": [
        {
          "internalType": "string",
          "name": "",
          "type": "string"
        }
      ],
      "stateMutability": "view",
      "type": "function",
      "constant": true
    },
    {
      "inputs": [],
      "name": "owner",
      "outputs": [
        {
          "internalType": "address",
          "name": "",
          "type": "address"
        }
      ],
      "stateMutability": "view",
      "type": "function",
      "constant": true
    },
    {
      "inputs": [
        {
          "internalType": "uint256",
          "name": "tokenId",
          "type": "uint256"
        }
      ],
      "name": "ownerOf",
      "outputs": [
        {
          "internalType": "address",
          "name": "",
          "type": "address"
        }
      ],
      "stateMutability": "view",
      "type": "function",
      "constant": true
    },
    {
      "inputs": [],
      "name": "renounceOwnership",
      "outputs": [],
      "stateMutability": "nonpayable",
      "type": "function"
    },
    {
      "inputs": [],
      "name": "root",
      "outputs": [
        {
          "internalType": "bytes32",
          "name": "",
          "type": "bytes32"
        }
      ],
      "stateMutability": "view",
      "type": "function",
      "constant": true
    },
    {
      "inputs": [
        {
          "internalType": "address",
          "name": "from",
          "type": "address"
        },
        {
          "internalType": "address",
          "name": "to",
          "type": "address"
        },
        {
          "internalType": "uint256",
          "name": "tokenId",
          "type": "uint256"
        }
      ],
      "name": "safeTransferFrom",
      "outputs": [],
      "stateMutability": "nonpayable",
      "type": "function"
    },
    {
      "inputs": [
        {
          "internalType": "address",
          "name": "from",
          "type": "address"
        },
        {
          "internalType": "address",
          "name": "to",
          "type": "address"
        },
        {
          "internalType": "uint256",
          "name": "tokenId",
          "type": "uint256"
        },
        {
          "internalType": "bytes",
          "name": "_data",
          "type": "bytes"
        }
      ],
      "name": "safeTransferFrom",
      "outputs": [],
      "stateMutability": "nonpayable",
      "type": "function"
    },
    {
      "inputs": [
        {
          "internalType": "address",
          "name": "operator",
          "type": "address"
        },
        {
          "internalType": "bool",
          "name": "approved",
          "type": "bool"
        }
      ],
      "name": "setApprovalForAll",
      "outputs": [],
      "stateMutability": "nonpayable",
      "type": "function"
    },
    {
      "inputs": [
        {
          "internalType": "bytes4",
          "name": "interfaceId",
          "type": "bytes4"
        }
      ],
      "name": "supportsInterface",
      "outputs": [
        {
          "internalType": "bool",
          "name": "",
          "type": "bool"
        }
      ],
      "stateMutability": "view",
      "type": "function",
      "constant": true
    },
    {
      "inputs": [],
      "name": "symbol",
      "outputs": [
        {
          "internalType": "string",
          "name": "",
          "type": "string"
        }
      ],
      "stateMutability": "view",
      "type": "function",
      "constant": true
    },
    {
      "inputs": [],
      "name": "talawMintCount",
      "outputs": [
        {
          "internalType": "uint256",
          "name": "",
          "type": "uint256"
        }
      ],
      "stateMutability": "view",
      "type": "function",
      "constant": true
    },
    {
      "inputs": [
        {
          "internalType": "uint256",
          "name": "index",
          "type": "uint256"
        }
      ],
      "name": "tokenByIndex",
      "outputs": [
        {
          "internalType": "uint256",
          "name": "",
          "type": "uint256"
        }
      ],
      "stateMutability": "view",
      "type": "function",
      "constant": true
    },
    {
      "inputs": [
        {
          "internalType": "address",
          "name": "owner",
          "type": "address"
        },
        {
          "internalType": "uint256",
          "name": "index",
          "type": "uint256"
        }
      ],
      "name": "tokenOfOwnerByIndex",
      "outputs": [
        {
          "internalType": "uint256",
          "name": "",
          "type": "uint256"
        }
      ],
      "stateMutability": "view",
      "type": "function",
      "constant": true
    },
    {
      "inputs": [
        {
          "internalType": "uint256",
          "name": "tokenId",
          "type": "uint256"
        }
      ],
      "name": "tokenURI",
      "outputs": [
        {
          "internalType": "string",
          "name": "",
          "type": "string"
        }
      ],
      "stateMutability": "view",
      "type": "function",
      "constant": true
    },
    {
      "inputs": [],
      "name": "totalSupply",
      "outputs": [
        {
          "internalType": "uint256",
          "name": "",
          "type": "uint256"
        }
      ],
      "stateMutability": "view",
      "type": "function",
      "constant": true
    },
    {
      "inputs": [
        {
          "internalType": "address",
          "name": "from",
          "type": "address"
        },
        {
          "internalType": "address",
          "name": "to",
          "type": "address"
        },
        {
          "internalType": "uint256",
          "name": "tokenId",
          "type": "uint256"
        }
      ],
      "name": "transferFrom",
      "outputs": [],
      "stateMutability": "nonpayable",
      "type": "function"
    },
    {
      "inputs": [
        {
          "internalType": "address",
          "name": "newOwner",
          "type": "address"
        }
      ],
      "name": "transferOwnership",
      "outputs": [],
      "stateMutability": "nonpayable",
      "type": "function"
    },
    {
      "inputs": [],
      "name": "vestalMintCount",
      "outputs": [
        {
          "internalType": "uint256",
          "name": "",
          "type": "uint256"
        }
      ],
      "stateMutability": "view",
      "type": "function",
      "constant": true
    },
    {
      "inputs": [
        {
          "internalType": "uint256",
          "name": "tokenId",
          "type": "uint256"
        }
      ],
      "name": "getFaction",
      "outputs": [
        {
          "internalType": "uint256",
          "name": "",
          "type": "uint256"
        }
      ],
      "stateMutability": "view",
      "type": "function",
      "constant": true
    },
    {
      "inputs": [
        {
          "internalType": "address",
          "name": "user",
          "type": "address"
        }
      ],
      "name": "getPresaleClaimed",
      "outputs": [
        {
          "internalType": "bool",
          "name": "",
          "type": "bool"
        }
      ],
      "stateMutability": "view",
      "type": "function",
      "constant": true
    },
    {
      "inputs": [],
      "name": "getPreSaleState",
      "outputs": [
        {
          "internalType": "bool",
          "name": "",
          "type": "bool"
        }
      ],
      "stateMutability": "view",
      "type": "function",
      "constant": true
    },
    {
      "inputs": [],
      "name": "getSaleState",
      "outputs": [
        {
          "internalType": "bool",
          "name": "",
          "type": "bool"
        }
      ],
      "stateMutability": "view",
      "type": "function",
      "constant": true
    },
    {
      "inputs": [
        {
          "internalType": "uint256",
          "name": "factionId",
          "type": "uint256"
        }
      ],
      "name": "getMintCount",
      "outputs": [
        {
          "internalType": "uint256",
          "name": "",
          "type": "uint256"
        }
      ],
      "stateMutability": "view",
      "type": "function",
      "constant": true
    },
    {
      "inputs": [
        {
          "internalType": "string",
          "name": "uri",
          "type": "string"
        }
      ],
      "name": "setBaseURI",
      "outputs": [],
      "stateMutability": "nonpayable",
      "type": "function"
    },
    {
      "inputs": [
        {
          "internalType": "address",
          "name": "verifier",
          "type": "address"
        }
      ],
      "name": "setSignVerifier",
      "outputs": [],
      "stateMutability": "nonpayable",
      "type": "function"
    },
    {
      "inputs": [
        {
          "internalType": "uint256",
          "name": "maxMint",
          "type": "uint256"
        }
      ],
      "name": "setMaxMintPerTransaction",
      "outputs": [],
      "stateMutability": "nonpayable",
      "type": "function"
    },
    {
      "inputs": [
        {
          "internalType": "uint256",
          "name": "tokenId",
          "type": "uint256"
        },
        {
          "internalType": "bytes32[]",
          "name": "proof",
          "type": "bytes32[]"
        },
        {
          "internalType": "uint256",
          "name": "factionId",
          "type": "uint256"
        }
      ],
      "name": "presaleMint",
      "outputs": [],
      "stateMutability": "payable",
      "type": "function",
      "payable": true
    },
    {
      "inputs": [
        {
          "internalType": "uint256[]",
          "name": "factionIds",
          "type": "uint256[]"
        },
        {
          "internalType": "uint256",
          "name": "nonce",
          "type": "uint256"
        },
        {
          "internalType": "bytes",
          "name": "sig",
          "type": "bytes"
        }
      ],
      "name": "partnerMint",
      "outputs": [],
      "stateMutability": "payable",
      "type": "function",
      "payable": true
    },
    {
      "inputs": [
        {
          "internalType": "uint256",
          "name": "tokenCount",
          "type": "uint256"
        },
        {
          "internalType": "uint256",
          "name": "factionId",
          "type": "uint256"
        }
      ],
      "name": "mint",
      "outputs": [],
      "stateMutability": "payable",
      "type": "function",
      "payable": true
    },
    {
      "inputs": [
        {
          "internalType": "address[]",
          "name": "addresses",
          "type": "address[]"
        },
        {
          "internalType": "uint256[]",
          "name": "factionIds",
          "type": "uint256[]"
        }
      ],
      "name": "mintToAddress",
      "outputs": [],
      "stateMutability": "nonpayable",
      "type": "function"
    },
    {
      "inputs": [
        {
          "internalType": "uint256",
          "name": "factionId",
          "type": "uint256"
        },
        {
          "internalType": "bytes",
          "name": "sig",
          "type": "bytes"
        }
      ],
      "name": "redeemBasePass",
      "outputs": [],
      "stateMutability": "nonpayable",
      "type": "function"
    },
    {
      "inputs": [],
      "name": "flipPresaleState",
      "outputs": [],
      "stateMutability": "nonpayable",
      "type": "function"
    },
    {
      "inputs": [],
      "name": "flipSaleState",
      "outputs": [],
      "stateMutability": "nonpayable",
      "type": "function"
    },
    {
      "inputs": [],
      "name": "withdraw",
      "outputs": [],
      "stateMutability": "nonpayable",
      "type": "function"
    },
    {
      "inputs": [
        {
          "internalType": "address",
          "name": "sender",
          "type": "address"
        },
        {
          "internalType": "uint256[]",
          "name": "factionIds",
          "type": "uint256[]"
        },
        {
          "internalType": "uint256",
          "name": "nonce",
          "type": "uint256"
        }
      ],
      "name": "getPartnerSigningHash",
      "outputs": [
        {
          "internalType": "bytes32",
          "name": "",
          "type": "bytes32"
        }
      ],
      "stateMutability": "pure",
      "type": "function",
      "constant": true
    },
    {
      "inputs": [
        {
          "internalType": "address",
          "name": "sender",
          "type": "address"
        },
        {
          "internalType": "uint256",
          "name": "factionId",
          "type": "uint256"
        }
      ],
      "name": "getBasePassSigningHash",
      "outputs": [
        {
          "internalType": "bytes32",
          "name": "",
          "type": "bytes32"
        }
      ],
      "stateMutability": "view",
      "type": "function",
      "constant": true
    }
  ],
  "bytecode": "0x60a06040526000600f81905560108190556011556012805461ffff19169055601580546001600160a01b03191673f79e8a0d24cf91ee36c8a7e7db8aa95fbf7d6a8f1790556102586017553480156200005757600080fd5b5060405162003bcb38038062003bcb8339810160408190526200007a9162000226565b604080518082018252601c81527f4c6567656e6473206f662056656e61726920416c70686120506173730000000060208083019182528351808501909452600384526204c56560ec1b908401528151919291620000da9160009162000180565b508051620000f090600190602084019062000180565b5050506200010d620001076200012a60201b60201c565b6200012e565b6001600b55600d93909355600e91909155600c5560805262000299565b3390565b600a80546001600160a01b038381166001600160a01b0319831681179093556040519116919082907f8be0079c531659141344cd1fd0a4f28419497f9722a3daafe3b4186f6b6457e090600090a35050565b8280546200018e906200025c565b90600052602060002090601f016020900481019282620001b25760008555620001fd565b82601f10620001cd57805160ff1916838001178555620001fd565b82800160010185558215620001fd579182015b82811115620001fd578251825591602001919060010190620001e0565b506200020b9291506200020f565b5090565b5b808211156200020b576000815560010162000210565b600080600080608085870312156200023c578384fd5b505082516020840151604085015160609095015191969095509092509050565b6002810460018216806200027157607f821691505b602082108114156200029357634e487b7160e01b600052602260045260246000fd5b50919050565b60805161390f620002bc600039600081816115f50152611ad6015261390f6000f3fe6080604052600436106102235760003560e01c806301f569971461022857806301ffc9a71461025357806306fdde0314610280578063081812fc146102a2578063095ea7b3146102cf5780630d52b7ee146102f157806318160ddd146103065780631b2ef1ca1461031b5780631c6d325b1461032e5780631fb5b1e0146103435780632249a61a1461036357806323b872dd1461037857806325bdb2a8146103985780632e6cebe5146103ad5780632f745c59146103cd5780632ff5e387146103ed57806334918dfd146104005780633ccfd60b1461041557806342842e0e1461042a578063455e7cdf1461044a5780634f259bd91461045f5780634f6ccce714610474578063500b9f441461049457806351b5c0d4146104a957806351bdca2b146104bc57806354e4f1dd146104dc57806355f804b3146104f15780635ee30966146105115780636089edd1146105315780636352211e1461054657806370a0823114610566578063715018a6146105865780638da5cb5b1461059b57806395d89b41146105b05780639fac2ab3146105c5578063a22cb465146105da578063a8a150b8146105fa578063b5e47bdd1461061a578063b88d4fde1461063a578063c002d23d1461065a578063c87b56dd1461066f578063db09a3f51461068f578063e24be112146106af578063e8649f58146106cf578063e985e9c5146106ef578063ebf0c7171461070f578063f2fde38b14610724578063f81227d414610744575b600080fd5b34801561023457600080fd5b5061023d610759565b60405161024a9190612d29565b60405180910390f35b34801561025f57600080fd5b5061027361026e366004612a37565b61075f565b60405161024a9190612d1e565b34801561028c57600080fd5b5061029561078c565b60405161024a9190612d50565b3480156102ae57600080fd5b506102c26102bd366004612ab4565b61081e565b60405161024a9190612ccd565b3480156102db57600080fd5b506102ef6102ea3660046128e8565b61086a565b005b3480156102fd57600080fd5b5061023d610902565b34801561031257600080fd5b5061023d610908565b6102ef610329366004612b84565b61090e565b34801561033a57600080fd5b5061023d610a0b565b34801561034f57600080fd5b5061023d61035e3660046128e8565b610a10565b34801561036f57600080fd5b5061023d610a5c565b34801561038457600080fd5b506102ef6103933660046127ba565b610a62565b3480156103a457600080fd5b50610273610a9a565b3480156103b957600080fd5b506102ef6103c8366004612ab4565b610aa8565b3480156103d957600080fd5b5061023d6103e83660046128e8565b610aec565b6102ef6103fb366004612acc565b610b3e565b34801561040c57600080fd5b506102ef610c97565b34801561042157600080fd5b506102ef610cf3565b34801561043657600080fd5b506102ef6104453660046127ba565b610d65565b34801561045657600080fd5b5061023d610d80565b34801561046b57600080fd5b5061023d610d86565b34801561048057600080fd5b5061023d61048f366004612ab4565b610d8b565b3480156104a057600080fd5b50610273610de6565b6102ef6104b73660046129ce565b610def565b3480156104c857600080fd5b506102ef6104d7366004612b4a565b610f91565b3480156104e857600080fd5b5061023d611087565b3480156104fd57600080fd5b506102ef61050c366004612a6f565b61108c565b34801561051d57600080fd5b5061027361052c36600461276e565b6110de565b34801561053d57600080fd5b5061023d6110fc565b34801561055257600080fd5b506102c2610561366004612ab4565b611102565b34801561057257600080fd5b5061023d61058136600461276e565b611137565b34801561059257600080fd5b506102ef61117b565b3480156105a757600080fd5b506102c26111c6565b3480156105bc57600080fd5b506102956111d5565b3480156105d157600080fd5b5061023d6111e4565b3480156105e657600080fd5b506102ef6105f53660046128ae565b6111ea565b34801561060657600080fd5b5061023d610615366004612ab4565b6112b8565b34801561062657600080fd5b506102ef610635366004612911565b6112f2565b34801561064657600080fd5b506102ef6106553660046127f5565b611405565b34801561066657600080fd5b5061023d61143e565b34801561067b57600080fd5b5061029561068a366004612ab4565b61144a565b34801561069b57600080fd5b5061023d6106aa366004612ab4565b6114cd565b3480156106bb57600080fd5b5061023d6106ca36600461285a565b61152e565b3480156106db57600080fd5b506102ef6106ea36600461276e565b611564565b3480156106fb57600080fd5b5061027361070a366004612788565b6115c5565b34801561071b57600080fd5b5061023d6115f3565b34801561073057600080fd5b506102ef61073f36600461276e565b611617565b34801561075057600080fd5b506102ef611688565b600c5481565b60006001600160e01b0319821663780e9d6360e01b14806107845750610784826116db565b90505b919050565b60606000805461079b906137f7565b80601f01602080910402602001604051908101604052809291908181526020018280546107c7906137f7565b80156108145780601f106107e957610100808354040283529160200191610814565b820191906000526020600020905b8154815290600101906020018083116107f757829003601f168201915b5050505050905090565b60006108298261171b565b61084e5760405162461bcd60e51b8152600401610845906133dd565b60405180910390fd5b506000908152600460205260409020546001600160a01b031690565b600061087582611102565b9050806001600160a01b0316836001600160a01b031614156108a95760405162461bcd60e51b8152600401610845906135ad565b806001600160a01b03166108bb611738565b6001600160a01b031614806108d757506108d78161070a611738565b6108f35760405162461bcd60e51b815260040161084590613234565b6108fd838361173c565b505050565b60105481565b60085490565b6002600b5414156109315760405162461bcd60e51b8152600401610845906136b9565b6002600b5561093f816117aa565b61095b5760405162461bcd60e51b8152600401610845906135ee565b601254610100900460ff166109825760405162461bcd60e51b81526004016108459061320b565b600082116109a25760405162461bcd60e51b81526004016108459061300c565b600c548211156109c45760405162461bcd60e51b815260040161084590613040565b346109d783670186cc6acd4b0000613795565b146109f45760405162461bcd60e51b81526004016108459061345e565b610a02828233600d546117c6565b50506001600b55565b600281565b6001600160a01b0382166000908152601960209081526040808320549051610a3e9286928692909101612c20565b60405160208183030381529060405280519060200120905092915050565b600d5481565b610a73610a6d611738565b82611919565b610a8f5760405162461bcd60e51b81526004016108459061361c565b6108fd83838361199e565b601254610100900460ff1690565b610ab0611738565b6001600160a01b0316610ac16111c6565b6001600160a01b031614610ae75760405162461bcd60e51b815260040161084590613429565b600c55565b6000610af783611137565b8210610b155760405162461bcd60e51b815260040161084590612e5c565b506001600160a01b03919091166000908152600660209081526040808320938352929052205490565b610b84610b4b3386611ab9565b848480806020026020016040519081016040528093929190818152602001838360200280828437600092019190915250611ace92505050565b610ba05760405162461bcd60e51b8152600401610845906134e7565b3360009081526014602052604090205460ff1615610bd05760405162461bcd60e51b8152600401610845906134a6565b60125460ff16610bf25760405162461bcd60e51b81526004016108459061311a565b601254610100900460ff1615610c1a5760405162461bcd60e51b815260040161084590612f91565b610c23816117aa565b610c3f5760405162461bcd60e51b8152600401610845906135ee565b34670186cc6acd4b000014610c665760405162461bcd60e51b81526004016108459061345e565b336000818152601460205260409020805460ff19166001908117909155600d54610c919284916117c6565b50505050565b610c9f611738565b6001600160a01b0316610cb06111c6565b6001600160a01b031614610cd65760405162461bcd60e51b815260040161084590613429565b6012805461ff001981166101009182900460ff1615909102179055565b610cfb611738565b6001600160a01b0316610d0c6111c6565b6001600160a01b031614610d325760405162461bcd60e51b815260040161084590613429565b6040514790339082156108fc029083906000818181858888f19350505050158015610d61573d6000803e3d6000fd5b5050565b6108fd83838360405180602001604052806000815250611405565b600f5481565b600081565b6000610d95610908565b8210610db35760405162461bcd60e51b81526004016108459061366d565b60088281548110610dd457634e487b7160e01b600052603260045260246000fd5b90600052602060002001549050919050565b60125460ff1690565b6002600b541415610e125760405162461bcd60e51b8152600401610845906136b9565b6002600b5560125460ff16610e395760405162461bcd60e51b81526004016108459061311a565b348351670186cc6acd4b0000610e4f9190613795565b14610e6c5760405162461bcd60e51b81526004016108459061345e565b60008281526018602052604090205460ff1615610e9b5760405162461bcd60e51b8152600401610845906136f0565b6000610eb0610eab33868661152e565b611afb565b6015549091506001600160a01b0316610ec98284611b2b565b6001600160a01b031614610eef5760405162461bcd60e51b81526004016108459061328c565b6000838152601860205260408120805460ff191660011790555b8451811015610f85576000858281518110610f3457634e487b7160e01b600052603260045260246000fd5b60200260200101519050610f47816117aa565b610f635760405162461bcd60e51b8152600401610845906135ee565b610f7260018233600d546117c6565b5080610f7d81613832565b915050610f09565b50506001600b55505050565b610f9a826117aa565b610fb65760405162461bcd60e51b8152600401610845906130ea565b6000610fc5610eab3385610a10565b6015549091506001600160a01b0316610fde8284611b2b565b6001600160a01b0316146110045760405162461bcd60e51b81526004016108459061328c565b33600090815260196020526040812080549161101f83613832565b90915550508261104357600f805490600061103983613832565b919050555061107b565b600183141561105c576010805490600061103983613832565b600283141561107b576011805490600061107583613832565b91905055505b6108fd33600185611b4f565b600181565b611094611738565b6001600160a01b03166110a56111c6565b6001600160a01b0316146110cb5760405162461bcd60e51b815260040161084590613429565b8051610d619060169060208401906125dc565b6001600160a01b031660009081526014602052604090205460ff1690565b60115481565b6000818152600260205260408120546001600160a01b0316806107845760405162461bcd60e51b81526004016108459061331d565b60006001600160a01b03821661115f5760405162461bcd60e51b8152600401610845906132d3565b506001600160a01b031660009081526003602052604090205490565b611183611738565b6001600160a01b03166111946111c6565b6001600160a01b0316146111ba5760405162461bcd60e51b815260040161084590613429565b6111c46000611ba7565b565b600a546001600160a01b031690565b60606001805461079b906137f7565b600e5481565b6111f2611738565b6001600160a01b0316826001600160a01b031614156112235760405162461bcd60e51b8152600401610845906130b7565b8060056000611230611738565b6001600160a01b03908116825260208083019390935260409182016000908120918716808252919093529120805460ff191692151592909217909155611274611738565b6001600160a01b03167f17307eab39ab6107e8899845ad3d59bd9653f200f220920489ca2b5937696c31836040516112ac9190612d1e565b60405180910390a35050565b60006112c38261171b565b6112df5760405162461bcd60e51b815260040161084590613146565b5060009081526013602052604090205490565b6112fa611738565b6001600160a01b031661130b6111c6565b6001600160a01b0316146113315760405162461bcd60e51b815260040161084590613429565b81518151146113525760405162461bcd60e51b815260040161084590612ef9565b60005b81518110156108fd57600082828151811061138057634e487b7160e01b600052603260045260246000fd5b60200260200101519050611393816117aa565b6113af5760405162461bcd60e51b8152600401610845906135ee565b6113f26001828685815181106113d557634e487b7160e01b600052603260045260246000fd5b6020026020010151600e54600d546113ed9190613769565b6117c6565b50806113fd81613832565b915050611355565b611416611410611738565b83611919565b6114325760405162461bcd60e51b81526004016108459061361c565b610c9184848484611bf9565b670186cc6acd4b000081565b60606114558261171b565b6114715760405162461bcd60e51b81526004016108459061355e565b600061147b611c2c565b9050600081511161149b57604051806020016040528060008152506114c6565b806114a584611c3b565b6040516020016114b6929190612c53565b6040516020818303038152906040525b9392505050565b60006114d8826117aa565b6114f45760405162461bcd60e51b8152600401610845906135ee565b816115025750600f54610787565b60018214156115145750601054610787565b60028214156115265750601154610787565b506000919050565b600083838360405160200161154593929190612bd1565b6040516020818303038152906040528051906020012090509392505050565b61156c611738565b6001600160a01b031661157d6111c6565b6001600160a01b0316146115a35760405162461bcd60e51b815260040161084590613429565b601580546001600160a01b0319166001600160a01b0392909216919091179055565b6001600160a01b03918216600090815260056020908152604080832093909416825291909152205460ff1690565b7f000000000000000000000000000000000000000000000000000000000000000081565b61161f611738565b6001600160a01b03166116306111c6565b6001600160a01b0316146116565760405162461bcd60e51b815260040161084590613429565b6001600160a01b03811661167c5760405162461bcd60e51b815260040161084590612f4b565b61168581611ba7565b50565b611690611738565b6001600160a01b03166116a16111c6565b6001600160a01b0316146116c75760405162461bcd60e51b815260040161084590613429565b6012805460ff19811660ff90911615179055565b60006001600160e01b031982166380ac58cd60e01b148061170c57506001600160e01b03198216635b5e139f60e01b145b80610784575061078482611d55565b6000908152600260205260409020546001600160a01b0316151590565b3390565b600081815260046020526040902080546001600160a01b0319166001600160a01b038416908117909155819061177182611102565b6001600160a01b03167f8c5be1e5ebec7d5bd14f71427d1e84f3dd0314c0f7b2291e5b200ac8c7c3b92560405160405180910390a45050565b60008115806117b95750600282145b8061078457505060011490565b826118365780600f54106117ec5760405162461bcd60e51b815260040161084590612e1a565b8084600f546117fb9190613769565b11156118195760405162461bcd60e51b815260040161084590612d95565b83600f600082825461182b9190613769565b9091555061190e9050565b600183141561189f5780601054106118605760405162461bcd60e51b815260040161084590612e1a565b808460105461186f9190613769565b111561188d5760405162461bcd60e51b815260040161084590612d95565b836010600082825461182b9190613769565b600283141561190e5780601154106118c95760405162461bcd60e51b815260040161084590612e1a565b80846011546118d89190613769565b11156118f65760405162461bcd60e51b815260040161084590612d95565b83601160008282546119089190613769565b90915550505b610c91828585611b4f565b60006119248261171b565b6119405760405162461bcd60e51b8152600401610845906131bf565b600061194b83611102565b9050806001600160a01b0316846001600160a01b031614806119865750836001600160a01b031661197b8461081e565b6001600160a01b0316145b80611996575061199681856115c5565b949350505050565b826001600160a01b03166119b182611102565b6001600160a01b0316146119d75760405162461bcd60e51b815260040161084590613515565b6001600160a01b0382166119fd5760405162461bcd60e51b815260040161084590613073565b611a08838383611d6e565b611a1360008261173c565b6001600160a01b0383166000908152600360205260408120805460019290611a3c9084906137b4565b90915550506001600160a01b0382166000908152600360205260408120805460019290611a6a908490613769565b909155505060008181526002602052604080822080546001600160a01b0319166001600160a01b0386811691821790925591518493918716916000805160206138ba83398151915291a4505050565b60008183604051602001610a3e929190612cb2565b60006114c6827f000000000000000000000000000000000000000000000000000000000000000085611df7565b600081604051602001611b0e9190612c82565b604051602081830303815290604052805190602001209050919050565b6000806000611b3a8585611eb2565b91509150611b4781611f22565b509392505050565b60005b82811015611b8a57600081601754611b6a9190613769565b9050611b7785828561204f565b5080611b8281613832565b915050611b52565b508160176000828254611b9d9190613769565b9091555050505050565b600a80546001600160a01b038381166001600160a01b0319831681179093556040519116919082907f8be0079c531659141344cd1fd0a4f28419497f9722a3daafe3b4186f6b6457e090600090a35050565b611c0484848461199e565b611c108484848461209e565b610c915760405162461bcd60e51b815260040161084590612ea7565b60606016805461079b906137f7565b606081611c6057506040805180820190915260018152600360fc1b6020820152610787565b8160005b8115611c8a5780611c7481613832565b9150611c839050600a83613781565b9150611c64565b6000816001600160401b03811115611cb257634e487b7160e01b600052604160045260246000fd5b6040519080825280601f01601f191660200182016040528015611cdc576020820181803683370190505b5090505b841561199657611cf16001836137b4565b9150611cfe600a8661384d565b611d09906030613769565b60f81b818381518110611d2c57634e487b7160e01b600052603260045260246000fd5b60200101906001600160f81b031916908160001a905350611d4e600a86613781565b9450611ce0565b6001600160e01b031981166301ffc9a760e01b14919050565b611d798383836108fd565b6001600160a01b038316611d9557611d90816121b9565b611db8565b816001600160a01b0316836001600160a01b031614611db857611db883826121fd565b6001600160a01b038216611dd457611dcf8161229a565b6108fd565b826001600160a01b0316826001600160a01b0316146108fd576108fd8282612373565b600081815b8551811015611ea7576000868281518110611e2757634e487b7160e01b600052603260045260246000fd5b60200260200101519050808311611e68578281604051602001611e4b929190612c45565b604051602081830303815290604052805190602001209250611e94565b8083604051602001611e7b929190612c45565b6040516020818303038152906040528051906020012092505b5080611e9f81613832565b915050611dfc565b509092149392505050565b600080825160411415611ee95760208301516040840151606085015160001a611edd878285856123b7565b94509450505050611f1b565b825160401415611f135760208301516040840151611f0886838361248d565b935093505050611f1b565b506000905060025b9250929050565b6000816004811115611f4457634e487b7160e01b600052602160045260246000fd5b1415611f4f57611685565b6001816004811115611f7157634e487b7160e01b600052602160045260246000fd5b1415611f8f5760405162461bcd60e51b815260040161084590612d63565b6002816004811115611fb157634e487b7160e01b600052602160045260246000fd5b1415611fcf5760405162461bcd60e51b815260040161084590612de3565b6003816004811115611ff157634e487b7160e01b600052602160045260246000fd5b141561200f5760405162461bcd60e51b81526004016108459061317d565b600481600481111561203157634e487b7160e01b600052602160045260246000fd5b14156116855760405162461bcd60e51b815260040161084590613366565b60008281526013602052604080822083905551829184916001600160a01b038716917f4c209b5fc8ad50758f13e2e1088ba56a560dff690a1c6fef26394f4c03821c4f91a46108fd83836124bc565b60006120b2846001600160a01b03166124d6565b156121ae57836001600160a01b031663150b7a026120ce611738565b8786866040518563ffffffff1660e01b81526004016120f09493929190612ce1565b602060405180830381600087803b15801561210a57600080fd5b505af192505050801561213a575060408051601f3d908101601f1916820190925261213791810190612a53565b60015b612194573d808015612168576040519150601f19603f3d011682016040523d82523d6000602084013e61216d565b606091505b50805161218c5760405162461bcd60e51b815260040161084590612ea7565b805181602001fd5b6001600160e01b031916630a85bd0160e11b149050611996565b506001949350505050565b600880546000838152600960205260408120829055600182018355919091527ff3f7a9fe364faab93b216da50a3214154f22a0a2b415b23a84c8169e8b636ee30155565b6000600161220a84611137565b61221491906137b4565b600083815260076020526040902054909150808214612267576001600160a01b03841660009081526006602090815260408083208584528252808320548484528184208190558352600790915290208190555b5060009182526007602090815260408084208490556001600160a01b039094168352600681528383209183525290812055565b6008546000906122ac906001906137b4565b600083815260096020526040812054600880549394509092849081106122e257634e487b7160e01b600052603260045260246000fd5b90600052602060002001549050806008838154811061231157634e487b7160e01b600052603260045260246000fd5b600091825260208083209091019290925582815260099091526040808220849055858252812055600880548061235757634e487b7160e01b600052603160045260246000fd5b6001900381819060005260206000200160009055905550505050565b600061237e83611137565b6001600160a01b039093166000908152600660209081526040808320868452825280832085905593825260079052919091209190915550565b6000806fa2a8918ca85bafe22016d0b997e4df60600160ff1b038311156123e45750600090506003612484565b8460ff16601b141580156123fc57508460ff16601c14155b1561240d5750600090506004612484565b6000600187878787604051600081526020016040526040516124329493929190612d32565b6020604051602081039080840390855afa158015612454573d6000803e3d6000fd5b5050604051601f1901519150506001600160a01b03811661247d57600060019250925050612484565b9150600090505b94509492505050565b6000806001600160ff1b03831660ff84901c601b016124ae878288856123b7565b935093505050935093915050565b610d618282604051806020016040528060008152506124dc565b3b151590565b6124e6838361250f565b6124f3600084848461209e565b6108fd5760405162461bcd60e51b815260040161084590612ea7565b6001600160a01b0382166125355760405162461bcd60e51b8152600401610845906133a8565b61253e8161171b565b1561255b5760405162461bcd60e51b815260040161084590612fd6565b61256760008383611d6e565b6001600160a01b0382166000908152600360205260408120805460019290612590908490613769565b909155505060008181526002602052604080822080546001600160a01b0319166001600160a01b03861690811790915590518392906000805160206138ba833981519152908290a45050565b8280546125e8906137f7565b90600052602060002090601f01602090048101928261260a5760008555612650565b82601f1061262357805160ff1916838001178555612650565b82800160010185558215612650579182015b82811115612650578251825591602001919060010190612635565b5061265c929150612660565b5090565b5b8082111561265c5760008155600101612661565b60006001600160401b0383111561268e5761268e61388d565b6126a1601f8401601f191660200161371d565b90508281528383830111156126b557600080fd5b828260208301376000602084830101529392505050565b80356001600160a01b038116811461078757600080fd5b600082601f8301126126f3578081fd5b8135602061270861270383613746565b61371d565b8281528181019085830183850287018401881015612724578586fd5b855b8581101561274257813584529284019290840190600101612726565b5090979650505050505050565b600082601f83011261275f578081fd5b6114c683833560208501612675565b60006020828403121561277f578081fd5b6114c6826126cc565b6000806040838503121561279a578081fd5b6127a3836126cc565b91506127b1602084016126cc565b90509250929050565b6000806000606084860312156127ce578081fd5b6127d7846126cc565b92506127e5602085016126cc565b9150604084013590509250925092565b6000806000806080858703121561280a578081fd5b612813856126cc565b9350612821602086016126cc565b92506040850135915060608501356001600160401b03811115612842578182fd5b61284e8782880161274f565b91505092959194509250565b60008060006060848603121561286e578283fd5b612877846126cc565b925060208401356001600160401b03811115612891578283fd5b61289d868287016126e3565b925050604084013590509250925092565b600080604083850312156128c0578182fd5b6128c9836126cc565b9150602083013580151581146128dd578182fd5b809150509250929050565b600080604083850312156128fa578182fd5b612903836126cc565b946020939093013593505050565b60008060408385031215612923578182fd5b82356001600160401b0380821115612939578384fd5b818501915085601f83011261294c578384fd5b8135602061295c61270383613746565b82815281810190858301838502870184018b1015612978578889fd5b8896505b848710156129a15761298d816126cc565b83526001969096019591830191830161297c565b50965050860135925050808211156129b7578283fd5b506129c4858286016126e3565b9150509250929050565b6000806000606084860312156129e2578081fd5b83356001600160401b03808211156129f8578283fd5b612a04878388016126e3565b9450602086013593506040860135915080821115612a20578283fd5b50612a2d8682870161274f565b9150509250925092565b600060208284031215612a48578081fd5b81356114c6816138a3565b600060208284031215612a64578081fd5b81516114c6816138a3565b600060208284031215612a80578081fd5b81356001600160401b03811115612a95578182fd5b8201601f81018413612aa5578182fd5b61199684823560208401612675565b600060208284031215612ac5578081fd5b5035919050565b60008060008060608587031215612ae1578182fd5b8435935060208501356001600160401b0380821115612afe578384fd5b818701915087601f830112612b11578384fd5b813581811115612b1f578485fd5b8860208083028501011115612b32578485fd5b95986020929092019750949560400135945092505050565b60008060408385031215612b5c578182fd5b8235915060208301356001600160401b03811115612b78578182fd5b6129c48582860161274f565b60008060408385031215612b96578182fd5b50508035926020909101359150565b60008151808452612bbd8160208601602086016137cb565b601f01601f19169290920160200192915050565b606084901b6001600160601b0319168152825160009060148301906020808701845b83811015612c0f57815185529382019390820190600101612bf3565b505094825250909201949350505050565b60609390931b6001600160601b03191683526014830191909152603482015260540190565b918252602082015260400190565b60008351612c658184602088016137cb565b835190830190612c798183602088016137cb565b01949350505050565b7b0ca2ba3432b932bab69029b4b3b732b21026b2b9b9b0b3b29d05199960211b8152601c810191909152603c0190565b91825260601b6001600160601b031916602082015260340190565b6001600160a01b0391909116815260200190565b6001600160a01b0385811682528416602082015260408101839052608060608201819052600090612d1490830184612ba5565b9695505050505050565b901515815260200190565b90815260200190565b93845260ff9290921660208401526040830152606082015260800190565b6000602082526114c66020830184612ba5565b60208082526018908201527745434453413a20696e76616c6964207369676e617475726560401b604082015260600190565b6020808252602e908201527f43616e6e6f74207075726368617365206d6f7265207468616e2074686520617660408201526d61696c61626c6520737570706c7960901b606082015260800190565b6020808252601f908201527f45434453413a20696e76616c6964207369676e6174757265206c656e67746800604082015260600190565b60208082526022908201527f546869732066616374696f6e20686173206265656e2066756c6c79206d696e74604082015261195960f21b606082015260800190565b6020808252602b908201527f455243373231456e756d657261626c653a206f776e657220696e646578206f7560408201526a74206f6620626f756e647360a81b606082015260800190565b60208082526032908201527f4552433732313a207472616e7366657220746f206e6f6e20455243373231526560408201527131b2b4bb32b91034b6b83632b6b2b73a32b960711b606082015260800190565b60208082526032908201527f46616374696f6e20696473206d7563682068617665207468652073616d65206c604082015271656e6774682061732061646472657373657360701b606082015260800190565b60208082526026908201527f4f776e61626c653a206e6577206f776e657220697320746865207a65726f206160408201526564647265737360d01b606082015260800190565b60208082526025908201527f43616e6e6f74206d696e74207768696c65206d61696e2073616c652069732061604082015264637469766560d81b606082015260800190565b6020808252601c908201527b115490cdcc8c4e881d1bdad95b88185b1c9958591e481b5a5b9d195960221b604082015260600190565b6020808252601a908201527926bab9ba1036b4b73a1030ba103632b0b9ba1018903a37b5b2b760311b604082015260600190565b602080825260199082015278151bdad95b8818dbdd5b9d08195e18d959591cc81b1a5b5a5d603a1b604082015260600190565b60208082526024908201527f4552433732313a207472616e7366657220746f20746865207a65726f206164646040820152637265737360e01b606082015260800190565b60208082526019908201527822a9219b99189d1030b8383937bb32903a379031b0b63632b960391b604082015260600190565b602080825260169082015275119858dd1a5bdb88191bd95cc81b9bdd08195e1a5cdd60521b604082015260600190565b60208082526012908201527150726573616c65206e6f742061637469766560701b604082015260600190565b6020808252601e908201527f517565727920666f72206e6f6e6578697374656e7420746f6b656e2069640000604082015260600190565b60208082526022908201527f45434453413a20696e76616c6964207369676e6174757265202773272076616c604082015261756560f01b606082015260800190565b6020808252602c908201527f4552433732313a206f70657261746f7220717565727920666f72206e6f6e657860408201526b34b9ba32b73a103a37b5b2b760a11b606082015260800190565b6020808252600f908201526e53616c65206e6f742061637469766560881b604082015260600190565b60208082526038908201527f4552433732313a20617070726f76652063616c6c6572206973206e6f74206f776040820152771b995c881b9bdc88185c1c1c9bdd995908199bdc88185b1b60421b606082015260800190565b60208082526027908201527f5065726d697373696f6e20746f2063616c6c20746869732066756e6374696f6e6040820152660819985a5b195960ca1b606082015260800190565b6020808252602a908201527f4552433732313a2062616c616e636520717565727920666f7220746865207a65604082015269726f206164647265737360b01b606082015260800190565b60208082526029908201527f4552433732313a206f776e657220717565727920666f72206e6f6e657869737460408201526832b73a103a37b5b2b760b91b606082015260800190565b60208082526022908201527f45434453413a20696e76616c6964207369676e6174757265202776272076616c604082015261756560f01b606082015260800190565b6020808252818101527f4552433732313a206d696e7420746f20746865207a65726f2061646472657373604082015260600190565b6020808252602c908201527f4552433732313a20617070726f76656420717565727920666f72206e6f6e657860408201526b34b9ba32b73a103a37b5b2b760a11b606082015260800190565b6020808252818101527f4f776e61626c653a2063616c6c6572206973206e6f7420746865206f776e6572604082015260600190565b60208082526028908201527f4554482073656e7420646f6573206e6f74206d61746368207265717569726564604082015267081c185e5b595b9d60c21b606082015260800190565b60208082526021908201527f416c726561647920636c61696d656420776974682074686973206164647265736040820152607360f81b606082015260800190565b60208082526014908201527324b73b30b634b21036b2b935b63290383937b7b360611b604082015260600190565b60208082526029908201527f4552433732313a207472616e73666572206f6620746f6b656e2074686174206960408201526839903737ba1037bbb760b91b606082015260800190565b6020808252602f908201527f4552433732314d657461646174613a2055524920717565727920666f72206e6f60408201526e3732bc34b9ba32b73a103a37b5b2b760891b606082015260800190565b60208082526021908201527f4552433732313a20617070726f76616c20746f2063757272656e74206f776e656040820152603960f91b606082015260800190565b602080825260149082015273119858dd1a5bdb881a5cc81b9bdd081d985b1a5960621b604082015260600190565b60208082526031908201527f4552433732313a207472616e736665722063616c6c6572206973206e6f74206f6040820152701ddb995c881b9bdc88185c1c1c9bdd9959607a1b606082015260800190565b6020808252602c908201527f455243373231456e756d657261626c653a20676c6f62616c20696e646578206f60408201526b7574206f6620626f756e647360a01b606082015260800190565b6020808252601f908201527f5265656e7472616e637947756172643a207265656e7472616e742063616c6c00604082015260600190565b6020808252601390820152722737b731b29030b63932b0b23c903ab9b2b21760691b604082015260600190565b6040518181016001600160401b038111828210171561373e5761373e61388d565b604052919050565b60006001600160401b0382111561375f5761375f61388d565b5060209081020190565b6000821982111561377c5761377c613861565b500190565b60008261379057613790613877565b500490565b60008160001904831182151516156137af576137af613861565b500290565b6000828210156137c6576137c6613861565b500390565b60005b838110156137e65781810151838201526020016137ce565b83811115610c915750506000910152565b60028104600182168061380b57607f821691505b6020821081141561382c57634e487b7160e01b600052602260045260246000fd5b50919050565b600060001982141561384657613846613861565b5060010190565b60008261385c5761385c613877565b500690565b634e487b7160e01b600052601160045260246000fd5b634e487b7160e01b600052601260045260246000fd5b634e487b7160e01b600052604160045260246000fd5b6001600160e01b03198116811461168557600080fdfeddf252ad1be2c89b69c2b068fc378daa952ba7f163c4a11628f55a4df523b3efa26469706673582212209dc7d22891fdc4d7bd25233e8e5dbf01971522142f99978bafedbddeb11ebae164736f6c63430008000033",
  "immutableReferences": {
    "76": [
      {
        "length": 32,
        "start": 5621
      },
      {
        "length": 32,
        "start": 6870
      }
    ]
  },
  "source": "// SPDX-License-Identifier: MIT\npragma solidity ^0.8.0;\n\nimport \"@openzeppelin/contracts/utils/cryptography/ECDSA.sol\";\nimport \"@openzeppelin/contracts/utils/Strings.sol\";\nimport \"@openzeppelin/contracts/access/Ownable.sol\";\nimport \"@openzeppelin/contracts/security/ReentrancyGuard.sol\";\nimport \"@openzeppelin/contracts/token/ERC721/extensions/ERC721Enumerable.sol\";\nimport \"@openzeppelin/contracts/utils/cryptography/MerkleProof.sol\";\n\n/**\n * @title Token contract for Legends of Venari Alpha Passes\n * @dev This contract allows the distribution of\n * Legends of Venari Passes in the form of a presale and main sale.\n *\n * Users can mint from Talaw, Vestal, or Azule in either sales.\n *\n *\n * Smart contract work done by lenopix.eth\n */\ncontract LegendsOfVenariAlphaPass is\n  ERC721Enumerable,\n  Ownable,\n  ReentrancyGuard\n{\n  using ECDSA for bytes32;\n  using Address for address;\n\n  event Mint(\n    address indexed to,\n    uint256 indexed tokenId,\n    uint256 indexed factionId\n  );\n\n  // Faction Ids\n  uint256 public constant TALAW_ID = 0;\n  uint256 public constant VESTAL_ID = 1;\n  uint256 public constant AZULE_ID = 2;\n\n  // Minting constants\n  uint256 public maxMintPerTransaction;\n  uint256 public MINT_SUPPLY_PER_FACTION;\n  uint256 public TEAM_SUPPLY_PER_FACTION;\n\n  // Current price: 0.0011\n  uint256 public constant MINT_PRICE = 110000000000000000;\n\n  // Keep track of supply\n  uint256 public talawMintCount = 0;\n  uint256 public vestalMintCount = 0;\n  uint256 public azuleMintCount = 0;\n\n  // Sale toggles\n  bool private _isPresaleActive = false;\n  bool private _isSaleActive = false;\n\n  // Tracks the faction for a token\n  mapping(uint256 => uint256) factionForToken;\n\n  // Presale\n  mapping(address => bool) private presaleClaimed; // Everyone who got in on the presale can only claim once.\n  address private signVerifier = 0xf79e8a0d24cF91EE36c8a7e7dB8Aa95fbF7d6a8f;\n\n  // Base URI\n  string private _uri;\n\n  // Merkle Root\n  bytes32 immutable public root;\n\n  // Last Token ID starts from the end of Gilded Pass ID\n  uint256 lastTokenId = 600;\n\n  constructor(\n    uint256 mintSupply,\n    uint256 teamSupply,\n    uint256 maxMint,\n    bytes32 merkleroot\n  ) ERC721(\"Legends of Venari Alpha Pass\", \"LVP\") {\n    MINT_SUPPLY_PER_FACTION = mintSupply;\n    TEAM_SUPPLY_PER_FACTION = teamSupply;\n    maxMintPerTransaction = maxMint;\n    root = merkleroot;\n  }\n\n  // @dev Returns the faction of the token id\n  function getFaction(uint256 tokenId) external view returns (uint256) {\n    require(_exists(tokenId), \"Query for nonexistent token id\");\n    return factionForToken[tokenId];\n  }\n\n  // @dev Returns whether a user has claimed from presale\n  function getPresaleClaimed(address user) external view returns (bool) {\n    return presaleClaimed[user];\n  }\n\n  // @dev Returns the enabled/disabled status for presale\n  function getPreSaleState() external view returns (bool) {\n    return _isPresaleActive;\n  }\n\n  // @dev Returns the enabled/disabled status for minting\n  function getSaleState() external view returns (bool) {\n    return _isSaleActive;\n  }\n\n  // @dev Returns the mint count of a specific faction\n  function getMintCount(uint256 factionId) external view returns (uint256) {\n    require(_isValidFactionId(factionId), \"Faction is not valid\");\n\n    if (factionId == TALAW_ID) {\n      return talawMintCount;\n    } else if (factionId == VESTAL_ID) {\n      return vestalMintCount;\n    } else if (factionId == AZULE_ID) {\n      return azuleMintCount;\n    }\n    return 0;\n  }\n\n  // @dev Allows to set the baseURI dynamically\n  // @param uri The base uri for the metadata store\n  function setBaseURI(string memory uri) external onlyOwner {\n    _uri = uri;\n  }\n\n  // @dev Sets a new signature verifier\n  function setSignVerifier(address verifier) external onlyOwner {\n    signVerifier = verifier;\n  }\n\n  // @dev Dynamically set the max mints a user can do in the main sale\n  function setMaxMintPerTransaction(uint256 maxMint) external onlyOwner {\n    maxMintPerTransaction = maxMint;\n  }\n\n  // Presale\n  function presaleMint(\n    uint256 tokenId,\n    bytes32[] calldata proof,\n    uint256 factionId\n  ) external payable {\n    require(_verify(_leaf(msg.sender, tokenId), proof), \"Invalid merkle proof\");\n    require(!presaleClaimed[msg.sender], \"Already claimed with this address\");\n    require(_isPresaleActive, \"Presale not active\");\n    require(!_isSaleActive, \"Cannot mint while main sale is active\");\n    require(_isValidFactionId(factionId), \"Faction is not valid\");\n    require(MINT_PRICE == msg.value, \"ETH sent does not match required payment\");\n    presaleClaimed[msg.sender] = true;\n\n    _handleFactionMint(1, factionId, msg.sender, MINT_SUPPLY_PER_FACTION);\n  }\n\n  function _leaf(address account, uint256 tokenId) internal pure returns (bytes32) {\n    return keccak256(abi.encodePacked(tokenId, account));\n  }\n\n  function _verify(bytes32 leaf, bytes32[] memory proof) internal view returns (bool) {\n    return MerkleProof.verify(proof, root, leaf);\n  }\n\n  mapping(uint256 => bool) partnerNonceUsed;\n  mapping(address => uint256) basePassNonce;\n\n  // @dev Partner Mint - For partners who we allow to batch mint\n  // @param factionIds The factions associated with the tokens\n  // @param addresses The addresses that the tokens will be distributed to\n  // @param sig Server side signature authorizing user to use the presale\n  function partnerMint(\n    uint256[] memory factionIds,\n    uint256 nonce,\n    bytes memory sig\n  ) external payable nonReentrant {\n    require(_isPresaleActive, \"Presale not active\");\n    require(\n      (MINT_PRICE * factionIds.length) == msg.value,\n      \"ETH sent does not match required payment\"\n    );\n    require(!partnerNonceUsed[nonce], \"Nonce already used.\");\n\n    // Verify signature\n    bytes32 message = getPartnerSigningHash(\n      msg.sender,\n      factionIds,\n      nonce\n    ).toEthSignedMessageHash();\n    require(\n      ECDSA.recover(message, sig) == signVerifier,\n      \"Permission to call this function failed\"\n    );\n\n    partnerNonceUsed[nonce] = true;\n\n    // Mint\n    for (uint256 i = 0; i < factionIds.length; i++) {\n        uint256 factionId = factionIds[i];\n        require(_isValidFactionId(factionId), \"Faction is not valid\");\n        _handleFactionMint(1, factionId, msg.sender, MINT_SUPPLY_PER_FACTION);\n    }\n  }\n\n  // @dev Main sale mint\n  // @param tokensCount The tokens a user wants to purchase\n  // @param factionId Talaw: 0, Vestal: 1, Azule: 2\n  function mint(uint256 tokenCount, uint256 factionId)\n    external\n    payable\n    nonReentrant\n  {\n    require(_isValidFactionId(factionId), \"Faction is not valid\");\n    require(_isSaleActive, \"Sale not active\");\n    require(tokenCount > 0, \"Must mint at least 1 token\");\n    require(tokenCount <= maxMintPerTransaction, \"Token count exceeds limit\");\n    require(\n      (MINT_PRICE * tokenCount) == msg.value,\n      \"ETH sent does not match required payment\"\n    );\n\n      _handleFactionMint(tokenCount, factionId, msg.sender, MINT_SUPPLY_PER_FACTION);\n  }\n\n  // @dev Private mint function reserved for company.\n  // THIS SHOULD ONLY BE DONE AFTER THE MAIN SALE HAS FINISHED\n  // 50 of each faction is reserved.\n  // @param recipient The user receiving the tokens\n  // @param tokenCount The number of tokens to distribute\n  // @param factionId Talaw: 0, Vestal: 1, Azule: 2\n  function mintToAddress(\n    address[] memory addresses,\n    uint256[] memory factionIds\n  ) external onlyOwner {\n    require(factionIds.length == addresses.length, \"Faction ids much have the same length as addresses\");\n\n    // Mint\n    for (uint256 i = 0; i < factionIds.length; i++) {\n        uint256 factionId = factionIds[i];\n        require(_isValidFactionId(factionId), \"Faction is not valid\");\n        _handleFactionMint(1, factionId, addresses[i], MINT_SUPPLY_PER_FACTION + TEAM_SUPPLY_PER_FACTION);\n    }\n  }\n\n  function redeemBasePass(\n    uint256 factionId,\n    bytes memory sig\n  ) external {\n    require(_isValidFactionId(factionId), \"Faction does not exist\");\n\n    // Verify signature\n    bytes32 message = getBasePassSigningHash(\n      msg.sender,\n      factionId\n    ).toEthSignedMessageHash();\n    require(\n      ECDSA.recover(message, sig) == signVerifier,\n      \"Permission to call this function failed\"\n    );\n\n    basePassNonce[msg.sender]++;\n\n    if (factionId == TALAW_ID) {\n      talawMintCount++;\n    } else if (factionId == VESTAL_ID) {\n      vestalMintCount++;\n    } else if (factionId == AZULE_ID) {\n      azuleMintCount++;\n    }\n\n    _mint(msg.sender, 1, factionId);\n  }\n\n  // @dev Allows to enable/disable minting of presale\n  function flipPresaleState() external onlyOwner {\n    _isPresaleActive = !_isPresaleActive;\n  }\n\n  // @dev Allows to enable/disable minting of main sale\n  function flipSaleState() external onlyOwner {\n    _isSaleActive = !_isSaleActive;\n  }\n\n  function withdraw() external onlyOwner {\n    uint256 balance = address(this).balance;\n    payable(msg.sender).transfer(balance);\n  }\n\n  function getPartnerSigningHash(\n    address sender,\n    uint256[] memory factionIds,\n    uint256 nonce\n  ) public pure returns (bytes32) {\n    return\n      keccak256(\n        abi.encodePacked(sender, factionIds, nonce)\n      );\n  }\n\n  function getBasePassSigningHash(\n    address sender,\n    uint256 factionId\n  ) public view returns (bytes32) {\n    return \n      keccak256(\n        abi.encodePacked(sender, factionId, basePassNonce[sender])\n      );\n  }\n\n  function _baseURI() internal view override returns (string memory) {\n    return _uri;\n  }\n\n  function _handleFactionMint(\n    uint256 tokenCount,\n    uint256 factionId,\n    address recipient,\n    uint256 totalSupply\n  ) private {\n    if (factionId == TALAW_ID) {\n      require(talawMintCount < totalSupply, \"This faction has been fully minted\");\n      require((talawMintCount + tokenCount) <= totalSupply, \"Cannot purchase more than the available supply\");\n      talawMintCount += tokenCount;\n    } else if (factionId == VESTAL_ID) {\n      require(vestalMintCount < totalSupply, \"This faction has been fully minted\");\n      require((vestalMintCount + tokenCount) <= totalSupply, \"Cannot purchase more than the available supply\");\n      vestalMintCount += tokenCount;\n    } else if (factionId == AZULE_ID) {\n      require(azuleMintCount < totalSupply, \"This faction has been fully minted\");\n      require((azuleMintCount + tokenCount) <= totalSupply, \"Cannot purchase more than the available supply\");\n      azuleMintCount += tokenCount;\n    }\n\n    _mint(recipient, tokenCount, factionId);\n  }\n\n  function _mint(\n    address recipient,\n    uint256 tokenCount,\n    uint256 factionId\n  ) private {\n    for (uint256 i = 0; i < tokenCount; i++) {\n      uint256 tokenId = lastTokenId + i;\n      _mintWithTokenId(recipient, tokenId, factionId);\n    }\n    lastTokenId += tokenCount;\n  }\n\n  function _mintWithTokenId(\n    address recipient,\n    uint256 tokenId,\n    uint256 factionId\n  ) private {\n      factionForToken[tokenId] = factionId;\n      emit Mint(recipient, tokenId, factionId);\n      _safeMint(recipient, tokenId);\n  }\n\n\n  function _isValidFactionId(uint256 factionId) private pure returns (bool) {\n    return factionId == TALAW_ID || factionId == AZULE_ID || factionId == VESTAL_ID;\n  }\n}\n",
  "sourcePath": "/Users/jingsongdu/Documents/lov-smart-contracts/contracts/LegendsOfVenariAlphaPass.sol",
  "compiler": {
    "name": "solc",
    "version": "0.8.0+commit.c7dfd78e.Emscripten.clang"
  },
  "schemaVersion": "3.3.4",
  "updatedAt": "2021-12-11T19:27:08.113Z",
  "networkType": "ethereum",
  "devdoc": {
    "details": "This contract allows the distribution of Legends of Venari Passes in the form of a presale and main sale. Users can mint from Talaw, Vestal, or Azule in either sales. Smart contract work done by lenopix.eth",
    "kind": "dev",
    "methods": {
      "approve(address,uint256)": {
        "details": "See {IERC721-approve}."
      },
      "balanceOf(address)": {
        "details": "See {IERC721-balanceOf}."
      },
      "getApproved(uint256)": {
        "details": "See {IERC721-getApproved}."
      },
      "isApprovedForAll(address,address)": {
        "details": "See {IERC721-isApprovedForAll}."
      },
      "name()": {
        "details": "See {IERC721Metadata-name}."
      },
      "owner()": {
        "details": "Returns the address of the current owner."
      },
      "ownerOf(uint256)": {
        "details": "See {IERC721-ownerOf}."
      },
      "renounceOwnership()": {
        "details": "Leaves the contract without owner. It will not be possible to call `onlyOwner` functions anymore. Can only be called by the current owner. NOTE: Renouncing ownership will leave the contract without an owner, thereby removing any functionality that is only available to the owner."
      },
      "safeTransferFrom(address,address,uint256)": {
        "details": "See {IERC721-safeTransferFrom}."
      },
      "safeTransferFrom(address,address,uint256,bytes)": {
        "details": "See {IERC721-safeTransferFrom}."
      },
      "setApprovalForAll(address,bool)": {
        "details": "See {IERC721-setApprovalForAll}."
      },
      "supportsInterface(bytes4)": {
        "details": "See {IERC165-supportsInterface}."
      },
      "symbol()": {
        "details": "See {IERC721Metadata-symbol}."
      },
      "tokenByIndex(uint256)": {
        "details": "See {IERC721Enumerable-tokenByIndex}."
      },
      "tokenOfOwnerByIndex(address,uint256)": {
        "details": "See {IERC721Enumerable-tokenOfOwnerByIndex}."
      },
      "tokenURI(uint256)": {
        "details": "See {IERC721Metadata-tokenURI}."
      },
      "totalSupply()": {
        "details": "See {IERC721Enumerable-totalSupply}."
      },
      "transferFrom(address,address,uint256)": {
        "details": "See {IERC721-transferFrom}."
      },
      "transferOwnership(address)": {
        "details": "Transfers ownership of the contract to a new account (`newOwner`). Can only be called by the current owner."
      }
    },
    "title": "Token contract for Legends of Venari Alpha Passes",
    "version": 1
  },
  "userdoc": {
    "kind": "user",
    "methods": {},
    "version": 1
  }
}