{
  "contractName": "LegendsOfVenariPass",
  "abi": [
    {
      "inputs": [
        {
          "internalType": "uint256",
          "name": "mintSupply",
          "type": "uint256"
        },
        {
          "internalType": "uint256",
          "name": "teamSupply",
          "type": "uint256"
        },
        {
          "internalType": "uint256",
          "name": "maxMint",
          "type": "uint256"
        },
        {
          "internalType": "bytes32",
          "name": "merkleroot",
          "type": "bytes32"
        }
      ],
      "stateMutability": "nonpayable",
      "type": "constructor"
    },
    {
      "anonymous": false,
      "inputs": [
        {
          "indexed": true,
          "internalType": "address",
          "name": "owner",
          "type": "address"
        },
        {
          "indexed": true,
          "internalType": "address",
          "name": "approved",
          "type": "address"
        },
        {
          "indexed": true,
          "internalType": "uint256",
          "name": "tokenId",
          "type": "uint256"
        }
      ],
      "name": "Approval",
      "type": "event"
    },
    {
      "anonymous": false,
      "inputs": [
        {
          "indexed": true,
          "internalType": "address",
          "name": "owner",
          "type": "address"
        },
        {
          "indexed": true,
          "internalType": "address",
          "name": "operator",
          "type": "address"
        },
        {
          "indexed": false,
          "internalType": "bool",
          "name": "approved",
          "type": "bool"
        }
      ],
      "name": "ApprovalForAll",
      "type": "event"
    },
    {
      "anonymous": false,
      "inputs": [
        {
          "indexed": true,
          "internalType": "address",
          "name": "to",
          "type": "address"
        },
        {
          "indexed": true,
          "internalType": "uint256",
          "name": "tokenId",
          "type": "uint256"
        },
        {
          "indexed": true,
          "internalType": "uint256",
          "name": "factionId",
          "type": "uint256"
        }
      ],
      "name": "Mint",
      "type": "event"
    },
    {
      "anonymous": false,
      "inputs": [
        {
          "indexed": true,
          "internalType": "address",
          "name": "previousOwner",
          "type": "address"
        },
        {
          "indexed": true,
          "internalType": "address",
          "name": "newOwner",
          "type": "address"
        }
      ],
      "name": "OwnershipTransferred",
      "type": "event"
    },
    {
      "anonymous": false,
      "inputs": [
        {
          "indexed": true,
          "internalType": "address",
          "name": "from",
          "type": "address"
        },
        {
          "indexed": true,
          "internalType": "address",
          "name": "to",
          "type": "address"
        },
        {
          "indexed": true,
          "internalType": "uint256",
          "name": "tokenId",
          "type": "uint256"
        }
      ],
      "name": "Transfer",
      "type": "event"
    },
    {
      "inputs": [],
      "name": "AZULE_ID",
      "outputs": [
        {
          "internalType": "uint256",
          "name": "",
          "type": "uint256"
        }
      ],
      "stateMutability": "view",
      "type": "function",
      "constant": true
    },
    {
      "inputs": [],
      "name": "MINT_PRICE",
      "outputs": [
        {
          "internalType": "uint256",
          "name": "",
          "type": "uint256"
        }
      ],
      "stateMutability": "view",
      "type": "function",
      "constant": true
    },
    {
      "inputs": [],
      "name": "MINT_SUPPLY_PER_FACTION",
      "outputs": [
        {
          "internalType": "uint256",
          "name": "",
          "type": "uint256"
        }
      ],
      "stateMutability": "view",
      "type": "function",
      "constant": true
    },
    {
      "inputs": [],
      "name": "TALAW_ID",
      "outputs": [
        {
          "internalType": "uint256",
          "name": "",
          "type": "uint256"
        }
      ],
      "stateMutability": "view",
      "type": "function",
      "constant": true
    },
    {
      "inputs": [],
      "name": "TEAM_SUPPLY_PER_FACTION",
      "outputs": [
        {
          "internalType": "uint256",
          "name": "",
          "type": "uint256"
        }
      ],
      "stateMutability": "view",
      "type": "function",
      "constant": true
    },
    {
      "inputs": [],
      "name": "VESTAL_ID",
      "outputs": [
        {
          "internalType": "uint256",
          "name": "",
          "type": "uint256"
        }
      ],
      "stateMutability": "view",
      "type": "function",
      "constant": true
    },
    {
      "inputs": [
        {
          "internalType": "address",
          "name": "to",
          "type": "address"
        },
        {
          "internalType": "uint256",
          "name": "tokenId",
          "type": "uint256"
        }
      ],
      "name": "approve",
      "outputs": [],
      "stateMutability": "nonpayable",
      "type": "function"
    },
    {
      "inputs": [],
      "name": "azuleMintCount",
      "outputs": [
        {
          "internalType": "uint256",
          "name": "",
          "type": "uint256"
        }
      ],
      "stateMutability": "view",
      "type": "function",
      "constant": true
    },
    {
      "inputs": [
        {
          "internalType": "address",
          "name": "owner",
          "type": "address"
        }
      ],
      "name": "balanceOf",
      "outputs": [
        {
          "internalType": "uint256",
          "name": "",
          "type": "uint256"
        }
      ],
      "stateMutability": "view",
      "type": "function",
      "constant": true
    },
    {
      "inputs": [
        {
          "internalType": "uint256",
          "name": "tokenId",
          "type": "uint256"
        }
      ],
      "name": "getApproved",
      "outputs": [
        {
          "internalType": "address",
          "name": "",
          "type": "address"
        }
      ],
      "stateMutability": "view",
      "type": "function",
      "constant": true
    },
    {
      "inputs": [
        {
          "internalType": "address",
          "name": "owner",
          "type": "address"
        },
        {
          "internalType": "address",
          "name": "operator",
          "type": "address"
        }
      ],
      "name": "isApprovedForAll",
      "outputs": [
        {
          "internalType": "bool",
          "name": "",
          "type": "bool"
        }
      ],
      "stateMutability": "view",
      "type": "function",
      "constant": true
    },
    {
      "inputs": [],
      "name": "maxMintPerTransaction",
      "outputs": [
        {
          "internalType": "uint256",
          "name": "",
          "type": "uint256"
        }
      ],
      "stateMutability": "view",
      "type": "function",
      "constant": true
    },
    {
      "inputs": [],
      "name": "name",
      "outputs": [
        {
          "internalType": "string",
          "name": "",
          "type": "string"
        }
      ],
      "stateMutability": "view",
      "type": "function",
      "constant": true
    },
    {
      "inputs": [],
      "name": "owner",
      "outputs": [
        {
          "internalType": "address",
          "name": "",
          "type": "address"
        }
      ],
      "stateMutability": "view",
      "type": "function",
      "constant": true
    },
    {
      "inputs": [
        {
          "internalType": "uint256",
          "name": "tokenId",
          "type": "uint256"
        }
      ],
      "name": "ownerOf",
      "outputs": [
        {
          "internalType": "address",
          "name": "",
          "type": "address"
        }
      ],
      "stateMutability": "view",
      "type": "function",
      "constant": true
    },
    {
      "inputs": [],
      "name": "renounceOwnership",
      "outputs": [],
      "stateMutability": "nonpayable",
      "type": "function"
    },
    {
      "inputs": [],
      "name": "root",
      "outputs": [
        {
          "internalType": "bytes32",
          "name": "",
          "type": "bytes32"
        }
      ],
      "stateMutability": "view",
      "type": "function",
      "constant": true
    },
    {
      "inputs": [
        {
          "internalType": "address",
          "name": "from",
          "type": "address"
        },
        {
          "internalType": "address",
          "name": "to",
          "type": "address"
        },
        {
          "internalType": "uint256",
          "name": "tokenId",
          "type": "uint256"
        }
      ],
      "name": "safeTransferFrom",
      "outputs": [],
      "stateMutability": "nonpayable",
      "type": "function"
    },
    {
      "inputs": [
        {
          "internalType": "address",
          "name": "from",
          "type": "address"
        },
        {
          "internalType": "address",
          "name": "to",
          "type": "address"
        },
        {
          "internalType": "uint256",
          "name": "tokenId",
          "type": "uint256"
        },
        {
          "internalType": "bytes",
          "name": "_data",
          "type": "bytes"
        }
      ],
      "name": "safeTransferFrom",
      "outputs": [],
      "stateMutability": "nonpayable",
      "type": "function"
    },
    {
      "inputs": [
        {
          "internalType": "address",
          "name": "operator",
          "type": "address"
        },
        {
          "internalType": "bool",
          "name": "approved",
          "type": "bool"
        }
      ],
      "name": "setApprovalForAll",
      "outputs": [],
      "stateMutability": "nonpayable",
      "type": "function"
    },
    {
      "inputs": [
        {
          "internalType": "bytes4",
          "name": "interfaceId",
          "type": "bytes4"
        }
      ],
      "name": "supportsInterface",
      "outputs": [
        {
          "internalType": "bool",
          "name": "",
          "type": "bool"
        }
      ],
      "stateMutability": "view",
      "type": "function",
      "constant": true
    },
    {
      "inputs": [],
      "name": "symbol",
      "outputs": [
        {
          "internalType": "string",
          "name": "",
          "type": "string"
        }
      ],
      "stateMutability": "view",
      "type": "function",
      "constant": true
    },
    {
      "inputs": [],
      "name": "talawMintCount",
      "outputs": [
        {
          "internalType": "uint256",
          "name": "",
          "type": "uint256"
        }
      ],
      "stateMutability": "view",
      "type": "function",
      "constant": true
    },
    {
      "inputs": [
        {
          "internalType": "uint256",
          "name": "index",
          "type": "uint256"
        }
      ],
      "name": "tokenByIndex",
      "outputs": [
        {
          "internalType": "uint256",
          "name": "",
          "type": "uint256"
        }
      ],
      "stateMutability": "view",
      "type": "function",
      "constant": true
    },
    {
      "inputs": [
        {
          "internalType": "address",
          "name": "owner",
          "type": "address"
        },
        {
          "internalType": "uint256",
          "name": "index",
          "type": "uint256"
        }
      ],
      "name": "tokenOfOwnerByIndex",
      "outputs": [
        {
          "internalType": "uint256",
          "name": "",
          "type": "uint256"
        }
      ],
      "stateMutability": "view",
      "type": "function",
      "constant": true
    },
    {
      "inputs": [
        {
          "internalType": "uint256",
          "name": "tokenId",
          "type": "uint256"
        }
      ],
      "name": "tokenURI",
      "outputs": [
        {
          "internalType": "string",
          "name": "",
          "type": "string"
        }
      ],
      "stateMutability": "view",
      "type": "function",
      "constant": true
    },
    {
      "inputs": [],
      "name": "totalSupply",
      "outputs": [
        {
          "internalType": "uint256",
          "name": "",
          "type": "uint256"
        }
      ],
      "stateMutability": "view",
      "type": "function",
      "constant": true
    },
    {
      "inputs": [
        {
          "internalType": "address",
          "name": "from",
          "type": "address"
        },
        {
          "internalType": "address",
          "name": "to",
          "type": "address"
        },
        {
          "internalType": "uint256",
          "name": "tokenId",
          "type": "uint256"
        }
      ],
      "name": "transferFrom",
      "outputs": [],
      "stateMutability": "nonpayable",
      "type": "function"
    },
    {
      "inputs": [
        {
          "internalType": "address",
          "name": "newOwner",
          "type": "address"
        }
      ],
      "name": "transferOwnership",
      "outputs": [],
      "stateMutability": "nonpayable",
      "type": "function"
    },
    {
      "inputs": [],
      "name": "vestalMintCount",
      "outputs": [
        {
          "internalType": "uint256",
          "name": "",
          "type": "uint256"
        }
      ],
      "stateMutability": "view",
      "type": "function",
      "constant": true
    },
    {
      "inputs": [
        {
          "internalType": "uint256",
          "name": "tokenId",
          "type": "uint256"
        }
      ],
      "name": "getFaction",
      "outputs": [
        {
          "internalType": "uint256",
          "name": "",
          "type": "uint256"
        }
      ],
      "stateMutability": "view",
      "type": "function",
      "constant": true
    },
    {
      "inputs": [
        {
          "internalType": "address",
          "name": "user",
          "type": "address"
        }
      ],
      "name": "getPresaleClaimed",
      "outputs": [
        {
          "internalType": "bool",
          "name": "",
          "type": "bool"
        }
      ],
      "stateMutability": "view",
      "type": "function",
      "constant": true
    },
    {
      "inputs": [],
      "name": "getPreSaleState",
      "outputs": [
        {
          "internalType": "bool",
          "name": "",
          "type": "bool"
        }
      ],
      "stateMutability": "view",
      "type": "function",
      "constant": true
    },
    {
      "inputs": [],
      "name": "getSaleState",
      "outputs": [
        {
          "internalType": "bool",
          "name": "",
          "type": "bool"
        }
      ],
      "stateMutability": "view",
      "type": "function",
      "constant": true
    },
    {
      "inputs": [
        {
          "internalType": "uint256",
          "name": "factionId",
          "type": "uint256"
        }
      ],
      "name": "getMintCount",
      "outputs": [
        {
          "internalType": "uint256",
          "name": "",
          "type": "uint256"
        }
      ],
      "stateMutability": "view",
      "type": "function",
      "constant": true
    },
    {
      "inputs": [
        {
          "internalType": "string",
          "name": "uri",
          "type": "string"
        }
      ],
      "name": "setBaseURI",
      "outputs": [],
      "stateMutability": "nonpayable",
      "type": "function"
    },
    {
      "inputs": [
        {
          "internalType": "address",
          "name": "verifier",
          "type": "address"
        }
      ],
      "name": "setSignVerifier",
      "outputs": [],
      "stateMutability": "nonpayable",
      "type": "function"
    },
    {
      "inputs": [
        {
          "internalType": "uint256",
          "name": "maxMint",
          "type": "uint256"
        }
      ],
      "name": "setMaxMintPerTransaction",
      "outputs": [],
      "stateMutability": "nonpayable",
      "type": "function"
    },
    {
      "inputs": [
        {
          "internalType": "uint256",
          "name": "tokenId",
          "type": "uint256"
        },
        {
          "internalType": "bytes32[]",
          "name": "proof",
          "type": "bytes32[]"
        },
        {
          "internalType": "uint256",
          "name": "factionId",
          "type": "uint256"
        }
      ],
      "name": "presaleMint",
      "outputs": [],
      "stateMutability": "payable",
      "type": "function",
      "payable": true
    },
    {
      "inputs": [
        {
          "internalType": "uint256[]",
          "name": "factionIds",
          "type": "uint256[]"
        },
        {
          "internalType": "address[]",
          "name": "addresses",
          "type": "address[]"
        },
        {
          "internalType": "uint256",
          "name": "nonce",
          "type": "uint256"
        },
        {
          "internalType": "bytes",
          "name": "sig",
          "type": "bytes"
        }
      ],
      "name": "partnerMint",
      "outputs": [],
      "stateMutability": "payable",
      "type": "function",
      "payable": true
    },
    {
      "inputs": [
        {
          "internalType": "uint256",
          "name": "tokenCount",
          "type": "uint256"
        },
        {
          "internalType": "uint256",
          "name": "factionId",
          "type": "uint256"
        }
      ],
      "name": "mint",
      "outputs": [],
      "stateMutability": "payable",
      "type": "function",
      "payable": true
    },
    {
      "inputs": [
        {
          "internalType": "address",
          "name": "recipient",
          "type": "address"
        },
        {
          "internalType": "uint256",
          "name": "tokenCount",
          "type": "uint256"
        },
        {
          "internalType": "uint256",
          "name": "factionId",
          "type": "uint256"
        }
      ],
      "name": "mintToAddress",
      "outputs": [],
      "stateMutability": "nonpayable",
      "type": "function"
    },
    {
      "inputs": [
        {
          "internalType": "uint256",
          "name": "factionId",
          "type": "uint256"
        },
        {
          "internalType": "bytes",
          "name": "sig",
          "type": "bytes"
        }
      ],
      "name": "redeemBasePass",
      "outputs": [],
      "stateMutability": "nonpayable",
      "type": "function"
    },
    {
      "inputs": [],
      "name": "flipPresaleState",
      "outputs": [],
      "stateMutability": "nonpayable",
      "type": "function"
    },
    {
      "inputs": [],
      "name": "flipSaleState",
      "outputs": [],
      "stateMutability": "nonpayable",
      "type": "function"
    },
    {
      "inputs": [],
      "name": "withdraw",
      "outputs": [],
      "stateMutability": "nonpayable",
      "type": "function"
    },
    {
      "inputs": [
        {
          "internalType": "address",
          "name": "sender",
          "type": "address"
        },
        {
          "internalType": "uint256[]",
          "name": "factionIds",
          "type": "uint256[]"
        },
        {
          "internalType": "address[]",
          "name": "addresses",
          "type": "address[]"
        },
        {
          "internalType": "uint256",
          "name": "nonce",
          "type": "uint256"
        }
      ],
      "name": "getPartnerSigningHash",
      "outputs": [
        {
          "internalType": "bytes32",
          "name": "",
          "type": "bytes32"
        }
      ],
      "stateMutability": "pure",
      "type": "function",
      "constant": true
    },
    {
      "inputs": [
        {
          "internalType": "address",
          "name": "sender",
          "type": "address"
        },
        {
          "internalType": "uint256",
          "name": "factionId",
          "type": "uint256"
        }
      ],
      "name": "getBasePassSigningHash",
      "outputs": [
        {
          "internalType": "bytes32",
          "name": "",
          "type": "bytes32"
        }
      ],
      "stateMutability": "view",
      "type": "function",
      "constant": true
    }
  ],
  "bytecode": "0x60a06040526000600f819055601081905560118190556012805461ffff19169055601580546001600160a01b03191673d974c841ff9ad100a992555f4587ca61c838e6aa1790556017553480156200005657600080fd5b5060405162003c2038038062003c20833981016040819052620000799162000225565b604080518082018252601681527f4c6567656e6473206f662056656e61726920506173730000000000000000000060208083019182528351808501909452600384526204c56560ec1b908401528151919291620000d9916000916200017f565b508051620000ef9060019060208401906200017f565b5050506200010c620001066200012960201b60201c565b6200012d565b6001600b55600d93909355600e91909155600c5560805262000298565b3390565b600a80546001600160a01b038381166001600160a01b0319831681179093556040519116919082907f8be0079c531659141344cd1fd0a4f28419497f9722a3daafe3b4186f6b6457e090600090a35050565b8280546200018d906200025b565b90600052602060002090601f016020900481019282620001b15760008555620001fc565b82601f10620001cc57805160ff1916838001178555620001fc565b82800160010185558215620001fc579182015b82811115620001fc578251825591602001919060010190620001df565b506200020a9291506200020e565b5090565b5b808211156200020a57600081556001016200020f565b600080600080608085870312156200023b578384fd5b505082516020840151604085015160609095015191969095509092509050565b6002810460018216806200027057607f821691505b602082108114156200029257634e487b7160e01b600052602260045260246000fd5b50919050565b608051613965620002bb600039600081816115cb0152611aa401526139656000f3fe6080604052600436106102235760003560e01c806301f569971461022857806301ffc9a71461025357806306fdde0314610280578063081812fc146102a2578063095ea7b3146102cf5780630d52b7ee146102f157806318160ddd146103065780631b2ef1ca1461031b5780631c6d325b1461032e5780631fb5b1e0146103435780632249a61a1461036357806323b872dd1461037857806325bdb2a8146103985780632e6cebe5146103ad5780632f745c59146103cd5780632ff5e387146103ed57806334918dfd146104005780633ccfd60b1461041557806342842e0e1461042a578063455e7cdf1461044a5780634f259bd91461045f5780634f6ccce714610474578063500b9f441461049457806351bdca2b146104a957806354e4f1dd146104c957806355f804b3146104de5780635ee30966146104fe5780636089edd11461051e5780636352211e1461053357806370a0823114610553578063715018a6146105735780637a1be870146105885780638da5cb5b1461059b57806395d89b41146105b05780639fac2ab3146105c5578063a22cb465146105da578063a8a150b8146105fa578063b88d4fde1461061a578063bb40ad321461063a578063c002d23d1461065a578063c87b56dd1461066f578063db09a3f51461068f578063dc7aa9ef146106af578063e8649f58146106cf578063e985e9c5146106ef578063ebf0c7171461070f578063f2fde38b14610724578063f81227d414610744575b600080fd5b34801561023457600080fd5b5061023d610759565b60405161024a9190612d3b565b60405180910390f35b34801561025f57600080fd5b5061027361026e366004612a0d565b61075f565b60405161024a9190612d30565b34801561028c57600080fd5b5061029561078c565b60405161024a9190612d62565b3480156102ae57600080fd5b506102c26102bd366004612a8a565b61081e565b60405161024a9190612cdf565b3480156102db57600080fd5b506102ef6102ea366004612931565b61086a565b005b3480156102fd57600080fd5b5061023d610902565b34801561031257600080fd5b5061023d610908565b6102ef610329366004612b64565b61090e565b34801561033a57600080fd5b5061023d610a0a565b34801561034f57600080fd5b5061023d61035e366004612931565b610a0f565b34801561036f57600080fd5b5061023d610a5b565b34801561038457600080fd5b506102ef6103933660046127df565b610a61565b3480156103a457600080fd5b50610273610a99565b3480156103b957600080fd5b506102ef6103c8366004612a8a565b610aa7565b3480156103d957600080fd5b5061023d6103e8366004612931565b610aeb565b6102ef6103fb366004612aa2565b610b3d565b34801561040c57600080fd5b506102ef610c95565b34801561042157600080fd5b506102ef610cf1565b34801561043657600080fd5b506102ef6104453660046127df565b610d63565b34801561045657600080fd5b5061023d610d7e565b34801561046b57600080fd5b5061023d610d84565b34801561048057600080fd5b5061023d61048f366004612a8a565b610d89565b3480156104a057600080fd5b50610273610de4565b3480156104b557600080fd5b506102ef6104c4366004612b20565b610ded565b3480156104d557600080fd5b5061023d610ee8565b3480156104ea57600080fd5b506102ef6104f9366004612a45565b610eed565b34801561050a57600080fd5b50610273610519366004612793565b610f3f565b34801561052a57600080fd5b5061023d610f5d565b34801561053f57600080fd5b506102c261054e366004612a8a565b610f63565b34801561055f57600080fd5b5061023d61056e366004612793565b610f98565b34801561057f57600080fd5b506102ef610fdc565b6102ef61059636600461298c565b611027565b3480156105a757600080fd5b506102c261120d565b3480156105bc57600080fd5b5061029561121c565b3480156105d157600080fd5b5061023d61122b565b3480156105e657600080fd5b506102ef6105f53660046128f7565b611231565b34801561060657600080fd5b5061023d610615366004612a8a565b6112ff565b34801561062657600080fd5b506102ef61063536600461281a565b611339565b34801561064657600080fd5b5061023d61065536600461287f565b611372565b34801561066657600080fd5b5061023d6113ac565b34801561067b57600080fd5b5061029561068a366004612a8a565b6113b7565b34801561069b57600080fd5b5061023d6106aa366004612a8a565b61143a565b3480156106bb57600080fd5b506102ef6106ca36600461295a565b61149b565b3480156106db57600080fd5b506102ef6106ea366004612793565b61153a565b3480156106fb57600080fd5b5061027361070a3660046127ad565b61159b565b34801561071b57600080fd5b5061023d6115c9565b34801561073057600080fd5b506102ef61073f366004612793565b6115ed565b34801561075057600080fd5b506102ef61165e565b600c5481565b60006001600160e01b0319821663780e9d6360e01b14806107845750610784826116b1565b90505b919050565b60606000805461079b9061384d565b80601f01602080910402602001604051908101604052809291908181526020018280546107c79061384d565b80156108145780601f106107e957610100808354040283529160200191610814565b820191906000526020600020905b8154815290600101906020018083116107f757829003601f168201915b5050505050905090565b6000610829826116f1565b61084e5760405162461bcd60e51b815260040161084590613433565b60405180910390fd5b506000908152600460205260409020546001600160a01b031690565b600061087582610f63565b9050806001600160a01b0316836001600160a01b031614156108a95760405162461bcd60e51b815260040161084590613603565b806001600160a01b03166108bb61170e565b6001600160a01b031614806108d757506108d78161070a61170e565b6108f35760405162461bcd60e51b81526004016108459061328a565b6108fd8383611712565b505050565b60105481565b60085490565b6002600b5414156109315760405162461bcd60e51b81526004016108459061370f565b6002600b5561093f81611780565b61095b5760405162461bcd60e51b815260040161084590613644565b601254610100900460ff166109825760405162461bcd60e51b815260040161084590613261565b600082116109a25760405162461bcd60e51b815260040161084590613062565b600c548211156109c45760405162461bcd60e51b815260040161084590613096565b346109d6836642ca8019c700006137eb565b146109f35760405162461bcd60e51b8152600401610845906134b4565b610a01828233600d5461179c565b50506001600b55565b600281565b6001600160a01b0382166000908152601960209081526040808320549051610a3d9286928692909101612c32565b60405160208183030381529060405280519060200120905092915050565b600d5481565b610a72610a6c61170e565b826118ef565b610a8e5760405162461bcd60e51b815260040161084590613672565b6108fd83838361196c565b601254610100900460ff1690565b610aaf61170e565b6001600160a01b0316610ac061120d565b6001600160a01b031614610ae65760405162461bcd60e51b81526004016108459061347f565b600c55565b6000610af683610f98565b8210610b145760405162461bcd60e51b815260040161084590612e6e565b506001600160a01b03919091166000908152600660209081526040808320938352929052205490565b610b83610b4a3386611a87565b848480806020026020016040519081016040528093929190818152602001838360200280828437600092019190915250611a9c92505050565b610b9f5760405162461bcd60e51b81526004016108459061353d565b3360009081526014602052604090205460ff1615610bcf5760405162461bcd60e51b8152600401610845906134fc565b60125460ff16610bf15760405162461bcd60e51b815260040161084590613170565b601254610100900460ff1615610c195760405162461bcd60e51b815260040161084590612fa3565b610c2281611780565b610c3e5760405162461bcd60e51b815260040161084590613644565b346642ca8019c7000014610c645760405162461bcd60e51b8152600401610845906134b4565b336000818152601460205260409020805460ff19166001908117909155600d54610c8f92849161179c565b50505050565b610c9d61170e565b6001600160a01b0316610cae61120d565b6001600160a01b031614610cd45760405162461bcd60e51b81526004016108459061347f565b6012805461ff001981166101009182900460ff1615909102179055565b610cf961170e565b6001600160a01b0316610d0a61120d565b6001600160a01b031614610d305760405162461bcd60e51b81526004016108459061347f565b6040514790339082156108fc029083906000818181858888f19350505050158015610d5f573d6000803e3d6000fd5b5050565b6108fd83838360405180602001604052806000815250611339565b600f5481565b600081565b6000610d93610908565b8210610db15760405162461bcd60e51b8152600401610845906136c3565b60088281548110610dd257634e487b7160e01b600052603260045260246000fd5b90600052602060002001549050919050565b60125460ff1690565b610df682611780565b610e125760405162461bcd60e51b815260040161084590613140565b6000610e26610e213385610a0f565b611ac9565b6015549091506001600160a01b0316610e3f8284611af9565b6001600160a01b031614610e655760405162461bcd60e51b8152600401610845906132e2565b336000908152601960205260408120805491610e8083613888565b909155505082610ea457600f8054906000610e9a83613888565b9190505550610edc565b6001831415610ebd5760108054906000610e9a83613888565b6002831415610edc5760118054906000610ed683613888565b91905055505b6108fd33600185611b1d565b600181565b610ef561170e565b6001600160a01b0316610f0661120d565b6001600160a01b031614610f2c5760405162461bcd60e51b81526004016108459061347f565b8051610d5f9060169060208401906125a0565b6001600160a01b031660009081526014602052604090205460ff1690565b60115481565b6000818152600260205260408120546001600160a01b0316806107845760405162461bcd60e51b815260040161084590613373565b60006001600160a01b038216610fc05760405162461bcd60e51b815260040161084590613329565b506001600160a01b031660009081526003602052604090205490565b610fe461170e565b6001600160a01b0316610ff561120d565b6001600160a01b03161461101b5760405162461bcd60e51b81526004016108459061347f565b6110256000611b6e565b565b6002600b54141561104a5760405162461bcd60e51b81526004016108459061370f565b6002600b5560125460ff166110715760405162461bcd60e51b815260040161084590613170565b3484516642ca8019c7000061108691906137eb565b146110a35760405162461bcd60e51b8152600401610845906134b4565b82518451146110c45760405162461bcd60e51b815260040161084590612f0b565b60008281526018602052604090205460ff16156110f35760405162461bcd60e51b815260040161084590613746565b6000611104610e2133878787611372565b6015549091506001600160a01b031661111d8284611af9565b6001600160a01b0316146111435760405162461bcd60e51b8152600401610845906132e2565b6000838152601860205260408120805460ff191660011790555b855181101561120057600086828151811061118857634e487b7160e01b600052603260045260246000fd5b6020026020010151905061119b81611780565b6111b75760405162461bcd60e51b815260040161084590613644565b6111ed6001828885815181106111dd57634e487b7160e01b600052603260045260246000fd5b6020026020010151600d5461179c565b50806111f881613888565b91505061115d565b50506001600b5550505050565b600a546001600160a01b031690565b60606001805461079b9061384d565b600e5481565b61123961170e565b6001600160a01b0316826001600160a01b0316141561126a5760405162461bcd60e51b81526004016108459061310d565b806005600061127761170e565b6001600160a01b03908116825260208083019390935260409182016000908120918716808252919093529120805460ff1916921515929092179091556112bb61170e565b6001600160a01b03167f17307eab39ab6107e8899845ad3d59bd9653f200f220920489ca2b5937696c31836040516112f39190612d30565b60405180910390a35050565b600061130a826116f1565b6113265760405162461bcd60e51b81526004016108459061319c565b5060009081526013602052604090205490565b61134a61134461170e565b836118ef565b6113665760405162461bcd60e51b815260040161084590613672565b610c8f84848484611bc0565b60008484848460405160200161138b9493929190612bb1565b6040516020818303038152906040528051906020012090505b949350505050565b6642ca8019c7000081565b60606113c2826116f1565b6113de5760405162461bcd60e51b8152600401610845906135b4565b60006113e8611bf3565b905060008151116114085760405180602001604052806000815250611433565b8061141284611c02565b604051602001611423929190612c65565b6040516020818303038152906040525b9392505050565b600061144582611780565b6114615760405162461bcd60e51b815260040161084590613644565b8161146f5750600f54610787565b60018214156114815750601054610787565b60028214156114935750601154610787565b506000919050565b6114a361170e565b6001600160a01b03166114b461120d565b6001600160a01b0316146114da5760405162461bcd60e51b81526004016108459061347f565b6114e381611780565b6114ff5760405162461bcd60e51b815260040161084590613140565b6000821161151f5760405162461bcd60e51b81526004016108459061301e565b6108fd828285600e54600d5461153591906137bf565b61179c565b61154261170e565b6001600160a01b031661155361120d565b6001600160a01b0316146115795760405162461bcd60e51b81526004016108459061347f565b601580546001600160a01b0319166001600160a01b0392909216919091179055565b6001600160a01b03918216600090815260056020908152604080832093909416825291909152205460ff1690565b7f000000000000000000000000000000000000000000000000000000000000000081565b6115f561170e565b6001600160a01b031661160661120d565b6001600160a01b03161461162c5760405162461bcd60e51b81526004016108459061347f565b6001600160a01b0381166116525760405162461bcd60e51b815260040161084590612f5d565b61165b81611b6e565b50565b61166661170e565b6001600160a01b031661167761120d565b6001600160a01b03161461169d5760405162461bcd60e51b81526004016108459061347f565b6012805460ff19811660ff90911615179055565b60006001600160e01b031982166380ac58cd60e01b14806116e257506001600160e01b03198216635b5e139f60e01b145b80610784575061078482611d1c565b6000908152600260205260409020546001600160a01b0316151590565b3390565b600081815260046020526040902080546001600160a01b0319166001600160a01b038416908117909155819061174782610f63565b6001600160a01b03167f8c5be1e5ebec7d5bd14f71427d1e84f3dd0314c0f7b2291e5b200ac8c7c3b92560405160405180910390a45050565b600081158061178f5750600282145b8061078457505060011490565b8261180c5780600f54106117c25760405162461bcd60e51b815260040161084590612e2c565b8084600f546117d191906137bf565b11156117ef5760405162461bcd60e51b815260040161084590612da7565b83600f600082825461180191906137bf565b909155506118e49050565b60018314156118755780601054106118365760405162461bcd60e51b815260040161084590612e2c565b808460105461184591906137bf565b11156118635760405162461bcd60e51b815260040161084590612da7565b836010600082825461180191906137bf565b60028314156118e457806011541061189f5760405162461bcd60e51b815260040161084590612e2c565b80846011546118ae91906137bf565b11156118cc5760405162461bcd60e51b815260040161084590612da7565b83601160008282546118de91906137bf565b90915550505b610c8f828585611b1d565b60006118fa826116f1565b6119165760405162461bcd60e51b815260040161084590613215565b600061192183610f63565b9050806001600160a01b0316846001600160a01b0316148061195c5750836001600160a01b03166119518461081e565b6001600160a01b0316145b806113a457506113a4818561159b565b826001600160a01b031661197f82610f63565b6001600160a01b0316146119a55760405162461bcd60e51b81526004016108459061356b565b6001600160a01b0382166119cb5760405162461bcd60e51b8152600401610845906130c9565b6119d6838383611d35565b6119e1600082611712565b6001600160a01b0383166000908152600360205260408120805460019290611a0a90849061380a565b90915550506001600160a01b0382166000908152600360205260408120805460019290611a389084906137bf565b909155505060008181526002602052604080822080546001600160a01b0319166001600160a01b03868116918217909255915184939187169160008051602061391083398151915291a4505050565b60008183604051602001610a3d929190612cc4565b6000611433827f000000000000000000000000000000000000000000000000000000000000000085611dbe565b600081604051602001611adc9190612c94565b604051602081830303815290604052805190602001209050919050565b6000806000611b088585611e79565b91509150611b1581611ee9565b509392505050565b60005b82811015610c8f57600081601754611b3891906137bf565b9050611b45858285612016565b60178054906000611b5583613888565b9190505550508080611b6690613888565b915050611b20565b600a80546001600160a01b038381166001600160a01b0319831681179093556040519116919082907f8be0079c531659141344cd1fd0a4f28419497f9722a3daafe3b4186f6b6457e090600090a35050565b611bcb84848461196c565b611bd784848484612065565b610c8f5760405162461bcd60e51b815260040161084590612eb9565b60606016805461079b9061384d565b606081611c2757506040805180820190915260018152600360fc1b6020820152610787565b8160005b8115611c515780611c3b81613888565b9150611c4a9050600a836137d7565b9150611c2b565b6000816001600160401b03811115611c7957634e487b7160e01b600052604160045260246000fd5b6040519080825280601f01601f191660200182016040528015611ca3576020820181803683370190505b5090505b84156113a457611cb860018361380a565b9150611cc5600a866138a3565b611cd09060306137bf565b60f81b818381518110611cf357634e487b7160e01b600052603260045260246000fd5b60200101906001600160f81b031916908160001a905350611d15600a866137d7565b9450611ca7565b6001600160e01b031981166301ffc9a760e01b14919050565b611d408383836108fd565b6001600160a01b038316611d5c57611d578161217d565b611d7f565b816001600160a01b0316836001600160a01b031614611d7f57611d7f83826121c1565b6001600160a01b038216611d9b57611d968161225e565b6108fd565b826001600160a01b0316826001600160a01b0316146108fd576108fd8282612337565b600081815b8551811015611e6e576000868281518110611dee57634e487b7160e01b600052603260045260246000fd5b60200260200101519050808311611e2f578281604051602001611e12929190612c57565b604051602081830303815290604052805190602001209250611e5b565b8083604051602001611e42929190612c57565b6040516020818303038152906040528051906020012092505b5080611e6681613888565b915050611dc3565b509092149392505050565b600080825160411415611eb05760208301516040840151606085015160001a611ea48782858561237b565b94509450505050611ee2565b825160401415611eda5760208301516040840151611ecf868383612451565b935093505050611ee2565b506000905060025b9250929050565b6000816004811115611f0b57634e487b7160e01b600052602160045260246000fd5b1415611f165761165b565b6001816004811115611f3857634e487b7160e01b600052602160045260246000fd5b1415611f565760405162461bcd60e51b815260040161084590612d75565b6002816004811115611f7857634e487b7160e01b600052602160045260246000fd5b1415611f965760405162461bcd60e51b815260040161084590612df5565b6003816004811115611fb857634e487b7160e01b600052602160045260246000fd5b1415611fd65760405162461bcd60e51b8152600401610845906131d3565b6004816004811115611ff857634e487b7160e01b600052602160045260246000fd5b141561165b5760405162461bcd60e51b8152600401610845906133bc565b60008281526013602052604080822083905551829184916001600160a01b038716917f4c209b5fc8ad50758f13e2e1088ba56a560dff690a1c6fef26394f4c03821c4f91a46108fd8383612480565b6000612079846001600160a01b031661249a565b1561217557836001600160a01b031663150b7a0261209561170e565b8786866040518563ffffffff1660e01b81526004016120b79493929190612cf3565b602060405180830381600087803b1580156120d157600080fd5b505af1925050508015612101575060408051601f3d908101601f191682019092526120fe91810190612a29565b60015b61215b573d80801561212f576040519150601f19603f3d011682016040523d82523d6000602084013e612134565b606091505b5080516121535760405162461bcd60e51b815260040161084590612eb9565b805181602001fd5b6001600160e01b031916630a85bd0160e11b1490506113a4565b5060016113a4565b600880546000838152600960205260408120829055600182018355919091527ff3f7a9fe364faab93b216da50a3214154f22a0a2b415b23a84c8169e8b636ee30155565b600060016121ce84610f98565b6121d8919061380a565b60008381526007602052604090205490915080821461222b576001600160a01b03841660009081526006602090815260408083208584528252808320548484528184208190558352600790915290208190555b5060009182526007602090815260408084208490556001600160a01b039094168352600681528383209183525290812055565b6008546000906122709060019061380a565b600083815260096020526040812054600880549394509092849081106122a657634e487b7160e01b600052603260045260246000fd5b9060005260206000200154905080600883815481106122d557634e487b7160e01b600052603260045260246000fd5b600091825260208083209091019290925582815260099091526040808220849055858252812055600880548061231b57634e487b7160e01b600052603160045260246000fd5b6001900381819060005260206000200160009055905550505050565b600061234283610f98565b6001600160a01b039093166000908152600660209081526040808320868452825280832085905593825260079052919091209190915550565b6000806fa2a8918ca85bafe22016d0b997e4df60600160ff1b038311156123a85750600090506003612448565b8460ff16601b141580156123c057508460ff16601c14155b156123d15750600090506004612448565b6000600187878787604051600081526020016040526040516123f69493929190612d44565b6020604051602081039080840390855afa158015612418573d6000803e3d6000fd5b5050604051601f1901519150506001600160a01b03811661244157600060019250925050612448565b9150600090505b94509492505050565b6000806001600160ff1b03831660ff84901c601b016124728782888561237b565b935093505050935093915050565b610d5f8282604051806020016040528060008152506124a0565b3b151590565b6124aa83836124d3565b6124b76000848484612065565b6108fd5760405162461bcd60e51b815260040161084590612eb9565b6001600160a01b0382166124f95760405162461bcd60e51b8152600401610845906133fe565b612502816116f1565b1561251f5760405162461bcd60e51b815260040161084590612fe8565b61252b60008383611d35565b6001600160a01b03821660009081526003602052604081208054600192906125549084906137bf565b909155505060008181526002602052604080822080546001600160a01b0319166001600160a01b0386169081179091559051839290600080516020613910833981519152908290a45050565b8280546125ac9061384d565b90600052602060002090601f0160209004810192826125ce5760008555612614565b82601f106125e757805160ff1916838001178555612614565b82800160010185558215612614579182015b828111156126145782518255916020019190600101906125f9565b50612620929150612624565b5090565b5b808211156126205760008155600101612625565b60006001600160401b03831115612652576126526138e3565b612665601f8401601f1916602001613773565b905082815283838301111561267957600080fd5b828260208301376000602084830101529392505050565b80356001600160a01b038116811461078757600080fd5b600082601f8301126126b7578081fd5b813560206126cc6126c78361379c565b613773565b82815281810190858301838502870184018810156126e8578586fd5b855b8581101561270d576126fb82612690565b845292840192908401906001016126ea565b5090979650505050505050565b600082601f83011261272a578081fd5b8135602061273a6126c78361379c565b8281528181019085830183850287018401881015612756578586fd5b855b8581101561270d57813584529284019290840190600101612758565b600082601f830112612784578081fd5b61143383833560208501612639565b6000602082840312156127a4578081fd5b61143382612690565b600080604083850312156127bf578081fd5b6127c883612690565b91506127d660208401612690565b90509250929050565b6000806000606084860312156127f3578081fd5b6127fc84612690565b925061280a60208501612690565b9150604084013590509250925092565b6000806000806080858703121561282f578081fd5b61283885612690565b935061284660208601612690565b92506040850135915060608501356001600160401b03811115612867578182fd5b61287387828801612774565b91505092959194509250565b60008060008060808587031215612894578384fd5b61289d85612690565b935060208501356001600160401b03808211156128b8578485fd5b6128c48883890161271a565b945060408701359150808211156128d9578384fd5b506128e6878288016126a7565b949793965093946060013593505050565b60008060408385031215612909578182fd5b61291283612690565b915060208301358015158114612926578182fd5b809150509250929050565b60008060408385031215612943578182fd5b61294c83612690565b946020939093013593505050565b60008060006060848603121561296e578081fd5b61297784612690565b95602085013595506040909401359392505050565b600080600080608085870312156129a1578182fd5b84356001600160401b03808211156129b7578384fd5b6129c38883890161271a565b955060208701359150808211156129d8578384fd5b6129e4888389016126a7565b9450604087013593506060870135915080821115612a00578283fd5b5061287387828801612774565b600060208284031215612a1e578081fd5b8135611433816138f9565b600060208284031215612a3a578081fd5b8151611433816138f9565b600060208284031215612a56578081fd5b81356001600160401b03811115612a6b578182fd5b8201601f81018413612a7b578182fd5b6113a484823560208401612639565b600060208284031215612a9b578081fd5b5035919050565b60008060008060608587031215612ab7578182fd5b8435935060208501356001600160401b0380821115612ad4578384fd5b818701915087601f830112612ae7578384fd5b813581811115612af5578485fd5b8860208083028501011115612b08578485fd5b95986020929092019750949560400135945092505050565b60008060408385031215612b32578182fd5b8235915060208301356001600160401b03811115612b4e578182fd5b612b5a85828601612774565b9150509250929050565b60008060408385031215612b76578182fd5b50508035926020909101359150565b60008151808452612b9d816020860160208601613821565b601f01601f19169290920160200192915050565b606085901b6001600160601b0319168152835160009060148301906020808801845b83811015612bef57815185529382019390820190600101612bd3565b50508651818801939250845b81811015612c205784516001600160a01b031684529382019392820192600101612bfb565b50509481529093019695505050505050565b60609390931b6001600160601b03191683526014830191909152603482015260540190565b918252602082015260400190565b60008351612c77818460208801613821565b835190830190612c8b818360208801613821565b01949350505050565b7b0ca2ba3432b932bab69029b4b3b732b21026b2b9b9b0b3b29d05199960211b8152601c810191909152603c0190565b91825260601b6001600160601b031916602082015260340190565b6001600160a01b0391909116815260200190565b6001600160a01b0385811682528416602082015260408101839052608060608201819052600090612d2690830184612b85565b9695505050505050565b901515815260200190565b90815260200190565b93845260ff9290921660208401526040830152606082015260800190565b6000602082526114336020830184612b85565b60208082526018908201527745434453413a20696e76616c6964207369676e617475726560401b604082015260600190565b6020808252602e908201527f43616e6e6f74207075726368617365206d6f7265207468616e2074686520617660408201526d61696c61626c6520737570706c7960901b606082015260800190565b6020808252601f908201527f45434453413a20696e76616c6964207369676e6174757265206c656e67746800604082015260600190565b60208082526022908201527f546869732066616374696f6e20686173206265656e2066756c6c79206d696e74604082015261195960f21b606082015260800190565b6020808252602b908201527f455243373231456e756d657261626c653a206f776e657220696e646578206f7560408201526a74206f6620626f756e647360a81b606082015260800190565b60208082526032908201527f4552433732313a207472616e7366657220746f206e6f6e20455243373231526560408201527131b2b4bb32b91034b6b83632b6b2b73a32b960711b606082015260800190565b60208082526032908201527f46616374696f6e20696473206d7563682068617665207468652073616d65206c604082015271656e6774682061732061646472657373657360701b606082015260800190565b60208082526026908201527f4f776e61626c653a206e6577206f776e657220697320746865207a65726f206160408201526564647265737360d01b606082015260800190565b60208082526025908201527f43616e6e6f74206d696e74207768696c65206d61696e2073616c652069732061604082015264637469766560d81b606082015260800190565b6020808252601c908201527b115490cdcc8c4e881d1bdad95b88185b1c9958591e481b5a5b9d195960221b604082015260600190565b60208082526024908201527f596f752063616e206f6e6c79206d696e74206d6f7265207468616e203020746f6040820152636b656e7360e01b606082015260800190565b6020808252601a908201527926bab9ba1036b4b73a1030ba103632b0b9ba1018903a37b5b2b760311b604082015260600190565b602080825260199082015278151bdad95b8818dbdd5b9d08195e18d959591cc81b1a5b5a5d603a1b604082015260600190565b60208082526024908201527f4552433732313a207472616e7366657220746f20746865207a65726f206164646040820152637265737360e01b606082015260800190565b60208082526019908201527822a9219b99189d1030b8383937bb32903a379031b0b63632b960391b604082015260600190565b602080825260169082015275119858dd1a5bdb88191bd95cc81b9bdd08195e1a5cdd60521b604082015260600190565b60208082526012908201527150726573616c65206e6f742061637469766560701b604082015260600190565b6020808252601e908201527f517565727920666f72206e6f6e6578697374656e7420746f6b656e2069640000604082015260600190565b60208082526022908201527f45434453413a20696e76616c6964207369676e6174757265202773272076616c604082015261756560f01b606082015260800190565b6020808252602c908201527f4552433732313a206f70657261746f7220717565727920666f72206e6f6e657860408201526b34b9ba32b73a103a37b5b2b760a11b606082015260800190565b6020808252600f908201526e53616c65206e6f742061637469766560881b604082015260600190565b60208082526038908201527f4552433732313a20617070726f76652063616c6c6572206973206e6f74206f776040820152771b995c881b9bdc88185c1c1c9bdd995908199bdc88185b1b60421b606082015260800190565b60208082526027908201527f5065726d697373696f6e20746f2063616c6c20746869732066756e6374696f6e6040820152660819985a5b195960ca1b606082015260800190565b6020808252602a908201527f4552433732313a2062616c616e636520717565727920666f7220746865207a65604082015269726f206164647265737360b01b606082015260800190565b60208082526029908201527f4552433732313a206f776e657220717565727920666f72206e6f6e657869737460408201526832b73a103a37b5b2b760b91b606082015260800190565b60208082526022908201527f45434453413a20696e76616c6964207369676e6174757265202776272076616c604082015261756560f01b606082015260800190565b6020808252818101527f4552433732313a206d696e7420746f20746865207a65726f2061646472657373604082015260600190565b6020808252602c908201527f4552433732313a20617070726f76656420717565727920666f72206e6f6e657860408201526b34b9ba32b73a103a37b5b2b760a11b606082015260800190565b6020808252818101527f4f776e61626c653a2063616c6c6572206973206e6f7420746865206f776e6572604082015260600190565b60208082526028908201527f4554482073656e7420646f6573206e6f74206d61746368207265717569726564604082015267081c185e5b595b9d60c21b606082015260800190565b60208082526021908201527f416c726561647920636c61696d656420776974682074686973206164647265736040820152607360f81b606082015260800190565b60208082526014908201527324b73b30b634b21036b2b935b63290383937b7b360611b604082015260600190565b60208082526029908201527f4552433732313a207472616e73666572206f6620746f6b656e2074686174206960408201526839903737ba1037bbb760b91b606082015260800190565b6020808252602f908201527f4552433732314d657461646174613a2055524920717565727920666f72206e6f60408201526e3732bc34b9ba32b73a103a37b5b2b760891b606082015260800190565b60208082526021908201527f4552433732313a20617070726f76616c20746f2063757272656e74206f776e656040820152603960f91b606082015260800190565b602080825260149082015273119858dd1a5bdb881a5cc81b9bdd081d985b1a5960621b604082015260600190565b60208082526031908201527f4552433732313a207472616e736665722063616c6c6572206973206e6f74206f6040820152701ddb995c881b9bdc88185c1c1c9bdd9959607a1b606082015260800190565b6020808252602c908201527f455243373231456e756d657261626c653a20676c6f62616c20696e646578206f60408201526b7574206f6620626f756e647360a01b606082015260800190565b6020808252601f908201527f5265656e7472616e637947756172643a207265656e7472616e742063616c6c00604082015260600190565b6020808252601390820152722737b731b29030b63932b0b23c903ab9b2b21760691b604082015260600190565b6040518181016001600160401b0381118282101715613794576137946138e3565b604052919050565b60006001600160401b038211156137b5576137b56138e3565b5060209081020190565b600082198211156137d2576137d26138b7565b500190565b6000826137e6576137e66138cd565b500490565b6000816000190483118215151615613805576138056138b7565b500290565b60008282101561381c5761381c6138b7565b500390565b60005b8381101561383c578181015183820152602001613824565b83811115610c8f5750506000910152565b60028104600182168061386157607f821691505b6020821081141561388257634e487b7160e01b600052602260045260246000fd5b50919050565b600060001982141561389c5761389c6138b7565b5060010190565b6000826138b2576138b26138cd565b500690565b634e487b7160e01b600052601160045260246000fd5b634e487b7160e01b600052601260045260246000fd5b634e487b7160e01b600052604160045260246000fd5b6001600160e01b03198116811461165b57600080fdfeddf252ad1be2c89b69c2b068fc378daa952ba7f163c4a11628f55a4df523b3efa2646970667358221220e6b437da90a4a0724ade4cebb0f3c1f942dcd459ebb69d4c849cbca532be43e964736f6c63430008000033",
  "immutableReferences": {
    "76": [
      {
        "length": 32,
        "start": 5579
      },
      {
        "length": 32,
        "start": 6820
      }
    ]
  },
  "source": "// SPDX-License-Identifier: MIT\npragma solidity ^0.8.0;\n\nimport \"@openzeppelin/contracts/utils/cryptography/ECDSA.sol\";\nimport \"@openzeppelin/contracts/utils/Strings.sol\";\nimport \"@openzeppelin/contracts/access/Ownable.sol\";\nimport \"@openzeppelin/contracts/security/ReentrancyGuard.sol\";\nimport \"@openzeppelin/contracts/token/ERC721/extensions/ERC721Enumerable.sol\";\nimport \"@openzeppelin/contracts/utils/cryptography/MerkleProof.sol\";\n\n/**\n * @title Token contract for Legends of Venari Alpha Passes\n * @dev This contract allows the distribution of\n * Legends of Venari Passes in the form of a presale and main sale.\n *\n * Users can mint from Talaw, Vestal, or Azule in either sales.\n *\n *\n * Smart contract work done by lenopix.eth\n */\ncontract LegendsOfVenariPass is\n  ERC721Enumerable,\n  Ownable,\n  ReentrancyGuard\n{\n  using ECDSA for bytes32;\n  using Address for address;\n\n  event Mint(\n    address indexed to,\n    uint256 indexed tokenId,\n    uint256 indexed factionId\n  );\n\n  // Faction Ids\n  uint256 public constant TALAW_ID = 0;\n  uint256 public constant VESTAL_ID = 1;\n  uint256 public constant AZULE_ID = 2;\n\n  // Minting constants\n  uint256 public maxMintPerTransaction;\n  uint256 public MINT_SUPPLY_PER_FACTION;\n  uint256 public TEAM_SUPPLY_PER_FACTION;\n\n  // 0.188 ETH\n  uint256 public constant MINT_PRICE = 18800000000000000;\n\n  // Keep track of supply\n  uint256 public talawMintCount = 0;\n  uint256 public vestalMintCount = 0;\n  uint256 public azuleMintCount = 0;\n\n  // Sale toggles\n  bool private _isPresaleActive = false;\n  bool private _isSaleActive = false;\n\n  // Tracks the faction for a token\n  mapping(uint256 => uint256) factionForToken;\n\n  // Presale\n  mapping(address => bool) private presaleClaimed; // Everyone who got in on the presale can only claim once.\n  address private signVerifier = 0xd974C841FF9ad100a992555F4587CA61c838E6Aa;\n\n  // Base URI\n  string private _uri;\n\n  // Merkle Root\n  bytes32 immutable public root;\n\n  uint256 lastTokenId = 0;\n\n  constructor(\n    uint256 mintSupply,\n    uint256 teamSupply,\n    uint256 maxMint,\n    bytes32 merkleroot\n  ) ERC721(\"Legends of Venari Pass\", \"LVP\") {\n    MINT_SUPPLY_PER_FACTION = mintSupply;\n    TEAM_SUPPLY_PER_FACTION = teamSupply;\n    maxMintPerTransaction = maxMint;\n    root = merkleroot;\n  }\n\n  // @dev Returns the faction of the token id\n  function getFaction(uint256 tokenId) external view returns (uint256) {\n    require(_exists(tokenId), \"Query for nonexistent token id\");\n    return factionForToken[tokenId];\n  }\n\n  // @dev Returns whether a user has claimed from presale\n  function getPresaleClaimed(address user) external view returns (bool) {\n    return presaleClaimed[user];\n  }\n\n  // @dev Returns the enabled/disabled status for presale\n  function getPreSaleState() external view returns (bool) {\n    return _isPresaleActive;\n  }\n\n  // @dev Returns the enabled/disabled status for minting\n  function getSaleState() external view returns (bool) {\n    return _isSaleActive;\n  }\n\n  // @dev Returns the mint count of a specific faction\n  function getMintCount(uint256 factionId) external view returns (uint256) {\n    require(_isValidFactionId(factionId), \"Faction is not valid\");\n\n    if (factionId == TALAW_ID) {\n      return talawMintCount;\n    } else if (factionId == VESTAL_ID) {\n      return vestalMintCount;\n    } else if (factionId == AZULE_ID) {\n      return azuleMintCount;\n    }\n    return 0;\n  }\n\n  // @dev Allows to set the baseURI dynamically\n  // @param uri The base uri for the metadata store\n  function setBaseURI(string memory uri) external onlyOwner {\n    _uri = uri;\n  }\n\n  // @dev Sets a new signature verifier\n  function setSignVerifier(address verifier) external onlyOwner {\n    signVerifier = verifier;\n  }\n\n  // @dev Dynamically set the max mints a user can do in the main sale\n  function setMaxMintPerTransaction(uint256 maxMint) external onlyOwner {\n    maxMintPerTransaction = maxMint;\n  }\n\n  // Presale\n  function presaleMint(\n    uint256 tokenId,\n    bytes32[] calldata proof,\n    uint256 factionId\n  ) external payable {\n    require(_verify(_leaf(msg.sender, tokenId), proof), \"Invalid merkle proof\");\n    require(!presaleClaimed[msg.sender], \"Already claimed with this address\");\n    require(_isPresaleActive, \"Presale not active\");\n    require(!_isSaleActive, \"Cannot mint while main sale is active\");\n    require(_isValidFactionId(factionId), \"Faction is not valid\");\n    require(MINT_PRICE == msg.value, \"ETH sent does not match required payment\");\n    presaleClaimed[msg.sender] = true;\n\n    _handleFactionMint(1, factionId, msg.sender, MINT_SUPPLY_PER_FACTION);\n  }\n\n  function _leaf(address account, uint256 tokenId) internal pure returns (bytes32) {\n    return keccak256(abi.encodePacked(tokenId, account));\n  }\n\n  function _verify(bytes32 leaf, bytes32[] memory proof) internal view returns (bool) {\n    return MerkleProof.verify(proof, root, leaf);\n  }\n\n  mapping(uint256 => bool) partnerNonceUsed;\n  mapping(address => uint256) basePassNonce;\n\n  // @dev Partner Mint - For partners on the whitelist who want to batch mint\n  // @param factionIds The factions associated with the tokens\n  // @param addresses The addresses that the tokens will be distributed to\n  // @param sig Server side signature authorizing user to use the presale\n  function partnerMint(\n    uint256[] memory factionIds,\n    address[] memory addresses,\n    uint256 nonce,\n    bytes memory sig\n  ) external payable nonReentrant {\n    require(_isPresaleActive, \"Presale not active\");\n    require(\n      (MINT_PRICE * factionIds.length) == msg.value,\n      \"ETH sent does not match required payment\"\n    );\n    require(factionIds.length == addresses.length, \"Faction ids much have the same length as addresses\");\n    require(!partnerNonceUsed[nonce], \"Nonce already used.\");\n\n    // Verify signature\n    bytes32 message = getPartnerSigningHash(\n      msg.sender,\n      factionIds,\n      addresses,\n      nonce\n    ).toEthSignedMessageHash();\n    require(\n      ECDSA.recover(message, sig) == signVerifier,\n      \"Permission to call this function failed\"\n    );\n\n    partnerNonceUsed[nonce] = true;\n\n    // Mint\n    for (uint256 i = 0; i < factionIds.length; i++) {\n        uint256 factionId = factionIds[i];\n        require(_isValidFactionId(factionId), \"Faction is not valid\");\n        _handleFactionMint(1, factionId, addresses[i], MINT_SUPPLY_PER_FACTION);\n    }\n  }\n\n  // @dev Main sale mint\n  // @param tokensCount The tokens a user wants to purchase\n  // @param factionId Talaw: 1, Vestal: 2, Azule: 3\n  function mint(uint256 tokenCount, uint256 factionId)\n    external\n    payable\n    nonReentrant\n  {\n    require(_isValidFactionId(factionId), \"Faction is not valid\");\n    require(_isSaleActive, \"Sale not active\");\n    require(tokenCount > 0, \"Must mint at least 1 token\");\n    require(tokenCount <= maxMintPerTransaction, \"Token count exceeds limit\");\n    require(\n      (MINT_PRICE * tokenCount) == msg.value,\n      \"ETH sent does not match required payment\"\n    );\n\n      _handleFactionMint(tokenCount, factionId, msg.sender, MINT_SUPPLY_PER_FACTION);\n  }\n\n  // @dev Private mint function reserved for company.\n  // 50 of each faction is reserved.\n  // @param recipient The user receiving the tokens\n  // @param tokenCount The number of tokens to distribute\n  // @param factionId Community: 0 and Theos: 1\n  function mintToAddress(\n    address recipient,\n    uint256 tokenCount,\n    uint256 factionId\n  ) external onlyOwner {\n    require(_isValidFactionId(factionId), \"Faction does not exist\");\n    require(tokenCount > 0, \"You can only mint more than 0 tokens\");\n\n    _handleFactionMint(tokenCount, factionId, recipient, MINT_SUPPLY_PER_FACTION + TEAM_SUPPLY_PER_FACTION);\n  }\n\n  function redeemBasePass(\n    uint256 factionId,\n    bytes memory sig\n  ) external {\n    require(_isValidFactionId(factionId), \"Faction does not exist\");\n\n    // Verify signature\n    bytes32 message = getBasePassSigningHash(\n      msg.sender,\n      factionId\n    ).toEthSignedMessageHash();\n    require(\n      ECDSA.recover(message, sig) == signVerifier,\n      \"Permission to call this function failed\"\n    );\n\n    basePassNonce[msg.sender]++;\n\n    if (factionId == TALAW_ID) {\n      talawMintCount++;\n    } else if (factionId == VESTAL_ID) {\n      vestalMintCount++;\n    } else if (factionId == AZULE_ID) {\n      azuleMintCount++;\n    }\n\n    _mint(msg.sender, 1, factionId);\n  }\n\n  // @dev Allows to enable/disable minting of presale\n  function flipPresaleState() external onlyOwner {\n    _isPresaleActive = !_isPresaleActive;\n  }\n\n  // @dev Allows to enable/disable minting of main sale\n  function flipSaleState() external onlyOwner {\n    _isSaleActive = !_isSaleActive;\n  }\n\n  function withdraw() external onlyOwner {\n    uint256 balance = address(this).balance;\n    payable(msg.sender).transfer(balance);\n  }\n\n  function getPartnerSigningHash(\n    address sender,\n    uint256[] memory factionIds,\n    address[] memory addresses,\n    uint256 nonce\n  ) public pure returns (bytes32) {\n    return\n      keccak256(\n        abi.encodePacked(sender, factionIds, addresses, nonce)\n      );\n  }\n\n  function getBasePassSigningHash(\n    address sender,\n    uint256 factionId\n  ) public view returns (bytes32) {\n    return \n      keccak256(\n        abi.encodePacked(sender, factionId, basePassNonce[sender])\n      );\n  }\n\n  function _baseURI() internal view override returns (string memory) {\n    return _uri;\n  }\n\n  function _handleFactionMint(\n    uint256 tokenCount,\n    uint256 factionId,\n    address recipient,\n    uint256 totalSupply\n  ) private {\n    if (factionId == TALAW_ID) {\n      require(talawMintCount < totalSupply, \"This faction has been fully minted\");\n      require((talawMintCount + tokenCount) <= totalSupply, \"Cannot purchase more than the available supply\");\n      talawMintCount += tokenCount;\n    } else if (factionId == VESTAL_ID) {\n      require(vestalMintCount < totalSupply, \"This faction has been fully minted\");\n      require((vestalMintCount + tokenCount) <= totalSupply, \"Cannot purchase more than the available supply\");\n      vestalMintCount += tokenCount;\n    } else if (factionId == AZULE_ID) {\n      require(azuleMintCount < totalSupply, \"This faction has been fully minted\");\n      require((azuleMintCount + tokenCount) <= totalSupply, \"Cannot purchase more than the available supply\");\n      azuleMintCount += tokenCount;\n    }\n\n    _mint(recipient, tokenCount, factionId);\n  }\n\n  function _mint(\n    address recipient,\n    uint256 tokenCount,\n    uint256 factionId\n  ) private {\n    for (uint256 i = 0; i < tokenCount; i++) {\n      uint256 tokenId = lastTokenId + i;\n      _mintWithTokenId(recipient, tokenId, factionId);\n      lastTokenId++;\n    }\n  }\n\n  function _mintWithTokenId(\n    address recipient,\n    uint256 tokenId,\n    uint256 factionId\n  ) private {\n      factionForToken[tokenId] = factionId;\n      emit Mint(recipient, tokenId, factionId);\n      _safeMint(recipient, tokenId);\n  }\n\n\n  function _isValidFactionId(uint256 factionId) private pure returns (bool) {\n    return factionId == TALAW_ID || factionId == AZULE_ID || factionId == VESTAL_ID;\n  }\n}\n",
  "sourcePath": "/Users/jingsongdu/Documents/lov-smart-contracts/contracts/LegendsOfVenariPass.sol",
  "compiler": {
    "name": "solc",
    "version": "0.8.0+commit.c7dfd78e.Emscripten.clang"
  },
  "schemaVersion": "3.3.4",
  "updatedAt": "2021-10-19T10:28:13.158Z",
  "networkType": "ethereum",
  "devdoc": {
    "details": "This contract allows the distribution of Legends of Venari Passes in the form of a presale and main sale. Users can mint from Talaw, Vestal, or Azule in either sales. Smart contract work done by lenopix.eth",
    "kind": "dev",
    "methods": {
      "approve(address,uint256)": {
        "details": "See {IERC721-approve}."
      },
      "balanceOf(address)": {
        "details": "See {IERC721-balanceOf}."
      },
      "getApproved(uint256)": {
        "details": "See {IERC721-getApproved}."
      },
      "isApprovedForAll(address,address)": {
        "details": "See {IERC721-isApprovedForAll}."
      },
      "name()": {
        "details": "See {IERC721Metadata-name}."
      },
      "owner()": {
        "details": "Returns the address of the current owner."
      },
      "ownerOf(uint256)": {
        "details": "See {IERC721-ownerOf}."
      },
      "renounceOwnership()": {
        "details": "Leaves the contract without owner. It will not be possible to call `onlyOwner` functions anymore. Can only be called by the current owner. NOTE: Renouncing ownership will leave the contract without an owner, thereby removing any functionality that is only available to the owner."
      },
      "safeTransferFrom(address,address,uint256)": {
        "details": "See {IERC721-safeTransferFrom}."
      },
      "safeTransferFrom(address,address,uint256,bytes)": {
        "details": "See {IERC721-safeTransferFrom}."
      },
      "setApprovalForAll(address,bool)": {
        "details": "See {IERC721-setApprovalForAll}."
      },
      "supportsInterface(bytes4)": {
        "details": "See {IERC165-supportsInterface}."
      },
      "symbol()": {
        "details": "See {IERC721Metadata-symbol}."
      },
      "tokenByIndex(uint256)": {
        "details": "See {IERC721Enumerable-tokenByIndex}."
      },
      "tokenOfOwnerByIndex(address,uint256)": {
        "details": "See {IERC721Enumerable-tokenOfOwnerByIndex}."
      },
      "tokenURI(uint256)": {
        "details": "See {IERC721Metadata-tokenURI}."
      },
      "totalSupply()": {
        "details": "See {IERC721Enumerable-totalSupply}."
      },
      "transferFrom(address,address,uint256)": {
        "details": "See {IERC721-transferFrom}."
      },
      "transferOwnership(address)": {
        "details": "Transfers ownership of the contract to a new account (`newOwner`). Can only be called by the current owner."
      }
    },
    "title": "Token contract for Legends of Venari Alpha Passes",
    "version": 1
  },
  "userdoc": {
    "kind": "user",
    "methods": {},
    "version": 1
  }
}